:020000040800F2
:10000000005000202D1E0008A5180008AB1800089D
:10001000B1180008B7180008BD180008000000005B
:10002000000000000000000000000000C3180008ED
:10003000CF18000800000000DB180008E7180008CF
:10004000751E0008751E0008751E0008751E000844
:10005000751E0008751E0008751E0008751E000834
:10006000751E0008751E0008751E0008751E000824
:10007000751E0008751E0008751E0008751E000814
:10008000751E0008751E0008751E0008751E000804
:10009000751E0008751E0008751E0008751E0008F4
:1000A000751E0008751E0008751E0008751E0008E4
:1000B000F5180008751E0008751E0008751E00085A
:1000C000751E0008751E0008751E0008751E0008C4
:1000D000751E0008751E0008751E0008751E0008B4
:1000E000751E0008751E0008751E0008000000003F
:1000F0000000000000000000000000000000000000
:0C01000000000000000000005FF808F1A3
:1001100010B5054C237833B9044B13B10448AFF341
:1001200000800123237010BDE401002000000000C6
:10013000C482000808B5034B1BB103490348AFF361
:10014000008008BD00000000E8010020C482000813
:10015000034613F8012B002AFBD1181A0138704707
:1001600081F0004102E000BF83F0004330B54FEA68
:1001700041044FEA430594EA050F08BF90EA020FD5
:100180001FBF54EA000C55EA020C7FEA645C7FEA68
:10019000655C00F0E2804FEA5454D4EB5555B8BF8B
:1001A0006D420CDD2C4480EA020281EA030382EAFC
:1001B000000083EA010180EA020281EA0303362D8E
:1001C00088BF30BD11F0004F4FEA01314FF4801C61
:1001D0004CEA113102D0404261EB410113F0004F73
:1001E0004FEA03334CEA133302D0524263EB43032A
:1001F00094EA050F00F0A780A4F10104D5F1200EC8
:100200000DDB02FA0EFC22FA05F2801841F1000122
:1002100003FA0EF2801843FA05F359410EE0A5F1F6
:1002200020050EF1200E012A03FA0EFC28BF4CF027
:10023000020C43FA05F3C01851EBE37101F00045DD
:1002400007D54FF0000EDCF1000C7EEB00006EEBEA
:100250000101B1F5801F1BD3B1F5001F0CD3490874
:100260005FEA30004FEA3C0C04F101044FEA4452CB
:1002700012F5800F80F09A80BCF1004F08BF5FEA52
:10028000500C50F1000041EB045141EA050130BD32
:100290005FEA4C0C404141EB0101013C28BFB1F544
:1002A000801FE9D291F0000F04BF01460020B1FA8F
:1002B00081F308BF2033A3F10B03B3F120020CDA62
:1002C0000C3208DD02F1140CC2F10C0201FA0CF040
:1002D00021FA02F10CE002F11402D8BFC2F1200CA5
:1002E00001FA02F120FA0CFCDCBF41EA0C0190405B
:1002F000E41AA2BF01EB0451294330BD6FEA0404A4
:100300001F3C1CDA0C340EDC04F11404C4F120028E
:1003100020FA04F001FA02F340EA030021FA04F3A0
:1003200045EA030130BDC4F10C04C4F1200220FAF7
:1003300002F001FA04F340EA0300294630BD21FA35
:1003400004F0294630BD94F0000F83F4801306BFFB
:1003500081F480110134013D4EE77FEA645C18BFEF
:100360007FEA655C29D094EA050F08BF90EA020F86
:1003700005D054EA000C04BF1946104630BD91EA7E
:10038000030F1EBF0021002030BD5FEA545C05D181
:100390004000494128BF41F0004130BD14F58004C0
:1003A0003CBF01F5801130BD01F0004545F0FE4134
:1003B00041F470014FF0000030BD7FEA645C1ABF69
:1003C000194610467FEA655C1CBF0B46024650EAA0
:1003D000013406BF52EA033591EA030F41F40021CC
:1003E00030BD00BF90F0000F04BF0021704730B552
:1003F0004FF4806404F132044FF000054FF0000127
:1004000050E700BF90F0000F04BF0021704730B5E7
:100410004FF4806404F1320410F0004548BF4042BC
:100420004FF000013EE700BF42004FEAE2014FEA11
:1004300031014FEA02701FBF12F07F4393F07F4FEC
:1004400081F06051704732F07F4208BF704793F0EF
:100450007F4F04BF41F40021704730B54FF4607402
:1004600001F0004521F000411CE700BF50EA010205
:1004700008BF704730B54FF000050AE050EA0102AE
:1004800008BF704730B511F0004502D5404261EB1E
:1004900041014FF4806404F132045FEA915C3FF45F
:1004A000D8AE4FF003025FEADC0C18BF03325FEAFC
:1004B000DC0C18BF033202EBDC02C2F1200300FAAD
:1004C00003FC20FA02F001FA03FE40EA0E0021FAD2
:1004D00002F11444BDE600BF70B54FF0FF0C4CF4C0
:1004E000E06C1CEA11541DBF1CEA135594EA0C0F72
:1004F00095EA0C0F00F0DEF82C4481EA030621EAAD
:100500004C5123EA4C5350EA013518BF52EA0335E7
:1005100041F4801143F4801338D0A0FB02CE4FF099
:100520000005E1FB02E506F00042E0FB03E54FF0C9
:100530000006E1FB03569CF0000F18BF4EF0010EC1
:10054000A4F1FF04B6F5007F64F5407404D25FEABD
:100550004E0E6D4146EB060642EAC62141EA555170
:100560004FEAC52040EA5E504FEACE2EB4F1FD0CB2
:1005700088BFBCF5E06F1ED8BEF1004F08BF5FEA30
:10058000500E50F1000041EB045170BD06F00046E2
:1005900046EA010140EA020081EA0301B4EB5C048F
:1005A000C2BFD4EB0C0541EA045170BD41F4801187
:1005B0004FF0000E013C00F3AB8014F1360FDEBFAC
:1005C000002001F0004170BDC4F10004203C35DA88
:1005D0000C341BDC04F11404C4F1200500FA05F30B
:1005E00020FA04F001FA05F240EA020001F00042AC
:1005F00021F0004110EBD37021FA04F642EB060122
:100600005EEA430E08BF20EAD37070BDC4F10C044B
:10061000C4F1200500FA04F320FA05F001FA04F20F
:1006200040EA020001F0004110EBD37041F10001FB
:100630005EEA430E08BF20EAD37070BDC4F1200506
:1006400000FA05F24EEA020E20FA04F301FA05F26E
:1006500043EA020321FA04F001F0004121FA04F216
:1006600020EA020000EBD3705EEA430E08BF20EAE6
:10067000D37070BD94F0000F0FD101F00046400020
:1006800041EB010111F4801F08BF013CF7D041EAA2
:10069000060195F0000F18BF704703F000465200A6
:1006A00043EB030313F4801F08BF013DF7D043EA77
:1006B0000603704794EA0C0F0CEA135518BF95EA2D
:1006C0000C0F0CD050EA410618BF52EA4306D1D1B4
:1006D00081EA030101F000414FF0000070BD50EAD3
:1006E000410606BF1046194652EA430619D094EA5D
:1006F0000C0F02D150EA013613D195EA0C0F05D147
:1007000052EA03361CBF104619460AD181EA03019A
:1007100001F0004141F0FE4141F470014FF0000052
:1007200070BD41F0FE4141F4780170BD70B54FF0ED
:10073000FF0C4CF4E06C1CEA11541DBF1CEA13556D
:1007400094EA0C0F95EA0C0F00F0A7F8A4EB05044F
:1007500081EA030E52EA03354FEA013100F0888046
:100760004FEA03334FF0805545EA131343EA12630F
:100770004FEA022245EA111545EA10654FEA0026C4
:100780000EF000419D4208BF964244F1FD0404F57D
:10079000407402D25B084FEA3202B61A65EB0305D9
:1007A0005B084FEA32024FF480104FF4002CB6EB96
:1007B000020E75EB030E22BFB61A754640EA0C0016
:1007C0005B084FEA3202B6EB020E75EB030E22BF56
:1007D000B61A754640EA5C005B084FEA3202B6EB97
:1007E000020E75EB030E22BFB61A754640EA9C0056
:1007F0005B084FEA3202B6EB020E75EB030E22BF26
:10080000B61A754640EADC0055EA060E18D04FEAE3
:10081000051545EA16754FEA06164FEAC30343EA83
:1008200052734FEAC2025FEA1C1CC0D111F4801F50
:100830000BD141EA00014FF000004FF0004CB6E749
:1008400011F4801F04BF01430020B4F1FD0C88BFE8
:10085000BCF5E06F3FF6AFAEB5EB030C04BFB6EBF3
:10086000020C5FEA500C50F1000041EB045170BDE6
:100870000EF0004E4EEA113114EB5C04C2BFD4EB13
:100880000C0541EA045170BD41F480114FF0000E97
:10089000013C90E645EA060E8DE60CEA135594EA13
:1008A0000C0F08BF95EA0C0F3FF43BAF94EA0C0F16
:1008B0000AD150EA01347FF434AF95EA0C0F7FF48B
:1008C00025AF104619462CE795EA0C0F06D152EADF
:1008D00003353FF4FDAE1046194622E750EA4106C3
:1008E00018BF52EA43067FF4C5AE50EA41047FF4D4
:1008F0000DAF52EA43057FF4EBAE12E74FF0FF3C39
:1009000006E000BF4FF0010C02E000BF4FF0010C09
:100910004DF804CD4FEA410C7FEA6C5C4FEA430C82
:1009200018BF7FEA6C5C1BD001B050EA410C0CBFD1
:1009300052EA430C91EA030F02BF90EA020F002033
:10094000704710F1000F91EA030F58BF994208BF9A
:1009500090422CBFD8176FEAE37040F00100704757
:100960004FEA410C7FEA6C5C02D150EA013C07D1AE
:100970004FEA430C7FEA6C5CD6D152EA033CD3D0F9
:100980005DF8040B704700BF8446104662468C46F3
:100990001946634600E000BF01B5FFF7B7FF002826
:1009A00048BF10F1000F01BD4DF808EDFFF7F4FF4F
:1009B0000CBF012000205DF808FB00BF4DF808EDDA
:1009C000FFF7EAFF34BF012000205DF808FB00BFFD
:1009D0004DF808EDFFF7E0FF94BF012000205DF81F
:1009E00008FB00BF4DF808EDFFF7CEFF94BF0120D4
:1009F00000205DF808FB00BF4DF808EDFFF7C4FFCD
:100A000034BF012000205DF808FB00BF4FEA410C15
:100A10007FEA6C5C02D150EA013C0AD14FEA430CF8
:100A20007FEA6C5C02D152EA033C02D14FF0000035
:100A300070474FF0010070474FEA410212F5001273
:100A400015D211D56FF47873B3EB625212D94FEA15
:100A5000C12343F0004343EA505311F0004F23FAFF
:100A600002F018BF404270474FF00000704750EA54
:100A7000013005D111F0004008BF6FF00040704711
:100A80004FF00000704700BF4FEA4102B2F1E0436F
:100A900024BFB3F5001CDCF1FE5C0DD901F0004C65
:100AA0004FEAC0024CEA5070B2F1004F40EB8300B5
:100AB00008BF20F00100704711F0804F21D113F1E1
:100AC0003872BCBF01F00040704741F480114FEA1A
:100AD0005252C2F11802C2F1200C10FA0CF320FAA3
:100AE00002F018BF40F001004FEAC1234FEAD323C0
:100AF00003FA0CFC40EA0C0023FA02F34FEA43032A
:100B0000CCE77FEA625307D150EA01331EBF4FF0B2
:100B1000FE4040F44000704701F0004040F0FE40CD
:100B200040F40000704700BF80B400AF024B1B6868
:100B30001846BD4680BC70473802002080B400AF24
:100B4000024B1B681846BD4680BC7047340200202B
:100B500080B582B000AF6423012270210B4802F0FF
:100B6000E1F90346FB71FB791A460949094805F08A
:100B70006FF903469AB24FF47A730649064804F0B7
:100B800056FBFB7918460837BD4680BD4003002060
:100B9000F482000800020020E803002080B584B041
:100BA00002AF4FF47A7300930323064A702106487C
:100BB00001F04EFE0346FB71FB7918460837BD462F
:100BC00080BD00BF000000204003002080B485B03D
:100BD00000AF78600B46FB70FF23FB731EE07B6861
:100BE0005A1C7A601A78FB7B5340FB730023BB735B
:100BF00011E097F90F30002B07DAFB7B5B00FB73EA
:100C0000FB7B83F03103FB7302E0FB7B5B00FB7338
:100C1000BB7B0133BB73BB7B072BEAD9FB785A1E26
:100C2000FA70002BDBD1FB7B18461437BD4680BC25
:100C30007047000080B584B002AFFFF789FF03461C
:100C4000002B02D06FF00A032DE0FFF7A7FF034649
:100C5000FB71FB79002B24D14FF47A7001F06EF90F
:100C6000134A1449144805F0F3F803469AB24FF4B6
:100C70007A731149114804F0DAFA642300930723C8
:100C80000F4A70210F4801F0E1FE0346BB7164205A
:100C900001F054F9BB79002B03D100F015F803469D
:100CA00001E06FF00C0318460837BD4680BD00BF59
:100CB000088300080C83000800020020E8030020DD
:100CC0003C0200204003002080B582B000AF4F4BB3
:100CD0005B787B607B681B027B604C4B9B781A4681
:100CE0007B6813447B607B681B017B60474BDB7830
:100CF0001B09DBB21A467B6813447B607868FFF7F8
:100D000071FB4FF00002424BFFF7E6FB02460B4639
:100D100010461946FFF7B8FE03463E4A13603D4BA6
:100D20001B681846FFF780FB02460B463A493B48D2
:100D300005F08EF803469AB24FF47A733749384873
:100D400004F075FA314BDB7803F00F037B607B68AE
:100D50001B027B602D4B1B791A467B6813447B601A
:100D60007B681B027B60294B5B791A467B681344C6
:100D70007B607868FFF736FB4FF00002294BFFF7E6
:100D8000ABFB02460B46104619464FF00002264BBD
:100D9000FFF7EAF902460B4610461946FFF774FEC4
:100DA0000346224A1360214B1B681846FFF73CFBA1
:100DB00002460B461E49194805F04AF803469AB206
:100DC0004FF47A731549164804F031FA06210F489A
:100DD000FFF7FCFE0346FB700C4B9B79FA789A42B6
:100DE00002D06FF009030DE0124A13490B4805F0D9
:100DF0002FF803469AB24FF47A730849084804F072
:100E000016FA002318460837BD4680BD3C02002074
:100E10000000193F340200201C830008000200205B
:100E2000E80300200000293F00004940380200206C
:100E300028830008088300083483000800000000AD
:100E400080B500AF384B1B680D2B60D801A252F85B
:100E500023F000BF8D0E00080F0F00080F0F0008D1
:100E60000F0F00080F0F00080F0F00080F0F0008EA
:100E70000F0F00080F0F00080F0F00080F0F0008DA
:100E8000950E0008E50E0008FB0E0008264B0B220D
:100E90001A6041E042F2107000F076FCFFF7CAFEE3
:100EA000FFF742FE0346184600F0C8FAFFF746FE79
:100EB0000346184600F0ECFAFFF736FE03461846E4
:100EC000FFF7B2FA16A3D3E90023FFF795FD034617
:100ED000002B03D0144B0C221A601DE0124B0D2284
:100EE0001A6019E0322000F019F9104B1B68012B31
:100EF0000FD10D4B0B221A600BE000F025F90B4BC4
:100F00001B68012B07D1084B0B221A6003E000BFBE
:100F100002E000BF00E000BF00BF80BDAFF3008073
:100F2000CDCCCCCCCC4C3D40840200208C020020A7
:100F300080B590B000AF78600B467B8013463B8055
:100F4000304B9B692F4A43F0040393612D4B9B69FF
:100F500003F004033B613B692A4B9B69294A43F434
:100F600000639361274B9B6903F40063FB60FB689C
:100F700007F1300300221A605A609A60DA604FF479
:100F800080733B6302237B630223FB6307F130031F
:100F900019461D4801F07CF97B681C4A1A607B8861
:100FA000013B1A467B685A607B6800229A603B8846
:100FB000013B1A467B68DA607B6800221A61786818
:100FC00003F072F807F1140300221A605A609A6065
:100FD000DA601A615A619A6160237B610023BB6108
:100FE0000023FB6107F1140300221946786803F01F
:100FF000C5FB0021786803F051F900BF4037BD46BA
:1010000080BD00BF0010024000080140002C0140DC
:1010100080B584B000AF78603C4B1B68032B52D87E
:101020000023FB6046E0394B1A6813465B0013440B
:10103000374AD35C1A46FB6802FA03F303F08003D5
:10104000002B01DD262100E01321FB681833314A13
:10105000D1542E4B1A6813465B00134401332C4ABB
:10106000D35C1A46FB6802FA03F303F08003002BFB
:1010700001DD262100E01321FB682033254AD154ED
:10108000224B1A6813465B0013440233204AD35C98
:101090001A46FB6802FA03F303F08003002B01DD1C
:1010A000262100E01321FB6828331A4AD154FB683B
:1010B0000133FB60FB68072BB5D9144B1B68013368
:1010C000124A13601DE0114B1B68052B12D8182320
:1010D000FB7206E0FB7A0F4A0021D154FB7A013300
:1010E000FB72FB7A2F2BF5D9084B1B680133074A9B
:1010F000136006E0054B00221A600021064803F049
:101100006FF900BF1037BD4680BD00BF80020020D0
:101110004402002050020020F402002080B483B07A
:1011200000AF0346FB71FB79642B01D96423FB718B
:10113000044B1B68FA795A6300BF0C37BD4680BC6C
:10114000704700BFAC02002080B400AF034B1B68A7
:1011500000225A6300BFBD4680BC7047AC0200202D
:1011600080B588B000AF07F1100300221A605A6002
:101170009A60DA601D4B9B691C4A43F0200393611F
:101180001A4B9B6903F02003FB60FB68174B9B69BC
:10119000164A43F004039361144B9B6903F0040364
:1011A000BB60BB68114B9B69104A43F00803936115
:1011B0000E4B9B6903F008037B607B6800222021B3
:1011C0000B4801F0E9F920233B6101237B610023F7
:1011D000BB610223FB6107F110031946044801F0CB
:1011E00057F800BF2037BD4680BD00BF0010024049
:1011F0000008014080B483B000AF0346FB71FB7967
:10120000002B03D0054B01221A7002E0034B002291
:101210001A7000BF0C37BD4680BC70470300002029
:1012200080B586B002AF0346FB71204B1B78DB0014
:101230005BB243F004035BB2FB731C4B1B78DB0017
:10124000BB7397F9073023F00F035AB297F90F30A9
:1012500013435BB2DBB23B7297F9073023F00F0305
:101260005AB297F90E3013435BB2DBB27B72FB7953
:101270001B015AB297F90F3013435BB2DBB2BB725A
:10128000FB791B015AB297F90E3013435BB2DBB204
:10129000FB7207F1080264230093042342210448EF
:1012A00001F0D6FA00BF1037BD4680BD0300002014
:1012B0004003002080B586B002AF0346FB71224B8D
:1012C0001B78DB005BB243F005035BB2FB731E4B84
:1012D0001B78DB005BB243F001035BB2BB7397F991
:1012E000073023F00F035AB297F90F3013435BB264
:1012F000DBB23B7297F9073023F00F035AB297F92C
:101300000E3013435BB2DBB27B72FB791B015AB226
:1013100097F90F3013435BB2DBB2BB72FB791B0151
:101320005AB297F90E3013435BB2DBB2FB7207F18E
:1013300008026423009304234221044801F088FA40
:1013400000BF1037BD4680BD0300002040030020D1
:1013500080B582B000AF03460A46FB711346BB71ED
:10136000FB79002B02D0012B05D009E0BB7963F09B
:101370007F03BB7104E0BB7963F03F03BB7100BF27
:10138000BB791846FFF74CFF00BF0837BD4680BD4C
:1013900080B500AF322000F0D1FD3020FFF740FFD4
:1013A000052000F0CBFD3020FFF73AFF012000F0D0
:1013B000C5FD3020FFF734FF0A2000F0BFFD2020DC
:1013C000FFF72EFF0A2000F0B9FD2820FFF728FFC5
:1013D000012000F0B3FD0820FFF722FF012000F0FC
:1013E000ADFD0120FFF71CFF012000F0A7FD01204B
:1013F00000F0A4FD0620FFF713FF012000F09EFD82
:101400000C20FFF70DFF012000F098FD00BF80BD0C
:1014100080B582B000AF786006E07B685A1C7A60C5
:101420001B781846FFF746FF7B681B78002BF4D12A
:1014300000BF00BF0837BD4680BD000080B588B042
:1014400000AF78600023FB6007F1100300221A60F0
:101450005A609A60DA607868FEF7E6FF02460B464B
:1014600007F10C00094904F0F3FC00210020FFF70C
:101470006FFF07F10C031846FFF7CAFF4320FFF781
:1014800019FF00BF2037BD4680BD00BF588300084C
:1014900080B588B000AF78600023FB6007F11003CF
:1014A00000221A605A609A60DA607868FEF7BCFF22
:1014B00002460B4607F10C00094904F0C9FC002163
:1014C0000120FFF745FF07F10C031846FFF7A0FFC7
:1014D0002520FFF7EFFE00BF2037BD4680BD00BFCF
:1014E0006483000880B500AF124B134A1A60114B99
:1014F000124A5A600F4B00229A600E4B0022DA60AB
:101500000C4B4FF480421A610A4B00225A61094B7E
:1015100000229A61074B0022DA61064B00221A6210
:10152000044801F051F80346002B01D000F027F9E0
:1015300000BF80BD4003002000540040A086010091
:1015400080B500AF124B134A1A60114B124A5A6011
:101550000F4B00229A600E4B0022DA600C4B4FF4C6
:1015600080421A610A4B00225A61094B00229A619B
:10157000074B0022DA61064B00221A62044801F090
:1015800023F80346002B01D000F0F9F800BF80BD1E
:101590009403002000580040A086010080B58CB064
:1015A00000AF786007F11C0300221A605A609A604D
:1015B000DA607B681B68324A934233D1314B9B69B6
:1015C000304A43F0080393612E4B9B6903F00803F4
:1015D000BB61BB694FF44073FB6112233B62032381
:1015E000BB6207F11C031946274800F051FE274B48
:1015F0005B68FB62FB6A43F0E063FB62FB6A43F0FB
:101600000203FB62214AFB6A53601E4BDB691D4AE1
:1016100043F40013D3611B4BDB6903F400137B61BC
:101620007B6929E07B681B68194A934224D1154BDA
:101630009B69144A43F008039361124B9B6903F0C2
:1016400008033B613B694FF44063FB6112233B623B
:101650000323BB6207F11C0319460B4800F018FE78
:10166000084BDB69074A43F48003D361054BDB6910
:1016700003F48003FB60FB6800BF3037BD4680BDCC
:101680000054004000100240000C014000000140E6
:101690000058004080B500AF00F0EEFB00F020F8ED
:1016A000FFF75EFD00F04EFB00F094FAFFF71AFF23
:1016B000FFF746FF00F0EEF9642230210648FFF7FD
:1016C00037FC064802F040FDFFF762FE0120FFF7FD
:1016D00091FDFFF7B5FBFCE7AC020020F40200200F
:1016E00080B590B000AF07F11803282200211846FA
:1016F00003F046FF3B1D00221A605A609A60DA60D0
:101700001A610123BB614FF48033FB6100233B620C
:101710000123BB6202237B634FF48033BB634FF42E
:101720008013FB6307F11803184602F0AFF8034675
:10173000002B01D000F023F80F237B600223BB6055
:101740000023FB604FF480633B6100237B613B1D02
:101750000121184602F01AFB0346002B01D000F0CD
:101760000EF800BF4037BD4680BD80B582B000AFE7
:10177000786000F023F800BF0837BD4680BD80B414
:1017800000AF72B600BFFEE780B483B000AF7860F0
:10179000074B1B687A6892FBF3F3064A1360064B0B
:1017A00000221A6000BF0C37BD4680BC704700BFE6
:1017B00004000020880200208C02002080B400AFCA
:1017C000194B1B68002B0BDD174B1B68013B164A9E
:1017D0001360154B1B68002B02D1144B01221A60B9
:1017E000134B1B68002B0BDD114B1B68013B104A90
:1017F00013600F4B1B68002B02D10E4B01221A60A5
:101800000D4B1B68002B0BDD0B4B1B68013B0A4A81
:101810001360094B1B68002B02D1084B01221A6090
:1018200000BFBD4680BC7047880200208C020020AB
:101830009002002094020020980200209C020020C8
:1018400080B485B000AF154B9B69144A43F0010387
:101850009361124B9B6903F00103BB60BB680F4BA4
:10186000DB690E4A43F08053D3610C4BDB6903F014
:1018700080537B607B680A4B5B68FB60FB6823F0EE
:10188000E063FB60FB6843F00073FB60044AFB68A5
:10189000536000BF1437BD4680BC70470010024043
:1018A0000000014080B400AFFEE780B400AFFEE767
:1018B00080B400AFFEE780B400AFFEE780B400AFB5
:1018C000FEE780B400AF00BFBD4680BC704780B467
:1018D00000AF00BFBD4680BC704780B400AF00BF02
:1018E000BD4680BC704780B500AF00F00BFB00BF69
:1018F00080BD000080B500AF024802F037FE00BF97
:1019000080BD00BFF402002080B400AF0123184660
:10191000BD4680BC704780B582B000AF786039604A
:1019200003F004FE034616221A604FF0FF331846F8
:101930000837BD4680BD80B582B000AF78604FF0FB
:10194000FF317868FFF7E7FFFEE780B586B000AFAC
:10195000F860B9607A6000237B610AE0AFF3008031
:101960000146BB685A1CBA60CAB21A707B6901335F
:101970007B617A697B689A42F0DB7B68184618378E
:10198000BD4680BD80B586B000AFF860B9607A60B2
:1019900000237B6109E0BB685A1CBA601B781846BB
:1019A000AFF300807B6901337B617A697B689A427F
:1019B000F1DB7B6818461837BD4680BD80B483B024
:1019C00000AF78604FF0FF3318460C37BD4680BC3F
:1019D000704780B483B000AF786039603B684FF4E3
:1019E00000525A60002318460C37BD4680BC704731
:1019F00080B483B000AF7860012318460C37BD4631
:101A000080BC704780B485B000AFF860B9607A6080
:101A1000002318461437BD4680BC704780B586B099
:101A200000AF7860144A154BD31A7B617B693B6128
:101A3000134B1B68002B02D1114B124A1A60104B3A
:101A40001A687B6813443A699A4207D203F06EFD24
:101A500003460C221A604FF0FF3309E0084B1B6865
:101A6000FB60074B1A687B681344054A1360FB68E8
:101A700018461837BD4680BD005000200004000005
:101A8000A00200204804002080B400AF00BFBD4683
:101A900080BC704780B596B000AF07F148030022C4
:101AA0001A605A609A60DA6007F1400300221A60F7
:101AB0005A6007F1240300221A605A609A60DA60C3
:101AC0001A615A619A613B1D20220021184603F0D9
:101AD00057FD3E4B3E4A1A603C4B00225A603B4B3E
:101AE00000229A60394B4FF6FF72DA60374B0022C2
:101AF0001A61364B00225A61344B00229A613348F6
:101B000002F0D2FA0346002B01D0FFF738FE4FF463
:101B10008053BB6407F1480319462C4802F0F0FEDD
:101B20000346002B01D0FFF72AFE284802F05EFB97
:101B30000346002B01D0FFF722FE00233B64002365
:101B40007B6407F140031946204803F05FFA03461F
:101B5000002B01D0FFF713FE60237B620023BB62E2
:101B60000023FB6200233B6300237B630023BB63F2
:101B70000023FB6307F1240300221946134802F0F7
:101B8000FDFD0346002B01D0FFF7F9FD00237B602C
:101B90000023BB600023FB6000233B6100237B61CB
:101BA0004FF40053BB6100233B623B1D19460748BD
:101BB00003F08AFA0346002B01D0FFF7E0FD03484B
:101BC00000F08CF800BF5837BD4680BDAC02002045
:101BD000002C014080B586B000AF07F10803002259
:101BE0001A605A609A60DA603B4600221A605A60B6
:101BF0001D4B4FF080421A601B4B41F2BF225A60CE
:101C0000194B00229A60184B6322DA60164B0022AF
:101C10001A61154B00229A61134802F045FA0346F7
:101C2000002B01D0FFF7ABFD4FF48053BB6007F1F1
:101C3000080319460C4802F063FE0346002B01D04E
:101C4000FFF79DFD00233B6000237B603B46194668
:101C5000054803F0DBF90346002B01D0FFF78FFDA9
:101C600000BF1837BD4680BDF402002080B584B0A7
:101C700000AF78607B681B68164A93420CD1164B04
:101C80009B69154A43F400639361134B9B6903F40A
:101C90000063FB60FB6818E07B681B68B3F1804F52
:101CA00013D10D4BDB690C4A43F00103D3610A4B9E
:101CB000DB6903F00103BB60BB68002200211C202C
:101CC00000F037FA1C2000F050FA00BF1037BD4674
:101CD00080BD00BF002C01400010024080B588B0DC
:101CE00000AF786007F1100300221A605A609A6012
:101CF000DA607B681B68104A934218D10F4B9B69CE
:101D00000E4A43F0040393610C4B9B6903F00403F8
:101D1000FB60FB684FF480733B6102237B6102230D
:101D2000FB6107F110031946054800F0B1FA00BF46
:101D30002037BD4680BD00BF002C0140001002408E
:101D40000008014080B500AF114B124A1A60104BD9
:101D50004FF416525A600E4B00229A600C4B002230
:101D6000DA600B4B00221A61094B0C225A61084BB6
:101D700000229A61064B0022DA61054803F007FA57
:101D80000346002B01D0FFF7FAFC00BF80BD00BF67
:101D9000E80300200044004080B588B000AF7860C0
:101DA00007F1100300221A605A609A60DA607B68BB
:101DB0001B681B4A93422FD11A4BDB69194A43F423
:101DC0000033D361174BDB6903F40033FB60FB681E
:101DD000144B9B69134A43F004039361114B9B69B5
:101DE00003F00403BB60BB6804233B6102237B61F7
:101DF0000323FB6107F1100319460B4800F048FA72
:101E000008233B6100237B610023BB6107F11003C2
:101E10001946054800F03CFA00BF2037BD4680BD9A
:101E2000004400400010024000080140FFF72CFE73
:101E30000B480C490C4A002302E0D458C450043328
:101E4000C4188C42F9D3094A094C002301E01360FD
:101E50000432A242FBD303F06FFBFFF71BFC704779
:101E600000000020E401002084870008E401002035
:101E700044040020FEE7000080B500AF084B1B685B
:101E8000074A43F010031360032000F047F90F20C6
:101E900000F008F8FFF7D4FC0023184680BD00BF0F
:101EA0000020024080B582B000AF7860124B1A6803
:101EB000124B1B7819464FF47A73B3FBF1F3B2FB64
:101EC000F3F3184600F05FF90346002B01D001231D
:101ED0000EE07B680F2B0AD8002279684FF0FF30A4
:101EE00000F027F9064A7B681360002300E0012315
:101EF00018460837BD4680BD0800002010000020AD
:101F00000C00002080B400AF054B1B781A46054B2F
:101F10001B681344034A136000BFBD4680BC704772
:101F2000100000203004002080B400AF024B1B687A
:101F30001846BD4680BC70473004002080B584B090
:101F400000AF7860FFF7F0FFB8607B68FB60FB686C
:101F5000B3F1FF3F05D00A4B1B781A46FB681344C8
:101F6000FB6000BFFFF7E0FF0246BB68D31AFA68C8
:101F70009A42F7D800BF00BF1037BD4680BD00BFF2
:101F80001000002080B485B000AF78607B6803F05B
:101F90000703FB600C4BDB68BB60BA684FF6FF03BE
:101FA0001340BB60FB681A02BB68134343F0BF6376
:101FB00043F40033BB60044ABB68D36000BF1437EE
:101FC000BD4680BC704700BF00ED00E080B400AFAC
:101FD000044BDB681B0A03F007031846BD4680BCB0
:101FE000704700BF00ED00E080B483B000AF03464F
:101FF000FB7197F90730002B0BDBFB7903F01F0215
:10200000064997F907305B09012000FA02F241F80E
:10201000232000BF0C37BD4680BC704700E100E0C4
:1020200080B483B000AF03463960FB7197F9073085
:10203000002B0ADB3B68DAB20C4997F90730120132
:10204000D2B20B4483F800230AE03B68DAB20849B5
:10205000FB7903F00F03043B1201D2B20B441A7652
:1020600000BF0C37BD4680BC704700BF00E100E0F8
:1020700000ED00E080B489B000AFF860B9607A602C
:10208000FB6803F00703FB61FB69C3F10703042B43
:1020900028BF0423BB61FB690433062B02D9FB690B
:1020A000033B00E000237B614FF0FF32BB6902FA83
:1020B00003F3DA43BB681A407B699A404FF0FF3163
:1020C0007B6901FA03F3D9437B680B40134318463D
:1020D0002437BD4680BC704780B582B000AF7860C1
:1020E0007B68013BB3F1807F01D301230FE00A4AF3
:1020F0007B68013B53600F214FF0FF30FFF790FFEB
:10210000054B00229A60044B07221A6000231846F0
:102110000837BD4680BD00BF10E000E080B582B04A
:1021200000AF78607868FFF72DFF00BF0837BD4625
:1021300080BD80B586B000AF0346B9607A60FB739E
:1021400000237B61FFF742FF78617A68B96878699C
:10215000FFF790FF024697F90F3011461846FFF738
:102160005FFF00BF1837BD4680BD80B582B000AFAD
:102170000346FB7197F907301846FFF735FF00BF9C
:102180000837BD4680BD80B582B000AF7860786802
:10219000FFF7A2FF034618460837BD4680BD000082
:1021A00080B584B000AF78600023FB737B6893F840
:1021B0002130DBB2022B05D07B6804229A63012315
:1021C000FB7351E07B681B681A687B681B6822F010
:1021D0000E021A607B681B681A687B681B6822F015
:1021E00001021A607B681B68224A934229D07B68EF
:1021F0001B68214A934222D07B681B681F4A934286
:102200001AD07B681B681E4A934212D07B681B68F9
:102210001C4A93420AD07B681B681B4A934202D136
:102220004FF480130EE04FF080730BE04FF48033D7
:1022300008E04FF4805305E04FF4807302E0102370
:1022400000E00123114A53607B68012283F82120BA
:102250007B68002283F820207B685B6B002B03D017
:102260007B685B6B78689847FB7B18461037BD46E8
:1022700080BD00BF080002401C0002403000024048
:1022800044000240580002406C000240000002403E
:1022900080B48BB000AF7860396000237B6200238C
:1022A0003B6269E101227B6A02FA03F3FB613B684E
:1022B0001B68FA691340BB61BA69FB699A4240F036
:1022C00058813B685B689A4A93425ED0984A934231
:1022D00075D8984A934258D0964A93426FD8964AF6
:1022E000934252D0944A934269D8944A93424CD034
:1022F000924A934263D8924A934246D0904A93427C
:102300005DD8122B2AD8122B59D801A252F823F0EB
:102310008B2300086523000877230008B9230008F1
:10232000BF230008BF230008BF230008BF23000805
:10233000BF230008BF230008BF230008BF230008F5
:10234000BF230008BF230008BF230008BF230008E5
:10235000BF2300086D23000881230008794A9342B7
:1023600013D02CE03B68DB683B6229E03B68DB680C
:1023700004333B6224E03B68DB6808333B621FE0C8
:102380003B68DB680C333B621AE03B689B68002BC0
:1023900002D104233B6213E03B689B68012B05D10B
:1023A00008233B627B68FA691A6109E008233B62F3
:1023B0007B68FA695A6103E000233B6200E000BFDA
:1023C000BB69FF2B01D87B6801E07B6804337B612C
:1023D000BB69FF2B02D87B6A9B0002E07B6A083B4B
:1023E0009B003B617B691A680F213B6901FA03F38B
:1023F000DB431A40396A3B6901FA03F31A437B69EC
:102400001A603B685B6803F08053002B00F0B180DA
:102410004D4B9B694C4A43F0010393614A4B9B69C6
:1024200003F00103BB60BB68484A7B6A9B08023328
:1024300052F82330FB607B6A03F003039B000F22FA
:1024400002FA03F3DB43FA681340FB607B68404AFF
:10245000934213D07B683F4A93420DD07B683E4A3B
:10246000934207D07B683D4A934201D1032306E0A3
:10247000042304E0022302E0012300E000237A6A3F
:1024800002F0030292009340FA681343FB602F4965
:102490007B6A9B080233FA6841F823203B685B683B
:1024A00003F48013002B06D02D4B9A682C49BB698E
:1024B00013438B6006E02A4B9A68BB69DB432849CB
:1024C00013408B603B685B6803F40013002B06D05D
:1024D000234BDA682249BB691343CB6006E0204BEB
:1024E000DA68BB69DB431E491340CB603B685B681D
:1024F00003F40033002B06D0194B5A681849BB6906
:1025000013434B6006E0164B5A68BB69DB43144922
:1025100013404B603B685B6803F48033002B21D091
:102520000F4B1A680E49BB6913430B6021E000BFD3
:1025300000003210000031100000221000002110B5
:1025400000001210000011100010024000000140B5
:1025500000080140000C014000100140001401403F
:10256000000401400B4B1A68BB69DB430949134067
:102570000B607B6A01337B623B681A687B6A22FAD4
:1025800003F3002B7FF48EAE00BF00BF2C37BD4697
:1025900080BC70470004014080B483B000AF786015
:1025A0000B467B8013467B707B78002B03D07A88A8
:1025B0007B681A6103E07B881A047B681A6100BF9C
:1025C0000C37BD4680BC704780B584B000AF7860E2
:1025D0007B68002B01D101232BE17B6893F83D3010
:1025E000DBB2002B06D17B68002283F83C207868A0
:1025F000FEF7D4FF7B68242283F83D207B681B68AC
:102600001A687B681B6822F001021A607B681B68ED
:102610001A687B681B6842F400421A607B681B687A
:102620001A687B681B6822F400421A6001F0F6FC0D
:10263000F8607B685B68814A934207D8FB68804AF0
:10264000934294BF01230023DBB206E0FB687D4A7E
:10265000934294BF01230023DBB2002B01D001235E
:10266000E7E0FB68784AA2FB03239B0CBB607B6816
:102670001B685B6823F03F017B681B68BA680A43EC
:102680005A607B681B681B6A23F03F017B685B68AC
:102690006A4A934202D8BB68013309E0BB684FF431
:1026A000967202FB03F3694AA2FB03239B090133E1
:1026B0007A6812680B4313627B681B68DB6923F43A
:1026C0004F4222F0FF027B685B685C498B4219D85D
:1026D000FB68591E7B685B685B00B1FBF3F3591C18
:1026E00040F6FC730B40002B0AD0FB68591E7B6838
:1026F0005B685B00B1FBF3F30133C3F30B0351E001
:1027000004234FE07B689B68002B11D1FB68581EA7
:102710007B6859680B465B000B44B0FBF3F3013355
:10272000C3F30B03002B0CBF01230023DBB212E029
:10273000FB68581E7B6859680B469B000B44990048
:102740000B44B0FBF3F30133C3F30B03002B0CBFBB
:1027500001230023DBB2002B01D0012322E07B68A0
:102760009B68002B0ED1FB68581E7B6859680B468E
:102770005B000B44B0FBF3F30133C3F30B0343F4EF
:1027800000430FE0FB68581E7B6859680B469B00AE
:102790000B4499000B44B0FBF3F30133C3F30B0379
:1027A00043F44043796809681343CB617B681B6835
:1027B0001B6823F0C0017B68DA697B681B6A1A43D7
:1027C0007B681B680A431A607B681B689B6823F45C
:1027D000034323F0FF037A6811697A68D2681143D2
:1027E0007A6812680B4393607B681B68DB6823F090
:1027F000FF017B685A697B689B691A437B681B6889
:102800000A43DA607B681B681A687B681B6842F0C1
:1028100001021A607B6800221A647B68202283F818
:102820003D207B6800221A637B68002283F83E20EB
:10283000002318461037BD4680BD00BFA0860100AA
:102840007F841E00FF083D0083DE1B43D34D6210D2
:1028500080B588B002AFF8607A601A460B467B817B
:1028600013463B81FFF760FB7861FB6893F83D30CE
:10287000DBB2202B40F0E0807B690093192301221A
:102880007049F86800F0CCFD0346002B01D002230C
:10289000D3E0FB6893F83C30012B01D10223CCE05C
:1028A000FB68012283F83C20FB681B681B6803F06F
:1028B0000103012B07D0FB681B681A68FB681B68C3
:1028C00042F001021A60FB681B681A68FB681B680B
:1028D00022F400621A60FB68212283F83D20FB6825
:1028E000102283F83E20FB6800221A64FB687A6895
:1028F0005A62FB683A895A85FB685B8D9AB2FB681D
:102900001A85FB68504ADA6279897B693A6AF86805
:1029100000F036FC0346002B01D001238DE000239C
:102920003B61FB681B685B693B61FB681B689B69DB
:102930003B613B6966E07A69396AF86800F08AFEB3
:102940000346002B0DD0FB681B6C042B07D1FB68E2
:102950001B681A68FB681B6842F400721A60012346
:102960006BE0FB685B6A1A78FB681B681A61FB689E
:102970005B6A5A1CFB685A62FB685B8D9BB2013B29
:102980009AB2FB685A85FB681B8D013B9AB2FB68C3
:102990001A85FB681B685B6903F00403042B1BD1D9
:1029A000FB681B8D002B17D0FB685B6A1A78FB68ED
:1029B0001B681A61FB685B6A5A1CFB685A62FB68F9
:1029C0005B8D9BB2013B9AB2FB685A85FB681B8DFD
:1029D000013B9AB2FB681A857A69396AF86800F097
:1029E00081FE0346002B0DD0FB681B6C042B07D126
:1029F000FB681B681A68FB681B6842F400721A6067
:102A000001231AE0FB681B8D002B94D1FB681B6827
:102A10001A68FB681B6842F400721A60FB68202287
:102A200083F83D20FB68002283F83E20FB680022EB
:102A300083F83C20002300E0022318461837BD46E7
:102A400080BD00BF020010000000FFFF80B58CB009
:102A500002AFF8607A601A460B467B8113463B81D1
:102A600000233B62FFF760FA7862FB6893F83D3021
:102A7000DBB2202B40F04B827B6A009319230122AA
:102A80007F49F86800F0CCFC0346002B01D00223FC
:102A90003EE2FB6893F83C30012B01D1022337E280
:102AA000FB68012283F83C20FB681B681B6803F06D
:102AB0000103012B07D0FB681B681A68FB681B68C1
:102AC00042F001021A60FB681B681A68FB681B6809
:102AD00022F400621A60FB68222283F83D20FB6822
:102AE000102283F83E20FB6800221A64FB687A6893
:102AF0005A62FB683A895A85FB685B8D9AB2FB681B
:102B00001A85FB685F4ADA6279897B6A3A6BF868F2
:102B100000F0B8FB0346002B01D00123F8E1FB686D
:102B20001B8D002B13D10023FB61FB681B685B69C5
:102B3000FB61FB681B689B69FB61FB69FB681B68A9
:102B40001A68FB681B6842F400721A60CCE1FB68EB
:102B50001B8D012B1ED1FB681B681A68FB681B6864
:102B600022F480621A6072B600BF0023BB61FB686A
:102B70001B685B69BB61FB681B689B69BB61BB69C8
:102B8000FB681B681A68FB681B6842F400721A60D5
:102B900062B635E0FB681B8D022B1ED1FB681B68FB
:102BA0001A68FB681B6842F400621A6072B600BFC4
:102BB00000237B61FB681B685B697B61FB681B68AA
:102BC0009B697B617B69FB681B681A68FB681B68F3
:102BD00022F480621A6062B612E0FB681B681A6811
:102BE000FB681B6842F480621A6000233B61FB684B
:102BF0001B685B693B61FB681B689B693B613B69C8
:102C000072E1FB681B8D032B00F21F81FB681B8D9B
:102C1000012B23D17A6A396BF86800F0ABFD0346CB
:102C2000002B01D0012373E1FB681B681A69FB6864
:102C30005B6AD2B21A70FB685B6A5A1CFB685A6204
:102C4000FB681B8D013B9AB2FB681A85FB685B8DA4
:102C50009BB2013B9AB2FB685A8545E1FB681B8D2C
:102C6000022B52D17B6A00933B6B00220649F86825
:102C700000F0D6FB0346002B08D0012348E100BF3B
:102C8000020010000000FFFF0400010072B600BF48
:102C9000FB681B681A68FB681B6842F400721A60C4
:102CA000FB681B681A69FB685B6AD2B21A70FB6822
:102CB0005B6A5A1CFB685A62FB681B8D013B9AB227
:102CC000FB681A85FB685B8D9BB2013B9AB2FB687F
:102CD0005A8562B600BFFB681B681A69FB685B6AAD
:102CE000D2B21A70FB685B6A5A1CFB685A62FB68B6
:102CF0001B8D013B9AB2FB681A85FB685B8D9BB20A
:102D0000013B9AB2FB685A85EEE07B6A00933B6B0D
:102D100000228149F86800F083FB0346002B01D0B4
:102D20000123F5E0FB681B681A68FB681B6822F446
:102D300080621A6072B600BFFB681B681A69FB6884
:102D40005B6AD2B21A70FB685B6A5A1CFB685A62F3
:102D5000FB681B8D013B9AB2FB681A85FB685B8D93
:102D60009BB2013B9AB2FB685A856C4B1B68DB082F
:102D70006B4AA2FB03231A0A13469B001344DA0092
:102D8000D31A3B623B6A013B3B623B6A002B18D182
:102D9000FB6800221A63FB68202283F83D20FB6851
:102DA000002283F83E20FB681B6C43F02002FB6886
:102DB0001A6462B600BFFB68002283F83C2001233E
:102DC000A6E0FB681B685B6903F00403042BD9D100
:102DD000FB681B681A68FB681B6842F400721A6083
:102DE000FB681B681A69FB685B6AD2B21A70FB68E1
:102DF0005B6A5A1CFB685A62FB681B8D013B9AB2E6
:102E0000FB681A85FB685B8D9BB2013B9AB2FB683D
:102E10005A8562B600BFFB681B681A69FB685B6A6B
:102E2000D2B21A70FB685B6A5A1CFB685A62FB6874
:102E30001B8D013B9AB2FB681A85FB685B8D9BB2C8
:102E4000013B9AB2FB685A854EE07A6A396BF868A2
:102E500000F090FC0346002B01D0012358E0FB68F2
:102E60001B681A69FB685B6AD2B21A70FB685B6AFE
:102E70005A1CFB685A62FB681B8D013B9AB2FB68C7
:102E80001A85FB685B8D9BB2013B9AB2FB685A8541
:102E9000FB681B685B6903F00403042B24D1FB6807
:102EA0001B8D032B07D1FB681B681A68FB681B6826
:102EB00022F480621A60FB681B681A69FB685B6A0F
:102EC000D2B21A70FB685B6A5A1CFB685A62FB68D4
:102ED0001B8D013B9AB2FB681A85FB685B8D9BB228
:102EE000013B9AB2FB685A85FB681B8D002B7FF46F
:102EF00088AEFB68202283F83D20FB68002283F81F
:102F00003E20FB68002283F83C20002300E00223DF
:102F100018462837BD4680BD040001000800002087
:102F200089B5F81480B58AB002AFF8607A603B606A
:102F30000B467B81FEF7F8FFF8610023BB61FB685D
:102F400093F83D30DBB2202B40F01181FB690093F8
:102F5000192301228849F86800F062FA0346002B21
:102F600001D0022304E1FB6893F83C30012B01D12E
:102F70000223FDE0FB68012283F83C20FB681B680C
:102F80001B6803F00103012B07D0FB681B681A685C
:102F9000FB681B6842F001021A60FB681B681A6834
:102FA000FB681B6822F400621A60FB68242283F825
:102FB0003D20FB6800221A64FB68704ADA62FB68F5
:102FC0001B681A68FB681B6842F480721A60FB6910
:102FD00000933B6800224FF00111F86800F020FADE
:102FE0000346002B0DD0FB681B681B6803F480733D
:102FF000B3F5807F03D1FB684FF400721A6403239A
:10300000B6E07B89DBB21A46FB681B6802F0FE0261
:103010001A61FEF789FFF861FB681B685B6903F0C2
:103020000203022B0CBF01230023DBB2FB75FB68FC
:103030001B685B6903F48063B3F5806F0CBF0123E9
:103040000023DBB2BB7525E0FEF76EFF0246FB698D
:10305000D31A3A689A4202D33B68002B03D1FB682B
:10306000A02283F83D20FB681B685B6903F0020324
:10307000022B0CBF01230023DBB2FB75FB681B682E
:103080005B6903F48063B3F5806F0CBF01230023F9
:10309000DBB2BB75FB6893F83D30DBB2A02B05D0EB
:1030A000FB7D002B02D1BB7D002BCDD0FB68202205
:1030B00083F83D20FB681B685B6903F00203022B69
:1030C00029D1FB681B681A68FB681B6842F4007210
:1030D0001A6000233B61FB681B685B693B61FB680E
:1030E0001B689B693B613B69FB69009319230122C3
:1030F0002149F86800F094F90346002B01D0012320
:1031000036E0FB68202283F83D20FB68002283F82C
:103110003C2000232CE0FB681B681A68FB681B68D6
:1031200042F400721A60FB681B686FF480625A6197
:10313000FB690093192301220F49F86800F070F928
:103140000346002B01D0012312E0BB690133BB61B0
:10315000BA697B689A42FFF432AFFB68202283F899
:103160003D20FB68002283F83C20012300E002237D
:1031700018462037BD4680BD020010000000FFFF4A
:1031800080B588B002AFF8607A603B600B467B8107
:10319000FB68DB6A7B617B69082B06D07B69012BAE
:1031A00003D07B6913F5803F08D1FB681B681A6860
:1031B000FB681B6842F480721A600BE0FB681B6BB3
:1031C000122B07D1FB681B681A68FB681B6842F466
:1031D00080721A603B6800937B6800224FF00111F7
:1031E000F86800F01DF90346002B0DD0FB681B6842
:1031F0001B6803F48073B3F5807F03D1FB684FF441
:1032000000721A64032335E0FB681B69B3F5804F35
:1032100008D17B89DBB21A46FB681B6802F0FE020C
:103220001A611BE07B89DB11DBB203F00603DBB222
:1032300063F00F03DAB2FB681B681A613B687A68B7
:103240000E49F86800F066F90346002B01D001230F
:1032500010E07B89DAB2FB681B681A613B687A6808
:103260000749F86800F056F90346002B01D0012306
:1032700000E0002318461837BD4680BD0800010055
:103280000200010080B588B002AFF8607A603B6050
:103290000B467B81FB68DB6A7B61FB681B681A68F5
:1032A000FB681B6842F480621A607B69082B06D0B9
:1032B0007B69012B03D07B6913F5803F08D1FB6844
:1032C0001B681A68FB681B6842F480721A600BE086
:1032D000FB681B6B112B07D1FB681B681A68FB6826
:1032E0001B6842F480721A603B6800937B6800227E
:1032F0004FF00111F86800F093F80346002B0DD051
:10330000FB681B681B6803F48073B3F5807F03D1EF
:10331000FB684FF400721A64032379E0FB681B69B1
:10332000B3F5804F08D17B89DBB243F00103DAB2F9
:10333000FB681B681A615FE07B89DB11DBB203F07D
:103340000603DBB263F00F03DAB2FB681B681A6195
:103350003B687A683049F86800F0DCF80346002BD7
:1033600001D0012354E07B89DAB2FB681B681A6143
:103370003B687A682949F86800F0CCF80346002BCE
:1033800001D0012344E000233B61FB681B685B69BB
:103390003B61FB681B689B693B613B69FB681B6881
:1033A0001A68FB681B6842F480721A603B680093DD
:1033B0007B6800224FF00111F86800F031F80346F5
:1033C000002B0DD0FB681B681B6803F48073B3F5FA
:1033D000807F03D1FB684FF400721A64032317E067
:1033E0007B89DB11DBB203F00603DBB263F00E0373
:1033F000DAB2FB681B681A613B687A680749F868AB
:1034000000F088F80346002B01D0012300E00023E0
:1034100018461837BD4680BD0800010002000100B3
:1034200080B584B000AFF860B9603B601346FB71B3
:1034300048E03B68B3F1FF3F44D0FEF775FD02461C
:10344000BB69D31A3A689A4202D33B68002B39D140
:10345000BB681B0CDBB2012B0DD1FB681B685B69E1
:10346000DA43BB6813409BB2002B0CBF012300233F
:10347000DBB21A460CE0FB681B689B69DA43BB6849
:1034800013409BB2002B0CBF01230023DBB21A4672
:10349000FB799A4216D1FB6800221A63FB6820224E
:1034A00083F83D20FB68002283F83E20FB681B6CFC
:1034B00043F02002FB681A64FB68002283F83C207A
:1034C000012323E0BB681B0CDBB2012B0DD1FB6891
:1034D0001B685B69DA43BB6813409BB2002B0CBFCF
:1034E00001230023DBB21A460CE0FB681B689B69D2
:1034F000DA43BB6813409BB2002B0CBF01230023AF
:10350000DBB21A46FB799A4293D000231846103753
:10351000BD4680BD80B584B000AFF860B9607A6008
:103520003B6071E0FB681B685B6903F48063B3F583
:10353000806F23D1FB681B681A68FB681B6842F424
:1035400000721A60FB681B686FF480625A61FB6846
:1035500000221A63FB68202283F83D20FB680022CA
:1035600083F83E20FB681B6C43F00402FB681A647E
:10357000FB68002283F83C20012367E07B68B3F1FD
:10358000FF3F41D0FEF7D0FC02463B68D31A7A6871
:103590009A4202D37B68002B36D1BB681B0CDBB28E
:1035A000012B0CD1FB681B685B69DA43BB681340D5
:1035B0009BB2002B14BF01230023DBB20BE0FB689E
:1035C0001B689B69DA43BB6813409BB2002B14BF96
:1035D00001230023DBB2002B16D0FB6800221A6304
:1035E000FB68202283F83D20FB68002283F83E2000
:1035F000FB681B6C43F02002FB681A64FB68002226
:1036000083F83C20012321E0BB681B0CDBB2012BBB
:103610000CD1FB681B685B69DA43BB6813409BB243
:10362000002B14BF01230023DBB20BE0FB681B68F7
:103630009B69DA43BB6813409BB2002B14BF012384
:103640000023DBB2002B7FF46DAF00231846103748
:10365000BD4680BD80B584B000AFF860B9607A60C7
:1036600034E0F86800F0E3F80346002B01D00123B2
:1036700034E0BB68B3F1FF3F28D0FEF755FC0246AB
:103680007B68D31ABA689A4202D3BB68002B1DD15B
:10369000FB681B685B6903F08003802B16D0FB6816
:1036A00000221A63FB68202283F83D20FB68002279
:1036B00083F83E20FB681B6C43F02002FB681A6411
:1036C000FB68002283F83C20012307E0FB681B68AD
:1036D0005B6903F08003802BC3D1002318461037A9
:1036E000BD4680BD80B584B000AFF860B9607A6037
:1036F00034E0F86800F09BF80346002B01D001236A
:1037000034E0BB68B3F1FF3F28D0FEF70DFC024662
:103710007B68D31ABA689A4202D3BB68002B1DD1CA
:10372000FB681B685B6903F00403042B16D0FB687D
:1037300000221A63FB68202283F83D20FB680022E8
:1037400083F83E20FB681B6C43F02002FB681A6480
:10375000FB68002283F83C20012307E0FB681B681C
:103760005B6903F00403042BC3D100231846103710
:10377000BD4680BD80B584B000AFF860B9607A60A6
:1037800049E0FB681B685B6903F01003102B19D13B
:10379000FB681B686FF010025A61FB6800221A6315
:1037A000FB68202283F83D20FB68002283F83E203E
:1037B000FB681A6CFB681A64FB68002283F83C20E3
:1037C000012330E0FEF7B0FB02467B68D31ABA68EB
:1037D0009A4202D3BB68002B1DD1FB681B685B6952
:1037E00003F04003402B16D0FB6800221A63FB68ED
:1037F000202283F83D20FB68002283F83E20FB68EE
:103800001B6C43F02002FB681A64FB68002283F8FB
:103810003C20012307E0FB681B685B6903F0400361
:10382000402BAED1002318461037BD4680BD80B472
:1038300083B000AF78607B681B685B6903F48063CA
:10384000B3F5806F1BD17B681B686FF480625A618F
:103850007B6800221A637B68202283F83D207B6806
:10386000002283F83E207B681B6C43F004027B68D7
:103870001A647B68002283F83C20012300E00023C7
:1038800018460C37BD4680BC7047000080B586B036
:1038900000AF78607B68002B01D101236CE27B686C
:1038A0001B6803F00103002B00F08780924B5B68DC
:1038B00003F00C03042B0CD08F4B5B6803F00C035C
:1038C000082B12D18C4B5B6803F48033B3F5803F37
:1038D0000BD1894B1B6803F40033002B6CD07B6841
:1038E0005B68002B68D1012346E27B685B68B3F517
:1038F000803F06D1804B1B687F4A43F480331360BE
:103900002EE07B685B68002B0CD17B4B1B687A4AEE
:1039100023F480331360784B1B68774A23F48023A9
:1039200013601DE07B685B68B3F5A02F0CD1724B70
:103930001B68714A43F4802313606F4B1B686E4A07
:1039400043F4803313600BE06B4B1B686A4A23F42B
:1039500080331360684B1B68674A23F4802313602D
:103960007B685B68002B13D0FEF7DEFA386108E055
:10397000FEF7DAFA02463B69D31A642B01D9032316
:10398000FAE15D4B1B6803F40033002BF0D014E028
:10399000FEF7CAFA386108E0FEF7C6FA02463B694C
:1039A000D31A642B01D90323E6E1534B1B6803F4BC
:1039B0000033002BF0D100E000BF7B681B6803F0F0
:1039C0000203002B63D04C4B5B6803F00C03002B0D
:1039D0000BD0494B5B6803F00C03082B1CD1464B02
:1039E0005B6803F48033002B16D1434B1B6803F054
:1039F0000203002B05D07B681B69012B01D001233A
:103A0000BAE13D4B1B6823F0F8027B685B69DB0081
:103A1000394913430B603AE07B681B69002B20D0C7
:103A2000364B01221A60FEF77FFA386108E0FEF794
:103A30007BFA02463B69D31A022B01D903239BE18F
:103A40002D4B1B6803F00203002BF0D02A4B1B68A0
:103A500023F0F8027B685B69DB00274913430B60A6
:103A600015E0264B00221A60FEF75EFA386108E086
:103A7000FEF75AFA02463B69D31A022B01D90323F7
:103A80007AE11D4B1B6803F00203002BF0D17B6829
:103A90001B6803F00803002B3AD07B689B69002B5E
:103AA00019D0174B01221A60FEF73EFA386108E080
:103AB000FEF73AFA02463B69D31A022B01D90323D7
:103AC0005AE10D4B5B6A03F00203002BF0D001209A
:103AD00000F0CCFA1CE00A4B00221A60FEF724FA30
:103AE00038610FE0FEF720FA02463B69D31A022B39
:103AF00008D9032340E100BF001002400000424209
:103B0000800442429E4B5B6A03F00203002BE9D122
:103B10007B681B6803F00403002B00F0A6800023E1
:103B2000FB75974BDB6903F08053002B0DD1944B51
:103B3000DB69934A43F08053D361914BDB6903F017
:103B40008053BB60BB680123FB758E4B1B6803F47D
:103B50008073002B18D18B4B1B688A4A43F4807307
:103B60001360FEF7E1F9386108E0FEF7DDF902467F
:103B70003B69D31A642B01D90323FDE0814B1B68F9
:103B800003F48073002BF0D07B68DB68012B06D137
:103B90007B4B1B6A7A4A43F0010313622DE07B687A
:103BA000DB68002B0CD1764B1B6A754A23F00103AE
:103BB0001362734B1B6A724A23F0040313621CE006
:103BC0007B68DB68052B0CD16D4B1B6A6C4A43F09C
:103BD000040313626A4B1B6A694A43F001031362D0
:103BE0000BE0674B1B6A664A23F001031362644BC8
:103BF0001B6A634A23F0040313627B68DB68002BB3
:103C000015D0FEF791F938610AE0FEF78DF902460A
:103C10003B69D31A41F28832934201D90323ABE0C6
:103C2000574B1B6A03F00203002BEED014E0FEF7A3
:103C30007BF938610AE0FEF777F902463B69D31A4F
:103C400041F28832934201D9032395E04C4B1B6A21
:103C500003F00203002BEED1FB7D012B05D1484B75
:103C6000DB69474A23F08053D3617B68DB69002B13
:103C700000F08180424B5B6803F00C03082B61D09D
:103C80007B68DB69022B46D13F4B00221A60FEF7AE
:103C90004BF9386108E0FEF747F902463B69D31A51
:103CA000022B01D9032367E0354B1B6803F0007337
:103CB000002BF0D17B681B6AB3F5803F08D1304BF5
:103CC0005B6823F400327B689B682D4913434B608B
:103CD0002B4B5B6823F474127B68196A7B685B6A00
:103CE0000B43274913434B60274B01221A60FEF711
:103CF0001BF9386108E0FEF717F902463B69D31A51
:103D0000022B01D9032337E01D4B1B6803F000731E
:103D1000002BF0D02FE01C4B00221A60FEF704F9B4
:103D2000386108E0FEF700F902463B69D31A022B1E
:103D300001D9032320E0124B1B6803F00073002B12
:103D4000F0D118E07B68DB69012B01D1012313E07E
:103D50000B4B5B68FB60FB6803F480327B681B6A7B
:103D60009A4206D1FB6803F470127B685B6A9A4240
:103D700001D0012300E0002318461837BD4680BD5E
:103D800000100240007000406000424280B584B0E4
:103D900000AF786039607B68002B01D10123D0E04F
:103DA0006A4B1B6803F007033A689A4210D9674BC5
:103DB0001B6823F0070265493B6813430B60634BA4
:103DC0001B6803F007033A689A4201D00123B8E068
:103DD0007B681B6803F00203002B20D07B681B6804
:103DE00003F00403002B05D0594B5B68584A43F499
:103DF000E06353607B681B6803F00803002B05D069
:103E0000534B5B68524A43F460535360504B5B68BA
:103E100023F0F0027B689B684D4913434B607B683D
:103E20001B6803F00103002B40D07B685B68012B0B
:103E300007D1474B1B6803F40033002B15D1012336
:103E40007FE07B685B68022B07D1414B1B6803F066
:103E50000073002B09D1012373E03D4B1B6803F075
:103E60000203002B01D101236BE0394B5B6823F087
:103E700003027B685B68364913434B60FEF754F8D6
:103E8000F8600AE0FEF750F80246FB68D31A41F2E8
:103E90008832934201D9032353E02D4B5B6803F032
:103EA0000C027B685B689B009A42EBD1274B1B6836
:103EB00003F007033A689A4210D2244B1B6823F0A0
:103EC000070222493B6813430B60204B1B6803F039
:103ED00007033A689A4201D0012332E07B681B68ED
:103EE00003F00403002B08D0194B5B6823F4E06255
:103EF0007B68DB68164913434B607B681B6803F0E3
:103F00000803002B09D0124B5B6823F460527B68D6
:103F10001B69DB000E4913434B6000F021F8024699
:103F20000B4B5B681B0903F00F030A49CB5C22FAB9
:103F300003F3094A1360094B1B681846FDF7B2FFEB
:103F4000002318461037BD4680BD00BF0020024048
:103F50000010024070830008080000200C000020C0
:103F600080B487B000AF0023FB600023BB60002358
:103F70007B6100237B6000233B611E4B5B68FB6021
:103F8000FB6803F00C03042B02D0082B03D027E0BE
:103F9000194B3B6127E0FB689B0C03F00F03174AAA
:103FA000D35C7B60FB6803F48033002B10D0114B93
:103FB0005B685B0C03F00103114AD35CBB607B6858
:103FC0000D4A02FB03F2BB68B2FBF3F37B6104E032
:103FD0007B680C4A02FB03F37B617B693B6102E077
:103FE000054B3B6100BF3B6918461C37BD4680BC92
:103FF000704700BF0010024000127A00888300085A
:104000009883000800093D0080B400AF024B1B6894
:104010001846BD4680BC70470800002080B500AF40
:10402000FFF7F2FF0246054B5B681B0A03F007032C
:104030000349CB5C22FA03F3184680BD001002400E
:104040008083000880B500AFFFF7DEFF0246054B16
:104050005B68DB0A03F007030349CB5C22FA03F336
:10406000184680BD001002408083000880B485B0EF
:1040700000AF78600A4B1B680A4AA2FB03235B0A65
:104080007A6802FB03F3FB6000BFFB685A1EFA600C
:10409000002BF9D100BF00BF1437BD4680BC70476C
:1040A00008000020D34D621080B582B000AF786068
:1040B0007B68002B01D1012341E07B6893F83D3000
:1040C000DBB2002B06D17B68002283F83C207868A5
:1040D000FDF7CCFD7B68022283F83D207B681A68DF
:1040E0007B6804331946104600F0ECFC7B68012223
:1040F00083F846207B68012283F83E207B680122FA
:1041000083F83F207B68012283F840207B680122EE
:1041100083F841207B68012283F842207B680122DA
:1041200083F843207B68012283F844207B680122C6
:1041300083F845207B68012283F83D200023184640
:104140000837BD4680BD000080B485B000AF786000
:104150007B6893F83D30DBB2012B01D001233AE0BC
:104160007B68022283F83D207B681B68DA687B68E5
:104170001B6842F00102DA607B681B68184A9342B0
:104180000ED07B681B68B3F1804F09D07B681B6839
:10419000144A934204D07B681B68134A934211D19E
:1041A0007B681B689B6803F00703FB60FB68062BBA
:1041B00010D07B681B681A687B681B6842F001029C
:1041C0001A6007E07B681B681A687B681B6842F00E
:1041D00001021A60002318461437BD4680BC7047A0
:1041E000002C0140000400400008004080B582B06F
:1041F00000AF78607B68002B01D1012341E07B6830
:1042000093F83D30DBB2002B06D17B68002283F8A7
:104210003C20786800F039F87B68022283F83D2062
:104220007B681A687B6804331946104600F04AFC24
:104230007B68012283F846207B68012283F83E20B8
:104240007B68012283F83F207B68012283F84020AD
:104250007B68012283F841207B68012283F8422099
:104260007B68012283F843207B68012283F8442085
:104270007B68012283F845207B68012283F83D207A
:10428000002318460837BD4680BD80B483B000AF18
:10429000786000BF0C37BD4680BC704780B584B0E5
:1042A00000AF786039603B68002B09D17B6893F8D8
:1042B0003E30DBB2012B14BF01230023DBB222E02E
:1042C0003B68042B09D17B6893F83F30DBB2012BAC
:1042D00014BF01230023DBB215E03B68082B09D192
:1042E0007B6893F84030DBB2012B14BF012300231D
:1042F000DBB208E07B6893F84130DBB2012B14BFDE
:1043000001230023DBB2002B01D001235EE03B68D8
:10431000002B04D17B68022283F83E2013E03B6827
:10432000042B04D17B68022283F83F200BE03B681A
:10433000082B04D17B68022283F8402003E07B68CD
:10434000022283F841207B681B68012239681846E5
:1043500000F038FE7B681B681E4A934207D17B68D9
:104360001B685A6C7B681B6842F400425A647B6885
:104370001B68184A93420ED07B681B68B3F1804FCC
:1043800009D07B681B68144A934204D07B681B6881
:10439000124A934211D17B681B689B6803F00703A4
:1043A000FB60FB68062B10D07B681B681A687B6873
:1043B0001B6842F001021A6007E07B681B681A68FC
:1043C0007B681B6842F001021A6000231846103710
:1043D000BD4680BD002C01400004004000080040A4
:1043E00080B584B000AF786039600023FB733B6810
:1043F0000C2B55D801A252F823F000BF314400081D
:10440000A1440008A1440008A14400084D4400084C
:10441000A1440008A1440008A14400086944000820
:10442000A1440008A1440008A144000885440008F4
:104430007B681B68DA687B681B6822F40072DA60AC
:104440007B685B6A1846FDF7ABFE2CE07B681B6857
:10445000DA687B681B6822F48062DA607B689B6A9A
:104460001846FDF79DFE1EE07B681B68DA687B68D6
:104470001B6822F40062DA607B68DB6A1846FDF78D
:104480008FFE10E07B681B68DA687B681B6822F48B
:104490008052DA607B681B6B1846FDF781FE02E0F4
:1044A0000123FB7300BFFB7B002B57D17B681B688C
:1044B00000223968184600F085FD7B681B682A4A8F
:1044C000934217D17B681B681A6A41F2111313409B
:1044D000002B0FD17B681B681A6A40F244431340DB
:1044E000002B07D17B681B685A6C7B681B6822F421
:1044F00000425A647B681B681A6A41F21113134028
:10450000002B0FD17B681B681A6A40F244431340AA
:10451000002B07D17B681B681A687B681B6822F038
:1045200001021A603B68002B04D17B68012283F8EA
:104530003E2013E03B68042B04D17B68012283F802
:104540003F200BE03B68082B04D17B68012283F8F5
:10455000402003E07B68012283F84120FB7B184662
:104560001037BD4680BD00BF002C014080B582B031
:1045700000AF78607B681B681B6903F00203022BA5
:1045800022D17B681B68DB6803F00203022B1BD17E
:104590007B681B686FF002021A617B6801221A7740
:1045A0007B681B689B6903F00303002B03D07868CA
:1045B00000F076FA05E0786800F069FA7868FCF7B0
:1045C00027FD7B6800221A777B681B681B6903F054
:1045D0000403042B22D17B681B68DB6803F004030F
:1045E000042B1BD17B681B686FF004021A617B6887
:1045F00002221A777B681B689B6903F44073002BC7
:1046000003D0786800F04CFA05E0786800F03FFAD3
:104610007868FCF7FDFC7B6800221A777B681B68D2
:104620001B6903F00803082B22D17B681B68DB6839
:1046300003F00803082B1BD17B681B686FF008028E
:104640001A617B6804221A777B681B68DB6903F0B8
:104650000303002B03D0786800F022FA05E07868A5
:1046600000F015FA7868FCF7D3FC7B6800221A7713
:104670007B681B681B6903F01003102B22D17B6839
:104680001B68DB6803F01003102B1BD17B681B68D1
:104690006FF010021A617B6808221A777B681B682A
:1046A000DB6903F44073002B03D0786800F0F8F95D
:1046B00005E0786800F0EBF97868FCF7A9FC7B6806
:1046C00000221A777B681B681B6903F00103012B2A
:1046D0000ED17B681B68DB6803F00103012B07D157
:1046E0007B681B686FF001021A617868FDF73DF87E
:1046F0007B681B681B6903F08003802B0ED17B68ED
:104700001B68DB6803F08003802B07D17B681B6884
:104710006FF080021A61786800F030FD7B681B68DA
:104720001B6903F04003402B0ED17B681B68DB68DC
:1047300003F04003402B07D17B681B686FF04002F9
:104740001A61786800F0B5F97B681B681B6903F093
:104750002003202B0ED17B681B68DB6803F020034D
:10476000202B07D17B681B686FF020021A617868E4
:1047700000F0FBFC00BF0837BD4680BD80B586B0A9
:1047800000AFF860B9607A600023FB75FB6893F8AE
:104790003C30012B01D10223AEE0FB68012283F8FB
:1047A0003C207B680C2B00F29F8001A252F823F082
:1047B000E5470008E9480008E9480008E94800081A
:1047C00025480008E9480008E9480008E9480008C9
:1047D00067480008E9480008E9480008E948000877
:1047E000A7480008FB681B68B968184600F0CCF9B8
:1047F000FB681B689A69FB681B6842F008029A61B3
:10480000FB681B689A69FB681B6822F004029A61C6
:10481000FB681B689969BB681A69FB681B680A43D7
:104820009A6164E0FB681B68B968184600F012FAE8
:10483000FB681B689A69FB681B6842F400629A6116
:10484000FB681B689A69FB681B6822F480629A61A6
:10485000FB681B689969BB681B691A02FB681B68C7
:104860000A439A6143E0FB681B68B968184600F088
:104870005BFAFB681B68DA69FB681B6842F0080298
:10488000DA61FB681B68DA69FB681B6822F00402C6
:10489000DA61FB681B68D969BB681A69FB681B6829
:1048A0000A43DA6123E0FB681B68B968184600F028
:1048B000A5FAFB681B68DA69FB681B6842F40062B2
:1048C000DA61FB681B68DA69FB681B6822F48062A6
:1048D000DA61FB681B68D969BB681B691A02FB684F
:1048E0001B680A43DA6102E00123FB7500BFFB6825
:1048F000002283F83C20FB7D18461837BD4680BD5A
:1049000080B584B000AF786039600023FB737B68AA
:1049100093F83C30012B01D10223B4E07B680122E3
:1049200083F83C207B68022283F83D207B681B686B
:104930009B68BB60BB6823F07703BB60BB6823F454
:104940007F43BB607B681B68BA689A603B681B68E2
:10495000B3F5005F3ED0B3F5005F00F28780B3F59A
:10496000805F00F08680B3F5805F7FD8702B1AD00F
:10497000702B7BD8602B50D0602B77D8502B3CD03D
:10498000502B73D8402B58D0402B6FD8302B64D08D
:10499000302B6BD8202B60D0202B67D8002B5CD01D
:1049A000102B5AD062E07B6818683B6899683B68B6
:1049B0005A683B68DB6800F0E6FA7B681B689B6816
:1049C000BB60BB6843F07703BB607B681B68BA6859
:1049D0009A604FE07B6818683B6899683B685A6842
:1049E0003B68DB6800F0CFFA7B681B689A687B68DD
:1049F0001B6842F480429A603CE07B6818683B6820
:104A000059683B68DB681A4600F046FA7B681B6809
:104A10005021184600F09DFA2CE07B6818683B682E
:104A200059683B68DB681A4600F064FA7B681B68CB
:104A30006021184600F08DFA1CE07B6818683B681E
:104A400059683B68DB681A4600F026FA7B681B68E9
:104A50004021184600F07DFA0CE07B681A683B683C
:104A60001B681946104600F074FA03E00123FB733B
:104A700000E000BF7B68012283F83D207B680022B4
:104A800083F83C20FB7B18461037BD4680BD80B4C0
:104A900083B000AF786000BF0C37BD4680BC704764
:104AA00080B483B000AF786000BF0C37BD4680BCD7
:104AB000704780B483B000AF786000BF0C37BD464C
:104AC00080BC704780B485B000AF786039607B6887
:104AD0001B68FB607B68294A93420BD07B68B3F16B
:104AE000804F07D07B68264A934203D07B68254AD3
:104AF000934208D1FB6823F07003FB603B685B685E
:104B0000FA681343FB607B681C4A93420BD07B68B6
:104B1000B3F1804F07D07B68194A934203D07B687A
:104B2000184A934208D1FB6823F44073FB603B684A
:104B3000DB68FA681343FB60FB6823F080023B6884
:104B40005B691343FB607B68FA681A603B689A688C
:104B50007B68DA623B681A687B689A627B68074AFE
:104B6000934203D13B681A697B681A637B68012210
:104B70005A6100BF1437BD4680BC7047002C01400D
:104B8000000400400008004080B487B000AF7860A7
:104B900039607B681B6A7B617B681B6A23F00102BA
:104BA0007B681A627B685B683B617B689B69FB6022
:104BB000FB6823F07003FB60FB6823F00303FB60DA
:104BC0003B681B68FA681343FB607B6923F00203B0
:104BD0007B613B689B687A6913437B617B681C4AF5
:104BE00093420CD17B6923F008037B613B68DB684F
:104BF0007A6913437B617B6923F004037B617B68E3
:104C0000134A934211D13B6923F480733B613B69A2
:104C100023F400733B613B685B693A6913433B6172
:104C20003B689B693A6913433B617B683A695A6008
:104C30007B68FA689A613B685A687B685A637B684C
:104C40007A691A6200BF1C37BD4680BC704700BF3E
:104C5000002C014080B487B000AF786039607B6879
:104C60001B6A7B617B681B6A23F010027B681A62F7
:104C70007B685B683B617B689B69FB60FB6823F436
:104C8000E043FB60FB6823F44073FB603B681B68F8
:104C90001B02FA681343FB607B6923F020037B61EE
:104CA0003B689B681B017A6913437B617B681D4AE3
:104CB00093420DD17B6923F080037B613B68DB6805
:104CC0001B017A6913437B617B6923F040037B619D
:104CD0007B68144A934213D13B6923F480633B61A0
:104CE0003B6923F400633B613B685B699B003A6965
:104CF00013433B613B689B699B003A6913433B61EB
:104D00007B683A695A607B68FA689A613B685A68BE
:104D10007B689A637B687A691A6200BF1C37BD465C
:104D200080BC7047002C014080B487B000AF786031
:104D300039607B681B6A7B617B681B6A23F4807225
:104D40007B681A627B685B683B617B68DB69FB6040
:104D5000FB6823F07003FB60FB6823F00303FB6038
:104D60003B681B68FA681343FB607B6923F400739C
:104D70007B613B689B681B027A6913437B617B689C
:104D80001D4A93420DD17B6923F400637B613B682C
:104D9000DB681B027A6913437B617B6923F48063C0
:104DA0007B617B68144A934213D13B6923F480539F
:104DB0003B613B6923F400533B613B685B691B012A
:104DC0003A6913433B613B689B691B013A69134392
:104DD0003B617B683A695A607B68FA68DA613B68D4
:104DE0005A687B68DA637B687A691A6200BF1C378D
:104DF000BD4680BC704700BF002C014080B487B026
:104E000000AF786039607B681B6A3B617B681B6A16
:104E100023F480527B681A627B685B687B617B68E5
:104E2000DB69FB60FB6823F4E043FB60FB6823F471
:104E30004073FB603B681B681B02FA681343FB600E
:104E40003B6923F400533B613B689B681B033A6951
:104E500013433B617B680F4A934209D17B6923F47A
:104E600080437B613B685B699B017A6913437B618B
:104E70007B687A695A607B68FA68DA613B685A68CD
:104E80007B681A647B683A691A6200BF1C37BD46AA
:104E900080BC7047002C014080B487B000AFF86040
:104EA000B9607A60FB681B6A7B61FB681B6A23F050
:104EB0000102FB681A62FB689B693B613B6923F056
:104EC000F0033B617B681B013A6913433B617B69DB
:104ED00023F00A037B617A69BB6813437B61FB683B
:104EE0003A699A61FB687A691A6200BF1C37BD464D
:104EF00080BC704780B487B000AFF860B9607A605A
:104F0000FB681B6A7B61FB681B6A23F01002FB686D
:104F10001A62FB689B693B613B6923F470433B6108
:104F20007B681B033A6913433B617B6923F0A00351
:104F30007B61BB681B017A6913437B61FB683A693B
:104F40009A61FB687A691A6200BF1C37BD4680BC53
:104F5000704780B485B000AF786039607B689B682B
:104F6000FB60FB6823F07003FB603A68FB68134347
:104F700043F00703FB607B68FA689A6000BF143750
:104F8000BD4680BC704780B487B000AFF860B960A0
:104F90007A603B60FB689B687B617B6923F47F439D
:104FA0007B613B681A027B681A43BB6813437A69CA
:104FB00013437B61FB687A699A6000BF1C37BD466A
:104FC00080BC704780B487B000AFF860B9607A6089
:104FD000BB6803F01F03012202FA03F37B61FB6845
:104FE0001A6A7B69DB431A40FB681A62FB681A6A1B
:104FF000BB6803F01F03796801FA03F31A43FB68E7
:105000001A6200BF1C37BD4680BC704780B485B0B3
:1050100000AF786039607B6893F83C30012B01D198
:10502000022346E07B68012283F83C207B68022251
:1050300083F83D207B681B685B68FB607B681B68AE
:105040009B68BB60FB6823F07003FB603B681B68D8
:10505000FA681343FB607B681B68FA685A607B68D8
:105060001B68164A93420ED07B681B68B3F1804FD1
:1050700009D07B681B68124A934204D07B681B6886
:10508000104A93420CD1BB6823F08003BB603B689D
:105090005B68BA681343BB607B681B68BA689A6038
:1050A0007B68012283F83D207B68002283F83C2046
:1050B000002318461437BD4680BC7047002C0140C1
:1050C000000400400008004080B485B000AF786064
:1050D00039600023FB607B6893F83C30012B01D1E1
:1050E00002233DE07B68012283F83C20FB6823F02B
:1050F000FF023B68DB681343FB60FB6823F44072EC
:105100003B689B681343FB60FB6823F480623B6849
:105110005B681343FB60FB6823F400623B681B6819
:105120001343FB60FB6823F480523B681B69134305
:10513000FB60FB6823F400523B685B691343FB6030
:10514000FB6823F480423B68DB691343FB607B68A8
:105150001B68FA685A647B68002283F83C200023AD
:1051600018461437BD4680BC704780B483B000AF8A
:10517000786000BF0C37BD4680BC704780B483B0F8
:1051800000AF786000BF0C37BD4680BC704780B56B
:1051900082B000AF78607B68002B01D1012342E030
:1051A0007B6893F84130DBB2002B06D17B6800228C
:1051B00083F840207868FCF7EFFD7B68242283F8B1
:1051C00041207B681B68DA687B681B6822F4005208
:1051D000DA60786800F01CF97B681B681A697B68E4
:1051E0001B6822F490421A617B681B685A697B68CD
:1051F0001B6822F02A025A617B681B68DA687B68A8
:105200001B6842F40052DA607B6800225A647B68B3
:10521000202283F841207B68202283F842207B688B
:1052200000225A63002318460837BD4680BD80B56A
:105230008AB002AFF860B9603B601346FB80002380
:105240007B61FB6893F84130DBB2202B6DD1BB68EA
:10525000002B02D0FB88002B01D1012366E0FB6804
:1052600000225A64FB68212283F84120FCF75CFE8F
:105270007861FB68FA889A84FB68FA88DA84FB68AC
:105280009B68B3F5805F08D1FB681B69002B04D1D4
:105290000023FB61BB68BB6103E0BB68FB610023CB
:1052A000BB612AE03B6800937B6900228021F8689B
:1052B00000F040F80346002B01D0032336E0FB69E1
:1052C000002B0BD1BB691B881A46FB681B68C2F315
:1052D00008025A60BB690233BB6107E0FB691A78B8
:1052E000FB681B685A60FB690133FB61FB68DB8C60
:1052F0009BB2013B9AB2FB68DA84FB68DB8C9BB201
:10530000002BCFD13B6800937B6900224021F868D5
:1053100000F010F80346002B01D0032306E0FB68E1
:10532000202283F84120002300E002231846203782
:10533000BD4680BD80B590B000AFF860B9603B60FD
:105340001346FB7150E0BB6CB3F1FF3F4CD0BB6C1C
:10535000002B07D0FCF7E8FD02463B68D31ABA6C75
:105360009A4241D2FB681B680C33BB62BB6A53E8AC
:10537000003F7B627B6A23F4D073FB63FB681B688E
:105380000C33FA6B7A633B63396B7A6B41E8002329
:10539000FB62FB6A002BE5D1FB681B6814337B6161
:1053A0007B6953E8003F3B613B6923F00103BB632A
:1053B000FB681B681433BA6B3A62FB61F9693A6A9D
:1053C00041E80023BB61BB69002BE5D1FB682022CB
:1053D00083F84120FB68202283F84220FB680022EA
:1053E00083F8402003230FE0FB681B681A68BB6842
:1053F0001340BA689A420CBF01230023DBB21A465D
:10540000FB799A429FD0002318464037BD4680BDA5
:1054100080B584B000AF78607B681B681B6923F49B
:1054200040517B68DA687B681B680A431A617B68B5
:105430009A687B681B691A437B685B691343BB608E
:105440007B681B68DB6823F4B05323F00C037A6895
:105450001268B9680B43D3607B681B685B6923F4EF
:1054600040717B689A697B681B680A435A617B6854
:105470001B682C4A934203D1FEF7E4FDF86002E07A
:10548000FEF7CCFDF860FA6813469B0013449A00BF
:105490001A447B685B689B00B2FBF3F3224AA2FBD1
:1054A00003235B091901FA6813469B0013449A0011
:1054B0001A447B685B689B00B2FBF3F21A4BA3FBB8
:1054C00002035B09642000FB03F3D31A1B01323390
:1054D000154AA2FB03235B0903F0F0031944FA68A1
:1054E00013469B0013449A001A447B685B689B0038
:1054F000B2FBF3F20C4BA3FB02035B09642000FB3D
:1055000003F3D31A1B013233074AA2FB03235B09BF
:1055100003F00F027B681B680A449A6000BF1037D3
:10552000BD4680BD003801401F85EB51014B186816
:10553000704700BF1400002070B500260C4D0D4CC4
:10554000641BA410A64209D102F0BCFE00260A4D3D
:105550000A4C641BA410A64205D170BD55F8043B4B
:1055600098470136EEE755F8043B98470136F2E7D5
:105570007C8700087C8700087C87000880870008FB
:1055800003460244934200D1704703F8011BF9E738
:10559000002B2DE9F0471F46BBBF03F100431F4618
:1055A00000232D2388B01446129A109D1370149B6B
:1055B000DDF84CA023F02008B8F1460F05D0B8F173
:1055C000450F00D10135022300E0032307AA04920E
:1055D00006AACDE902A2CDE9003522463B4600F0FD
:1055E000E7FCB8F1470F064602D1119BDB0722D535
:1055F000B8F1460F06EB050910D13378302B0AD1EC
:105600000022002320463946FBF7CEF918B9C5F130
:105610000105CAF80050DAF800309944002200234E
:1056200020463946FBF7C0F908B1CDF81C9030226E
:10563000079B4B4507D33046079B159A9B1B13606E
:1056400008B0BDE8F087591C07911A70F0E70346CF
:10565000F7B5002903F8022BB6BF2D222B224942B1
:10566000092942702BDD0DF10704A4460A2791FB9E
:10567000F7F60A46A64607FB1615632A05F130051C
:10568000314604F1FF340EF8015CF0DC3031AEF14C
:10569000020504F8011C2946441C61450AD30DF19A
:1056A0000902A2EB0E02654588BF00221344181AB6
:1056B00003B0F0BD11F8012B04F8012FEDE7302302
:1056C00030318370C170031DF1E700002DE9F04F08
:1056D00091B00C46DDF8688016461F46054601F07D
:1056E00055FA036818460993FAF732FD00230E9322
:1056F000D8F800300A90073323F0070303F10802BB
:1057000094F81890D4F800B0C8F80020D3E900232A
:10571000C4E91223D4E9128A2AF000430B934FF014
:10572000FF3240469C4B0B99FBF770F970BB4FF072
:10573000FF324046984B0B99FBF74AF930BB0022E9
:10574000002340465146FBF739F910B12D2384F868
:105750004330924B9248B9F1470F94BF9846804628
:1057600003234FF0000A23612BF004032360334628
:105770002146284600970FAA00F0D4F9013040F0E6
:1057800090804FF0FF3011B0BDE8F08F4246534695
:1057900040465146FBF73AF948B1BAF1000FB8BF9D
:1057A0002D238048B8BF84F843307F4BD3E763682C
:1057B00009F0DF015A1C42D10623636000220692E1
:1057C0000EAACDE904920DAA4BF4806303920DF169
:1057D0003302CDE9013223606368424600932846D4
:1057E00053460B91FFF7D4FE0B99804647290D993C
:1057F00008D1C81C02DB6368994240DDA9F10209A7
:105800005FFA89F9B9F1650F1FD84A46013904F1E9
:1058100050000D91FFF71BFF0E9A82461318012AC4
:10582000236102DC2268D20701D5013323619DF890
:105830003330002B9BD02D2384F8433097E7472942
:10584000BCD1002BBAD10123B7E7B9F1660F18D14B
:10585000002963680BDD216113B92268D00702D5E6
:1058600001330B4423614FF0000AA165DFE713B950
:105870002268D20701D50233F4E70123F2E74FF0A3
:1058800067090E9B994205DB23682161D807EAD599
:105890004B1CE7E70029CCBF0122C1F102021344EF
:1058A000E0E723685A0507D4236942463146284673
:1058B000B84701302BD164E7B9F1650F40F2DD80C4
:1058C000D4E9120100220023FBF76EF8002833D040
:1058D000012331462846354AB84701303FF451AFDD
:1058E000DDE90D239A4202DB2368D8070FD5DDE9F5
:1058F000092331462846B84701303FF442AF4FF004
:10590000000804F11A090E9B013B434509DC23689A
:105910009B0700F10281E0680F9B9842B8BF1846D0
:1059200031E701234A4631462846B84701303FF463
:1059300028AF08F10108E6E70D9B002B38DC0123B6
:1059400031462846194AB84701303FF41AAFDDE91D
:105950000D23134302D12368D907D8D5DDE90923E4
:1059600031462846B84701303FF40BAF4FF00009ED
:1059700004F11A0A0D9B5B424B4501DC0E9B94E738
:105980000123524631462846B84701303FF4F9AE6C
:1059900009F10109EEE700BFFFFFEF7FA0830008D8
:1059A000A4830008AC830008A8830008B083000823
:1059B0000E9AA36D9A42A8BF1A46002A914637DC78
:1059C0004FF0000B29EAE97904F11A02D4F858A043
:1059D000AAEB09035B4533DCDDE90D239A423BDB8F
:1059E0002368DA0738D40E9A0D99A2EB0A03A2EBCA
:1059F00001099945A8BF9946B9F1000F34DC4FF071
:105A0000000829EAE97904F11A0ADDE90D239B1A55
:105A1000A3EB090343457FF77AAF01235246314692
:105A20002846B84701303FF4ACAE08F10108ECE776
:105A30001346314642462846B8470130C0D1A0E659
:105A40000123314628460B92B84701303FF499AE06
:105A50000B9A0BF1010BB9E73146DDE90923284622
:105A6000B8470130BFD18CE64B463146284608EB9B
:105A70000A02B8470130C2D183E60E9A012A01DC3E
:105A8000DB0737D50123424631462846B847013067
:105A90003FF477AEDDE9092331462846B8470130A7
:105AA0003FF46FAED4E9120100220023FAF77CFF25
:105AB000D8B90E9B08F10102013B31462846B84790
:105AC00001300ED15DE601234A4631462846B847EB
:105AD00001303FF456AE08F101080E9B013B4345EF
