:020000040800F2
:1000000000500020C91B0008951600089B16000828
:10001000A1160008A7160008AD1600080000000091
:10002000000000000000000000000000B3160008FF
:10003000BF16000800000000CB160008D716000805
:10004000111C0008111C0008111C0008111C0008DC
:10005000111C0008111C0008111C0008111C0008CC
:10006000111C0008111C0008111C0008111C0008BC
:10007000111C0008E5160008111C0008111C0008DE
:10008000111C0008111C0008F9160008111C0008BA
:10009000111C0008111C0008111C0008111C00088C
:1000A000111C0008111C0008111C0008111C00087C
:1000B0000D170008111C0008111C0008111C000875
:1000C000111C0008111C0008111C0008111C00085C
:1000D000111C0008111C0008111C0008111C00084C
:1000E000111C0008111C0008111C00080000000071
:1000F0000000000000000000000000000000000000
:0C01000000000000000000005FF808F1A3
:1001100010B5054C237833B9044B13B10448AFF341
:1001200000800123237010BDE001002000000000CA
:10013000EC78000808B5034B1BB103490348AFF343
:10014000008008BD00000000E4010020EC780008F9
:10015000034613F8012B002AFBD1181A0138704707
:1001600081F0004102E000BF83F0004330B54FEA68
:1001700041044FEA430594EA050F08BF90EA020FD5
:100180001FBF54EA000C55EA020C7FEA645C7FEA68
:10019000655C00F0E2804FEA5454D4EB5555B8BF8B
:1001A0006D420CDD2C4480EA020281EA030382EAFC
:1001B000000083EA010180EA020281EA0303362D8E
:1001C00088BF30BD11F0004F4FEA01314FF4801C61
:1001D0004CEA113102D0404261EB410113F0004F73
:1001E0004FEA03334CEA133302D0524263EB43032A
:1001F00094EA050F00F0A780A4F10104D5F1200EC8
:100200000DDB02FA0EFC22FA05F2801841F1000122
:1002100003FA0EF2801843FA05F359410EE0A5F1F6
:1002200020050EF1200E012A03FA0EFC28BF4CF027
:10023000020C43FA05F3C01851EBE37101F00045DD
:1002400007D54FF0000EDCF1000C7EEB00006EEBEA
:100250000101B1F5801F1BD3B1F5001F0CD3490874
:100260005FEA30004FEA3C0C04F101044FEA4452CB
:1002700012F5800F80F09A80BCF1004F08BF5FEA52
:10028000500C50F1000041EB045141EA050130BD32
:100290005FEA4C0C404141EB0101013C28BFB1F544
:1002A000801FE9D291F0000F04BF01460020B1FA8F
:1002B00081F308BF2033A3F10B03B3F120020CDA62
:1002C0000C3208DD02F1140CC2F10C0201FA0CF040
:1002D00021FA02F10CE002F11402D8BFC2F1200CA5
:1002E00001FA02F120FA0CFCDCBF41EA0C0190405B
:1002F000E41AA2BF01EB0451294330BD6FEA0404A4
:100300001F3C1CDA0C340EDC04F11404C4F120028E
:1003100020FA04F001FA02F340EA030021FA04F3A0
:1003200045EA030130BDC4F10C04C4F1200220FAF7
:1003300002F001FA04F340EA0300294630BD21FA35
:1003400004F0294630BD94F0000F83F4801306BFFB
:1003500081F480110134013D4EE77FEA645C18BFEF
:100360007FEA655C29D094EA050F08BF90EA020F86
:1003700005D054EA000C04BF1946104630BD91EA7E
:10038000030F1EBF0021002030BD5FEA545C05D181
:100390004000494128BF41F0004130BD14F58004C0
:1003A0003CBF01F5801130BD01F0004545F0FE4134
:1003B00041F470014FF0000030BD7FEA645C1ABF69
:1003C000194610467FEA655C1CBF0B46024650EAA0
:1003D000013406BF52EA033591EA030F41F40021CC
:1003E00030BD00BF90F0000F04BF0021704730B552
:1003F0004FF4806404F132044FF000054FF0000127
:1004000050E700BF90F0000F04BF0021704730B5E7
:100410004FF4806404F1320410F0004548BF4042BC
:100420004FF000013EE700BF42004FEAE2014FEA11
:1004300031014FEA02701FBF12F07F4393F07F4FEC
:1004400081F06051704732F07F4208BF704793F0EF
:100450007F4F04BF41F40021704730B54FF4607402
:1004600001F0004521F000411CE700BF50EA010205
:1004700008BF704730B54FF000050AE050EA0102AE
:1004800008BF704730B511F0004502D5404261EB1E
:1004900041014FF4806404F132045FEA915C3FF45F
:1004A000D8AE4FF003025FEADC0C18BF03325FEAFC
:1004B000DC0C18BF033202EBDC02C2F1200300FAAD
:1004C00003FC20FA02F001FA03FE40EA0E0021FAD2
:1004D00002F11444BDE600BF70B54FF0FF0C4CF4C0
:1004E000E06C1CEA11541DBF1CEA135594EA0C0F72
:1004F00095EA0C0F00F0DEF82C4481EA030621EAAD
:100500004C5123EA4C5350EA013518BF52EA0335E7
:1005100041F4801143F4801338D0A0FB02CE4FF099
:100520000005E1FB02E506F00042E0FB03E54FF0C9
:100530000006E1FB03569CF0000F18BF4EF0010EC1
:10054000A4F1FF04B6F5007F64F5407404D25FEABD
:100550004E0E6D4146EB060642EAC62141EA555170
:100560004FEAC52040EA5E504FEACE2EB4F1FD0CB2
:1005700088BFBCF5E06F1ED8BEF1004F08BF5FEA30
:10058000500E50F1000041EB045170BD06F00046E2
:1005900046EA010140EA020081EA0301B4EB5C048F
:1005A000C2BFD4EB0C0541EA045170BD41F4801187
:1005B0004FF0000E013C00F3AB8014F1360FDEBFAC
:1005C000002001F0004170BDC4F10004203C35DA88
:1005D0000C341BDC04F11404C4F1200500FA05F30B
:1005E00020FA04F001FA05F240EA020001F00042AC
:1005F00021F0004110EBD37021FA04F642EB060122
:100600005EEA430E08BF20EAD37070BDC4F10C044B
:10061000C4F1200500FA04F320FA05F001FA04F20F
:1006200040EA020001F0004110EBD37041F10001FB
:100630005EEA430E08BF20EAD37070BDC4F1200506
:1006400000FA05F24EEA020E20FA04F301FA05F26E
:1006500043EA020321FA04F001F0004121FA04F216
:1006600020EA020000EBD3705EEA430E08BF20EAE6
:10067000D37070BD94F0000F0FD101F00046400020
:1006800041EB010111F4801F08BF013CF7D041EAA2
:10069000060195F0000F18BF704703F000465200A6
:1006A00043EB030313F4801F08BF013DF7D043EA77
:1006B0000603704794EA0C0F0CEA135518BF95EA2D
:1006C0000C0F0CD050EA410618BF52EA4306D1D1B4
:1006D00081EA030101F000414FF0000070BD50EAD3
:1006E000410606BF1046194652EA430619D094EA5D
:1006F0000C0F02D150EA013613D195EA0C0F05D147
:1007000052EA03361CBF104619460AD181EA03019A
:1007100001F0004141F0FE4141F470014FF0000052
:1007200070BD41F0FE4141F4780170BD70B54FF0ED
:10073000FF0C4CF4E06C1CEA11541DBF1CEA13556D
:1007400094EA0C0F95EA0C0F00F0A7F8A4EB05044F
:1007500081EA030E52EA03354FEA013100F0888046
:100760004FEA03334FF0805545EA131343EA12630F
:100770004FEA022245EA111545EA10654FEA0026C4
:100780000EF000419D4208BF964244F1FD0404F57D
:10079000407402D25B084FEA3202B61A65EB0305D9
:1007A0005B084FEA32024FF480104FF4002CB6EB96
:1007B000020E75EB030E22BFB61A754640EA0C0016
:1007C0005B084FEA3202B6EB020E75EB030E22BF56
:1007D000B61A754640EA5C005B084FEA3202B6EB97
:1007E000020E75EB030E22BFB61A754640EA9C0056
:1007F0005B084FEA3202B6EB020E75EB030E22BF26
:10080000B61A754640EADC0055EA060E18D04FEAE3
:10081000051545EA16754FEA06164FEAC30343EA83
:1008200052734FEAC2025FEA1C1CC0D111F4801F50
:100830000BD141EA00014FF000004FF0004CB6E749
:1008400011F4801F04BF01430020B4F1FD0C88BFE8
:10085000BCF5E06F3FF6AFAEB5EB030C04BFB6EBF3
:10086000020C5FEA500C50F1000041EB045170BDE6
:100870000EF0004E4EEA113114EB5C04C2BFD4EB13
:100880000C0541EA045170BD41F480114FF0000E97
:10089000013C90E645EA060E8DE60CEA135594EA13
:1008A0000C0F08BF95EA0C0F3FF43BAF94EA0C0F16
:1008B0000AD150EA01347FF434AF95EA0C0F7FF48B
:1008C00025AF104619462CE795EA0C0F06D152EADF
:1008D00003353FF4FDAE1046194622E750EA4106C3
:1008E00018BF52EA43067FF4C5AE50EA41047FF4D4
:1008F0000DAF52EA43057FF4EBAE12E74FF0FF3C39
:1009000006E000BF4FF0010C02E000BF4FF0010C09
:100910004DF804CD4FEA410C7FEA6C5C4FEA430C82
:1009200018BF7FEA6C5C1BD001B050EA410C0CBFD1
:1009300052EA430C91EA030F02BF90EA020F002033
:10094000704710F1000F91EA030F58BF994208BF9A
:1009500090422CBFD8176FEAE37040F00100704757
:100960004FEA410C7FEA6C5C02D150EA013C07D1AE
:100970004FEA430C7FEA6C5CD6D152EA033CD3D0F9
:100980005DF8040B704700BF8446104662468C46F3
:100990001946634600E000BF01B5FFF7B7FF002826
:1009A00048BF10F1000F01BD4DF808EDFFF7F4FF4F
:1009B0000CBF012000205DF808FB00BF4DF808EDDA
:1009C000FFF7EAFF34BF012000205DF808FB00BFFD
:1009D0004DF808EDFFF7E0FF94BF012000205DF81F
:1009E00008FB00BF4DF808EDFFF7CEFF94BF0120D4
:1009F00000205DF808FB00BF4DF808EDFFF7C4FFCD
:100A000034BF012000205DF808FB00BF4FEA410C15
:100A10007FEA6C5C02D150EA013C0AD14FEA430CF8
:100A20007FEA6C5C02D152EA033C02D14FF0000035
:100A300070474FF0010070474FEA410212F5001273
:100A400015D211D56FF47873B3EB625212D94FEA15
:100A5000C12343F0004343EA505311F0004F23FAFF
:100A600002F018BF404270474FF00000704750EA54
:100A7000013005D111F0004008BF6FF00040704711
:100A80004FF00000704700BF80B584B000AF3B1D41
:100A900000221A605A609A60184B194A1A60174B64
:100AA00000229A60154B01221A73144B00221A750A
:100AB000124B4FF46022DA61104B00225A600F4B48
:100AC00001221A610D4801F02BF90346002B01D0D9
:100AD00000F034FA00237B600123BB600023FB603D
:100AE0003B1D1946054801F0C5FA0346002B01D00D
:100AF00000F024FA00BF1037BD4680BDEC02002094
:100B00000024014080B588B000AF786007F1100381
:100B100000221A605A609A60DA607B681B68184A83
:100B2000934229D1174B9B69164A43F40073936192
:100B3000144B9B6903F40073FB60FB68114B9B69CA
:100B4000104A43F0040393610E4B9B6903F00403C6
:100B5000BB60BB6801233B6103237B6107F110038A
:100B60001946094801F03CFF00220021122001F043
:100B70009AFC122001F0B3FC00BF2037BD4680BDB7
:100B800000240140001002400008014080B582B0FE
:100B900000AF0C4B5B690B4A43F001035361094BF7
:100BA0005B6903F001037B607B68002200210D205C
:100BB00001F079FC0D2001F092FC00BF0837BD4622
:100BC00080BD00BF0010024080B588B000AF07F1C3
:100BD000100300221A605A609A60DA60234B9B6906
:100BE000224A43F020039361204B9B6903F02003CA
:100BF000FB60FB681D4B9B691C4A43F00403936137
:100C00001A4B9B6903F00403BB60BB68174B9B69DD
:100C1000164A43F008039361144B9B6903F00803E1
:100C20007B607B6800222021114802F05DF82023C0
:100C30003B6101237B610023BB610223FB6107F160
:100C4000100319460A4801F0CBFE07233B6100233D
:100C50007B610123BB6107F110031946054801F0D0
:100C6000BFFE00BF2037BD4680BD00BF0010024060
:100C700000080140000C014080B500AF124B134A40
:100C80001A60114B124A5A600F4B00229A600E4BA9
:100C90000022DA600C4B4FF480421A610A4B0022AA
:100CA0005A61094B00229A61074B0022DA61064B18
:100CB00000221A62044802F02FF80346002B01D0EC
:100CC00000F03CF900BF80BD1C0300200054004030
:100CD000A086010080B500AF124B134A1A60114B79
:100CE000124A5A600F4B00229A600E4B0022DA60C3
:100CF0000C4B4FF480421A610A4B00225A61094B97
:100D000000229A61074B0022DA61064B00221A6228
:100D1000044802F001F80346002B01D000F00EF960
:100D200000BF80BD7003002000580040A086010075
:100D300080B58CB000AF786007F11C0300221A6008
:100D40005A609A60DA607B681B68324A934233D1FA
:100D5000314B9B69304A43F0080393612E4B9B69EA
:100D600003F00803BB61BB694FF44073FB611223BE
:100D70003B620323BB6207F11C031946274801F0BD
:100D80002FFE274B5B68FB62FB6A43F0E063FB626C
:100D9000FB6A43F00203FB62214AFB6A53601E4B6D
:100DA000DB691D4A43F40013D3611B4BDB6903F479
:100DB00000137B617B6929E07B681B68194A9342B9
:100DC00024D1154B9B69144A43F008039361124BDD
:100DD0009B6903F008033B613B694FF44063FB618F
:100DE00012233B620323BB6207F11C0319460B4825
:100DF00001F0F6FD084BDB69074A43F48003D36139
:100E0000054BDB6903F48003FB60FB6800BF3037F0
:100E1000BD4680BD0054004000100240000C01405F
:100E2000000001400058004080B500AF00F0F2FE25
:100E300000F020F8FFF7C8FE00F0E4FDFFF71CFF0C
:100E4000FFF748FF00F032FDFFF7A0FEFFF71CFEA2
:100E5000064802F0A5FD064802F0A2FD0421044860
:100E600002F048FE00F076FAFCE700BFA002002086
:100E70005802002080B594B000AF07F12803282263
:100E80000021184604F056F807F1140300221A60F6
:100E90005A609A60DA601A613B1D00221A605A603B
:100EA0009A60DA600123BB624FF48033FB62002357
:100EB0003B630123BB6302237B644FF48033BB6439
:100EC0004FF48013FB6407F12803184602F068F81A
:100ED0000346002B01D000F031F80F237B61022381
:100EE000BB610023FB614FF480633B6200237B62A4
:100EF00007F114030121184602F0D2FA0346002B31
:100F000001D000F01BF802237B600023FB603B1D37
:100F1000184602F03FFC0346002B01D000F00EF80B
:100F200000BF5037BD4680BD80B582B000AF78604D
:100F300000F01EFB00BF0837BD4680BD80B400AF87
:100F400072B600BFFEE780B483B000AF03460A4626
:100F5000FB711346BB71FB79BA7902FB03F31B12D9
:100F6000DBB218460C37BD4680BC704790B583B0E5
:100F700000AF0346FB711C4B1B681B0CDAB21B4B0A
:100F80001A70194B1B681B0ADAB2194B1A70164BF0
:100F90001B68DAB2174B1A70154B1878FA7913469A
:100FA0005B009C18B021FFF7CEFF03461A46124B98
:100FB0001A55FA7913465B00134401330B4A117832
:100FC0000D4AD1540B4B1878FA7913465B00134441
:100FD0009C1CF021FFF7B7FF03461A46064B1A5533
:100FE00000BF0C37BD4690BD00000020C6030020A6
:100FF000C5030020C4030020FC01002080B582B09E
:1010000000AF4D4B1B68002B05D14C4B93F82130A2
:10101000DBB2012B14D00023FB7106E0FB79484AB8
:101020000021D154FB790133FB71FB792F2BF5D9CA
:10103000414B00221A600021424802F09FFF78E0F5
:1010400000233B6069E0404B1B781A463B6802FA7C
:1010500003F303F08003002B01DD3A2100E01D21A2
:10106000374A3B6813440A461A70374B5B781A4676
:101070003B6802FA03F303F08003002B01DD3A2101
:1010800000E01D213B6808332D4AD1542E4B9B783C
:101090001A463B6802FA03F303F08003002B01DDDC
:1010A0003A2100E01D213B681033254AD154264BDC
:1010B000DB781A463B6802FA03F303F08003002B47
:1010C00001DD3A2100E01D213B6818331C4AD15450
:1010D0001D4B1B791A463B6802FA03F303F08003A9
:1010E000002B01DD3A2100E01D213B682033144A2A
:1010F000D154154B5B791A463B6802FA03F303F0AF
:101100008003002B01DD3A2100E01D213B682833DC
:101110000B4AD1543B6801333B603B68072B92D9A3
:101120003023074A0021074802F086FD024B0222C5
:101130001A600837BD4680BD44020020E806002042
:101140001402002058020020FC01002080B485B069
:1011500000AF7860394B1B68072B53D80023FB6026
:1011600047E0364B1A6813465B001344344AD35C9D
:101170001A46FB6802FA03F303F08003002B01DD3B
:101180003A2100E01D212F4AFB6813440A461A70D9
:101190002A4B1A6813465B0013440133284AD35C78
:1011A0001A46FB6802FA03F303F08003002B01DD0B
:1011B0003A2100E01D21FB680833224AD1541F4B1D
:1011C0001A6813465B00134402331D4AD35C1A4667
:1011D000FB6802FA03F303F08003002B01DD3A21E0
:1011E00000E01D21FB681033164AD154FB6801331F
:1011F000FB60FB68072BB4D9104B1B6801330F4A07
:10120000136015E00D4B1B68092B11D80023FB72EE
:1012100006E0FB7A0B4A0021D154FB7A0133FB72C2
:10122000FB7A172BF5D9054B1B680133034A136072
:1012300000BF1437BD4680BC704700BF4402002089
:10124000FC0100201402002080B584B000AF78605B
:101250003C4B1B68072B52D80023FB6046E0394B00
:101260001A6813465B001344374AD35C1A46FB687E
:1012700002FA03F303F08003002B01DD3A2100E0C2
:101280001D21FB681833314AD1542E4B1A6813467E
:101290005B00134401332C4AD35C1A46FB6802FA04
:1012A00003F303F08003002B01DD3A2100E01D2150
:1012B000FB682033254AD154224B1A6813465B0041
:1012C00013440233204AD35C1A46FB6802FA03F344
:1012D00003F08003002B01DD3A2100E01D21FB68B3
:1012E00028331A4AD154FB680133FB60FB68072B93
:1012F000B5D9144B1B680133124A13601DE0114B22
:101300001B68092B12D81823FB7206E0FB7A0F4AE0
:101310000021D154FB7A0133FB72FB7A2F2BF5D9D4
:10132000084B1B680133074A136006E0054B002297
:101330001A600021064802F021FE00BF1037BD46AA
:1013400080BD00BF44020020FC01002014020020E8
:101350005802002080B582B000AF0023FB7114E07A
:101360000B22FB7903FB02F3DAB2114B1B78134417
:10137000DBB27F22FF21184600F01CF8FB791846EB
:10138000FFF7F4FDFB790133FB71FB79032BE7D900
:10139000074B1B780133DAB2054B1A70FFF72EFEAC
:1013A0000A2000F099FC00BF0837BD4680BD00BF91
:1013B0004802002080B582B000AF0346FB710B46A7
:1013C000BB7113467B717A79B979FB79184600F0C5
:1013D00005F800BF0837BD4680BD000080B487B067
:1013E00000AF0346FB710B46BB7113467B717B79E3
:1013F000002B00F0B6807B799BB201339BB2BB819E
:1014000097F90530002B09DBBB899BB25B00BA79E9
:1014100002FB03F31B12DBB2FB740AE0BB899BB235
:101420005B00C3F50073BA7902FB03F31B12DBB256
:10143000FB74FB799BB21A46520013445B009BB2CB
:101440007B817B899BB2DBB23B753B7DDBB29BB280
:1014500001339BB2FB817B899BB203F48073002B29
:1014600009D1FB899BB2FA7CD2B202FB03F31B12B7
:10147000DBB2BB740AE0FB899BB2C3F58073FA7CD4
:10148000D2B202FB03F31B12DBB2BB74FB7CDBB2F8
:101490005B08DBB27A79D31ADBB27B747B899BB2AF
:1014A0001B0A9BB2042B3AD801A252F823F000BFCA
:1014B000C5140008D7140008E9140008FB1400083C
:1014C0000D150008FB7CDBB2FB75BB7CDBB2BB758A
:1014D00000237B752CE0BB7CDBB2FB75FB7CDBB2B5
:1014E000BB7500237B7523E00023FB75FB7CDBB21F
:1014F000BB75BB7CDBB27B751AE00023FB75BB7C44
:10150000DBB2BB75FB7CDBB27B7511E0BB7CDBB275
:10151000FB750023BB75FB7CDBB27B7508E0FB7CB5
:10152000DBB2FB750023BB75BB7CDBB27B7500BFF8
:10153000FB7DDBB21A467B7CDBB213441A04BB7D15
:10154000DBB219467B7CDBB20B441B021A437B7D6A
:10155000DBB219467B7CDBB20B441343034A1360B6
:1015600000E000BF1C37BD4680BC70470000002073
:1015700080B483B000AF00237B6048E02A497A68DA
:1015800013469B0013449B000B4404331B68002B41
:1015900013D025497A6813469B0013449B000B44E3
:1015A00004331B68591E20487A6813469B00134475
:1015B0009B0003440433196026E01B497A681346F4
:1015C0009B0013449B000B440C331B780133D8B2AF
:1015D00015497A6813469B0013449B000B440C3357
:1015E00002461A7010497A6813469B0013449B0008
:1015F0000B44083319680C487A6813469B0013445F
:101600009B000344043319607B6801337B60074B04
:101610001B781A467B689342B0DB00BF00BF0C37D3
:10162000BD4680BC704700BFC803002049020020AF
:1016300080B485B000AF154B9B69144A43F0010399
:101640009361124B9B6903F00103BB60BB680F4BB6
:10165000DB690E4A43F08053D3610C4BDB6903F026
:1016600080537B607B680A4B5B68FB60FB6823F000
:10167000E063FB60FB6843F00073FB60044AFB68B7
:10168000536000BF1437BD4680BC70470010024055
:101690000000014080B400AFFEE780B400AFFEE779
:1016A00080B400AFFEE780B400AFFEE780B400AFC7
:1016B000FEE780B400AF00BFBD4680BC704780B479
:1016C00000AF00BFBD4680BC704780B400AF00BF14
:1016D000BD4680BC704780B500AF00F0E1FA00BFA6
:1016E00080BD000080B500AF024801F045F800BFA2
:1016F00080BD00BFE806002080B500AF024800F0C2
:10170000E7FB00BF80BD00BFEC02002080B500AF4A
:10171000024802F0F9FC00BF80BD00BFA00200201B
:1017200080B400AF01231846BD4680BC704780B529
:1017300082B000AF7860396003F0D2FB0346162216
:101740001A604FF0FF3318460837BD4680BD80B59C
:1017500082B000AF78604FF0FF317868FFF7E7FFA5
:10176000FEE780B586B000AFF860B9607A6000230C
:101770007B610AE0AFF300800146BB685A1CBA6087
:10178000CAB21A707B6901337B617A697B689A42BD
:10179000F0DB7B6818461837BD4680BD80B586B043
:1017A00000AFF860B9607A6000237B6109E0BB6834
:1017B0005A1CBA601B781846AFF300807B6901336E
:1017C0007B617A697B689A42F1DB7B68184618373F
:1017D000BD4680BD80B483B000AF78604FF0FF336A
:1017E00018460C37BD4680BC704780B483B000AF4C
:1017F000786039603B684FF400525A600023184605
:101800000C37BD4680BC704780B483B000AF7860B1
:10181000012318460C37BD4680BC704780B485B0A4
:1018200000AFF860B9607A60002318461437BD46EF
:1018300080BC704780B586B000AF7860144A154B05
:10184000D31A7B617B693B61134B1B68002B02D170
:10185000114B124A1A60104B1A687B6813443A699C
:101860009A4207D203F03CFB03460C221A604FF069
:10187000FF3309E0084B1B68FB60074B1A687B6865
:101880001344054A1360FB6818461837BD4680BDEF
:1018900000500020000400004C02002040070020FF
:1018A00080B400AF00BFBD4680BC704780B596B025
:1018B00000AF07F1480300221A605A609A60DA60AC
:1018C00007F1400300221A605A6007F12403002246
:1018D0001A605A609A60DA601A615A619A613B1D17
:1018E00020220021184603F025FB444B444A1A608D
:1018F000424B00225A60414B00229A603F4B2F22FC
:10190000DA603E4B00221A613C4B00225A613B4B8D
:1019100000229A61394801F0F3FF0346002B01D001
:10192000FFF70CFB4FF48053BB6407F148031946E3
:10193000324802F0B3FD0346002B01D0FFF7FEFA58
:101940002E4802F07FF80346002B01D0FFF7F6FA8D
:1019500000233B6400237B6407F1400319462748BA
:1019600003F0FCF90346002B01D0FFF7E7FA6023F0
:101970007B620023BB620023FB6200233B630023E6
:101980007B630023BB630023FB6307F12403002276
:1019900019461A4802F0C0FC0346002B01D0FFF79D
:1019A000CDFA07F1240304221946144802F0B4FCCE
:1019B0000346002B01D0FFF7C1FA00237B60002310
:1019C000BB600023FB6000233B6100237B614FF47D
:1019D0000053BB6100233B623B1D1946074803F0DF
:1019E0001BFA0346002B01D0FFF7A8FA034800F0CA
:1019F000B7F800BF5837BD4680BD00BF5802002071
:101A0000002C014080B586B000AF07F1080300222A
:101A10001A605A609A60DA603B4600221A605A6087
:101A20001D4B4FF080421A601B4B41F2BF225A609F
:101A3000194B00229A60184B6322DA60164B002281
:101A40001A61154B00229A61134801F059FF0346B1
:101A5000002B01D0FFF772FA4FF48053BB6007F1FF
:101A6000080319460C4802F019FD0346002B01D06B
:101A7000FFF764FA00233B6000237B603B46194676
:101A8000054803F06BF90346002B01D0FFF756FA27
:101A900000BF1837BD4680BDA002002080B584B0CD
:101AA00000AF78607B681B68294A934233D1294B89
:101AB0009B69284A43F400639361264B9B6903F4B6
:101AC0000063FB60FB68244B244A1A60224B1022FF
:101AD0005A60214B00229A601F4B8022DA601E4B15
:101AE0004FF400721A611C4B00225A611A4B2022DB
:101AF0009A61194B0022DA61174800F00BFD03468A
:101B0000002B01D0FFF71AFA7B68134A9A62124A37
:101B10007B68536218E07B681B68B3F1804F13D178
:101B20000C4BDB690B4A43F00103D361094BDB69C2
:101B300003F00103BB60BB68002200211C2000F001
:101B4000B2FC1C2000F0CBFC00BF1037BD4680BDAE
:101B5000002C014000100240E80600203000024046
:101B600080B588B000AF786007F1100300221A60DA
:101B70005A609A60DA607B681B68104A934218D1F9
:101B80000F4B9B690E4A43F0040393610C4B9B6916
:101B900003F00403FB60FB684FF440733B610223D6
:101BA0007B610223FB6107F110031946054800F031
:101BB00017FF00BF2037BD4680BD00BF002C01408D
:101BC0000010024000080140FFF76AFE0B480C4974
:101BD0000C4A002302E0D458C4500433C4188C4289
:101BE000F9D3094A094C002301E013600432A242F0
:101BF000FBD303F07BF9FFF717F9704700000020D3
:101C0000E00100201C7D0008E001002040070020CA
:101C1000FEE7000080B500AF084B1B68074A43F0A1
:101C200010031360032000F033FC0F2000F008F8CD
:101C3000FFF7FEFC0023184680BD00BF00200240D5
:101C400080B582B000AF7860124B1A68124B1B78D7
:101C500019464FF47A73B3FBF1F3B2FBF3F3184672
:101C600000F04BFC0346002B01D001230EE07B6803
:101C70000F2B0AD8002279684FF0FF3000F013FCD8
:101C8000064A7B681360002300E0012318460837EA
:101C9000BD4680BD040000200C000020080000208C
:101CA00080B400AF054B1B781A46054B1B681344E4
:101CB000034A136000BFBD4680BC70470C00002083
:101CC0002C07002080B400AF024B1B681846BD46AD
:101CD00080BC70472C07002080B584B000AF7860CE
:101CE000FFF7F0FFB8607B68FB60FB68B3F1FF3F74
:101CF00005D00A4B1B781A46FB681344FB6000BFF3
:101D0000FFF7E0FF0246BB68D31AFA689A42F7D899
:101D100000BF00BF1037BD4680BD00BF0C000020D3
:101D200080B586B000AF78600023FB7500233B616F
:101D30000023BB600023FB607B68002B01D10123E3
:101D4000BEE07B689B68002B7B689B6A002B09D1F7
:101D50007B680022DA627B68002283F8242078689E
:101D6000FEF7D0FE786800F07DFA0346FB757B68CD
:101D70009B6A03F01003002B40F09980FB7D002B41
:101D800040F095807B689B6A23F4885323F002031C
:101D900043F002027B689A627B685A687B68DB6961
:101DA0001A437B681B7B5B001343BA681343BB6019
:101DB0007B689B68B3F5807F03D07B689B68012BB1
:101DC00002D14FF4807300E000233A6913433B6172
:101DD0007B681B7D012B19D17B681B7B002B09D1F4
:101DE0007B689B69013B5A033B69134343F40063DF
:101DF0003B610BE07B689B6A43F020027B689A6240
:101E00007B68DB6A43F001027B68DA627B681B68EF
:101E10005B6823F469417B681B683A690A435A602E
:101E20007B681B689A68284B13407A681268B96807
:101E30000B4393607B689B68B3F5807F03D07B681E
:101E40009B68012B04D17B681B69013B1B05FB6070
:101E50007B681B68DB6A23F470017B681B68FA6887
:101E60000A43DA627B681B689A68184B1340BA68A9
:101E70009A420BD17B680022DA627B689B6A23F06E
:101E8000030343F001027B689A6218E07B689B6A57
:101E900023F0120343F010027B689A627B68DB6ACE
:101EA00043F001027B68DA620123FB7507E07B687F
:101EB0009B6A43F010027B689A620123FB75FB7DED
:101EC00018461837BD4680BDFDF7E1FFFE0E1FFF27
:101ED00080B584B000AF78607B681B681B68FB60CE
:101EE0007B681B685B68BB60BB6803F02003002B4A
:101EF0003ED0FB6803F00203002B39D07B689B6A5D
:101F000003F01003002B05D17B689B6A43F4007239
:101F10007B689A627B681B689B6803F46023B3F557
:101F2000602F1DD17B681B7B002B19D17B681B6840
:101F30005A687B681B6822F020025A607B689B6AA3
:101F400023F480727B689A627B689B6A03F48053F7
:101F5000002B05D17B689B6A43F001027B689A6283
:101F6000786800F074F87B681B686FF012021A60E2
:101F7000BB6803F08003002B4DD0FB6803F0040323
:101F8000002B48D07B689B6A03F01003002B05D11F
:101F90007B689B6A43F400527B689A627B681B688B
:101FA0009B6803F4E043B3F5E04F12D07B681B68F5
:101FB0005B6803F48063002B25D17B681B689B68FA
:101FC00003F46023B3F5602F1DD17B681B7B002BCE
:101FD00019D17B681B685A687B681B6822F08002F5
:101FE0005A607B689B6A23F480527B689A627B68A4
:101FF0009B6A03F48073002B05D17B689B6A43F0D6
:1020000001027B689A62786800F06DF97B681B6852
:102010006FF00C021A60BB6803F04003002B12D073
:10202000FB6803F00103002B0DD07B689B6A43F42F
:1020300080327B689A62786800F012F87B681B68CF
:102040006FF001021A6000BF1037BD4680BD80B43A
:1020500083B000AF786000BF0C37BD4680BC7047CE
:1020600080B483B000AF786000BF0C37BD4680BC41
:102070007047000080B485B000AF786039600023FD
:10208000FB730023BB607B6893F82430012B01D1E4
:102090000223DCE07B68012283F824203B685B6834
:1020A000062B1CD87B681B68596B3B685A68134623
:1020B0009B001344053B1F2202FA03F3DB43194044
:1020C0003B6818683B685A6813469B001344053BFD
:1020D00000FA03F27B681B680A435A633CE03B68E2
:1020E0005B680C2B1CD87B681B68196B3B685A68B3
:1020F00013469B001344233B1F2202FA03F3DB43E6
:1021000019403B6818683B685A6813469B001344A3
:10211000233B00FA03F27B681B680A431A631BE047
:102120007B681B68D96A3B685A6813469B00134456
:10213000413B1F2202FA03F3DB4319403B68186856
:102140003B685A6813469B001344413B00FA03F274
:102150007B681B680A43DA623B681B68092B1CD941
:102160007B681B68D9683B681A6813465B00134498
:102170001E3B072202FA03F3DB4319403B689868D1
:102180003B681A6813465B0013441E3B00FA03F2D7
:102190007B681B680A43DA6019E07B681B68196971
:1021A0003B681A6813465B001344072202FA03F3E4
:1021B000DB4319403B6898683B681A6813465B002C
:1021C000134400FA03F27B681B680A431A613B68F8
:1021D0001B68102B03D03B681B68112B32D17B6826
:1021E0001B681D4A934225D17B681B689B6803F4DA
:1021F0000003002B26D17B681B689A687B681B68EC
:1022000042F400029A603B681B68102B1AD1134BF2
:102210001B68134AA2FB03239A0C13469B0013442A
:102220005B00BB6002E0BB68013BBB60BB68002B8E
:10223000F9D107E07B689B6A43F020027B689A62D1
:102240000123FB737B68002283F82420FB7B184664
:102250001437BD4680BC70470024014004000020B4
:1022600083DE1B4380B584B000AF78600023FB6041
:102270007B681B689B6803F00103012B2ED17B68F0
:102280001B689A687B681B6822F001029A60FFF75E
:1022900019FDF8601BE0FFF715FD0246FB68D31A35
:1022A000022B14D97B681B689B6803F00103012B88
:1022B0000DD17B689B6A43F010027B689A627B6851
:1022C000DB6A43F001027B68DA62012307E07B6886
:1022D0001B689B6803F00103012BDCD00023184628
:1022E0001037BD4680BD80B483B000AF786000BFBA
:1022F0000C37BD4680BC704780B485B000AF7860B5
:102300007B6803F00703FB600C4BDB68BB60BA68BB
:102310004FF6FF031340BB60FB681A02BB68134310
:1023200043F0BF6343F40033BB60044ABB68D3602F
:1023300000BF1437BD4680BC704700BF00ED00E011
:1023400080B400AF044BDB681B0A03F00703184698
:10235000BD4680BC704700BF00ED00E080B483B094
:1023600000AF0346FB7197F90730002B0BDBFB79BD
:1023700003F01F02064997F907305B09012000FAB4
:1023800002F241F8232000BF0C37BD4680BC7047E5
:1023900000E100E080B483B000AF03463960FB7118
:1023A00097F90730002B0ADB3B68DAB20C4997F942
:1023B00007301201D2B20B4483F800230AE03B68D5
:1023C000DAB20849FB7903F00F03043B1201D2B2E1
:1023D0000B441A7600BF0C37BD4680BC704700BF67
:1023E00000E100E000ED00E080B489B000AFF860EB
:1023F000B9607A60FB6803F00703FB61FB69C3F116
:102400000703042B28BF0423BB61FB690433062B9D
:1024100002D9FB69033B00E000237B614FF0FF32F0
:10242000BB6902FA03F3DA43BB681A407B699A403E
:102430004FF0FF317B6901FA03F3D9437B680B400E
:10244000134318462437BD4680BC704780B582B020
:1024500000AF78607B68013BB3F1807F01D301233B
:102460000FE00A4A7B68013B53600F214FF0FF30B9
:10247000FFF790FF054B00229A60044B07221A6079
:10248000002318460837BD4680BD00BF10E000E0BD
:1024900080B582B000AF78607868FFF72DFF00BF8D
:1024A0000837BD4680BD80B586B000AF0346B96031
:1024B0007A60FB7300237B61FFF742FF78617A68E3
:1024C000B9687869FFF790FF024697F90F30114617
:1024D0001846FFF75FFF00BF1837BD4680BD80B5C7
:1024E00082B000AF0346FB7197F907301846FFF73B
:1024F00035FF00BF0837BD4680BD80B582B000AF54
:1025000078607868FFF7A2FF034618460837BD4693
:1025100080BD000080B485B000AF78600023FB6010
:102520007B68002B01D1012343E07B681B681A46BE
:10253000224B1344224AA2FB03231B099A007B6807
:102540001A647B681F4ADA637B68022283F82120C1
:102550007B681B681B68FB60FB6823F47F5323F0D8
:102560003003FB607B685A687B689B681A437B6812
:10257000DB681A437B681B691A437B685B691A43F3
:102580007B689B691A437B68DB691343FA681343D2
:10259000FB607B681B68FA681A607B6800229A639C
:1025A0007B68012283F821207B68002283F82020A9
:1025B000002318461437BD4680BC7047F8FFFDBFA6
:1025C000CDCCCCCC0000024080B586B000AFF86026
:1025D000B9607A603B600023FB75FB6893F820309C
:1025E000012B01D102234BE0FB68012283F820205C
:1025F000FB6893F82130DBB2012B3AD1FB68022251
:1026000083F82120FB6800229A63FB681B681A6824
:10261000FB681B6822F001021A603B687A68B9689F
:10262000F86800F0AFF9FB68DB6A002B08D0FB68A4
:102630001B681A68FB681B6842F00E021A600FE004
:10264000FB681B681A68FB681B6822F004021A60AA
:10265000FB681B681A68FB681B6842F00A021A6074
:10266000FB681B681A68FB681B6842F001021A606D
:1026700005E0FB68002283F820200223FB75FB7D28
:1026800018461837BD4680BD80B584B000AF78606D
:102690000023FB737B6893F82130DBB2022B05D05B
:1026A0007B6804229A630123FB7351E07B681B68FB
:1026B0001A687B681B6822F00E021A607B681B6830
:1026C0001A687B681B6822F001021A607B681B682D
:1026D000224A934229D07B681B68214A934222D028
:1026E0007B681B681F4A93421AD07B681B681E4A8E
:1026F000934212D07B681B681C4A93420AD07B68C5
:102700001B681B4A934202D14FF480130EE04FF036
:1027100080730BE04FF4803308E04FF4805305E002
:102720004FF4807302E0102300E00123114A53604C
:102730007B68012283F821207B68002283F8202017
:102740007B685B6B002B03D07B685B6B786898477A
:10275000FB7B18461037BD4680BD00BF0800024015
:102760001C00024030000240440002405800024079
:102770006C0002400000024080B584B000AF786079
:102780007B68DB6B1B68FB607B681B681B68BB603E
:102790007B681B6C04229A40FB681340002B4FD0CF
:1027A000BB6803F00403002B4AD07B681B681B68DE
:1027B00003F02003002B07D17B681B681A687B6835
:1027C0001B6822F004021A607B681B68664A934209
:1027D00029D07B681B68654A934222D07B681B68BE
:1027E000634A93421AD07B681B68624A934212D0B4
:1027F0007B681B68604A93420AD07B681B685F4A0B
:10280000934202D14FF480030EE04FF080630BE05F
:102810004FF4802308E04FF4804305E04FF48063D9
:1028200002E0402300E00423554A53607B68DB6AE2
:10283000002B00F094807B68DB6A786898478EE014
:102840007B681B6C02229A40FB681340002B56D019
:10285000BB6803F00203002B51D07B681B681B6828
:1028600003F02003002B0BD17B681B681A687B6880
:102870001B6822F00A021A607B68012283F821207B
:102880007B681B68384A934229D07B681B68374AAB
:10289000934222D07B681B68354A93421AD07B68EA
:1028A0001B68344A934212D07B681B68324A9342B9
:1028B0000AD07B681B68314A934202D14FF400135F
:1028C0000EE04FF000730BE04FF4003308E04FF4DC
:1028D000005305E04FF4007302E0202300E00223E0
:1028E000274A53607B68002283F820207B689B6A1C
:1028F000002B34D07B689B6A786898472FE07B6810
:102900001B6C08229A40FB681340002B28D0BB6840
:1029100003F00803002B23D07B681B681A687B68D0
:102920001B6822F00E021A607B681A6C7B68DB6BF6
:10293000012101FA02F25A607B6801229A637B68E6
:10294000012283F821207B68002283F820207B6805
:102950001B6B002B04D07B681B6B7868984700BF0B
:1029600000BF1037BD4680BD080002401C00024079
:102970003000024044000240580002406C00024017
:102980000000024080B485B000AFF860B9607A60A2
:102990003B60FB681A6CFB68DB6B012101FA02F2F9
:1029A0005A60FB681B683A685A60FB685B68102BCA
:1029B00008D1FB681B687A689A60FB681B68BA6874
:1029C000DA6007E0FB681B68BA689A60FB681B68FE
:1029D0007A68DA6000BF1437BD4680BC70470000DB
:1029E00080B48BB000AF7860396000237B62002335
:1029F0003B6269E101227B6A02FA03F3FB613B68F7
:102A00001B68FA691340BB61BA69FB699A4240F0DE
:102A100058813B685B689A4A93425ED0984A9342D9
:102A200075D8984A934258D0964A93426FD8964A9E
:102A3000934252D0944A934269D8944A93424CD0DC
:102A4000924A934263D8924A934246D0904A934224
:102A50005DD8122B2AD8122B59D801A252F823F094
:102A6000DB2A0008B52A0008C72A0008092B00083D
:102A70000F2B00080F2B00080F2B00080F2B00084E
:102A80000F2B00080F2B00080F2B00080F2B00083E
:102A90000F2B00080F2B00080F2B00080F2B00082E
:102AA0000F2B0008BD2A0008D12A0008794A93425A
:102AB00013D02CE03B68DB683B6229E03B68DB68B5
:102AC00004333B6224E03B68DB6808333B621FE071
:102AD0003B68DB680C333B621AE03B689B68002B69
:102AE00002D104233B6213E03B689B68012B05D1B4
:102AF00008233B627B68FA691A6109E008233B629C
:102B00007B68FA695A6103E000233B6200E000BF82
:102B1000BB69FF2B01D87B6801E07B6804337B61D4
:102B2000BB69FF2B02D87B6A9B0002E07B6A083BF3
:102B30009B003B617B691A680F213B6901FA03F333
:102B4000DB431A40396A3B6901FA03F31A437B6994
:102B50001A603B685B6803F08053002B00F0B18083
:102B60004D4B9B694C4A43F0010393614A4B9B696F
:102B700003F00103BB60BB68484A7B6A9B080233D1
:102B800052F82330FB607B6A03F003039B000F22A3
:102B900002FA03F3DB43FA681340FB607B68404AA8
:102BA000934213D07B683F4A93420DD07B683E4AE4
:102BB000934207D07B683D4A934201D1032306E04C
:102BC000042304E0022302E0012300E000237A6AE8
:102BD00002F0030292009340FA681343FB602F490E
:102BE0007B6A9B080233FA6841F823203B685B68E4
:102BF00003F48013002B06D02D4B9A682C49BB6937
:102C000013438B6006E02A4B9A68BB69DB43284973
:102C100013408B603B685B6803F40013002B06D005
:102C2000234BDA682249BB691343CB6006E0204B93
:102C3000DA68BB69DB431E491340CB603B685B68C5
:102C400003F40033002B06D0194B5A681849BB69AE
:102C500013434B6006E0164B5A68BB69DB431449CB
:102C600013404B603B685B6803F48033002B21D03A
:102C70000F4B1A680E49BB6913430B6021E000BF7C
:102C8000000032100000311000002210000021105E
:102C9000000012100000111000100240000001405E
:102CA00000080140000C01400010014000140140E8
:102CB000000401400B4B1A68BB69DB430949134010
:102CC0000B607B6A01337B623B681A687B6A22FA7D
:102CD00003F3002B7FF48EAE00BF00BF2C37BD4640
:102CE00080BC70470004014080B483B000AF7860BE
:102CF0000B467B8013467B707B78002B03D07A8851
:102D00007B681A6103E07B881A047B681A6100BF44
:102D10000C37BD4680BC704780B584B000AF78608A
:102D20007B68002B01D101232BE17B6893F83D30B8
:102D3000DBB2002B06D17B68002283F83C20786848
:102D4000FDF7F6FF7B68242283F83D207B681B6833
:102D50001A687B681B6822F001021A607B681B6896
:102D60001A687B681B6842F400421A607B681B6823
:102D70001A687B681B6822F400421A6000F0D8FCD5
:102D8000F8607B685B68814A934207D8FB68804A99
:102D9000934294BF01230023DBB206E0FB687D4A27
:102DA000934294BF01230023DBB2002B01D0012307
:102DB000E7E0FB68784AA2FB03239B0CBB607B68BF
:102DC0001B685B6823F03F017B681B68BA680A4395
:102DD0005A607B681B681B6A23F03F017B685B6855
:102DE0006A4A934202D8BB68013309E0BB684FF4DA
:102DF000967202FB03F3694AA2FB03239B0901338A
:102E00007A6812680B4313627B681B68DB6923F4E2
:102E10004F4222F0FF027B685B685C498B4219D805
:102E2000FB68591E7B685B685B00B1FBF3F3591CC0
:102E300040F6FC730B40002B0AD0FB68591E7B68E0
:102E40005B685B00B1FBF3F30133C3F30B0351E0A9
:102E500004234FE07B689B68002B11D1FB68581E50
:102E60007B6859680B465B000B44B0FBF3F30133FE
:102E7000C3F30B03002B0CBF01230023DBB212E0D2
:102E8000FB68581E7B6859680B469B000B449900F1
:102E90000B44B0FBF3F30133C3F30B03002B0CBF64
:102EA00001230023DBB2002B01D0012322E07B6849
:102EB0009B68002B0ED1FB68581E7B6859680B4637
:102EC0005B000B44B0FBF3F30133C3F30B0343F498
:102ED00000430FE0FB68581E7B6859680B469B0057
:102EE0000B4499000B44B0FBF3F30133C3F30B0322
:102EF00043F44043796809681343CB617B681B68DE
:102F00001B6823F0C0017B68DA697B681B6A1A437F
:102F10007B681B680A431A607B681B689B6823F404
:102F2000034323F0FF037A6811697A68D26811437A
:102F30007A6812680B4393607B681B68DB6823F038
:102F4000FF017B685A697B689B691A437B681B6831
:102F50000A43DA607B681B681A687B681B6842F06A
:102F600001021A607B6800221A647B68202283F8C1
:102F70003D207B6800221A637B68002283F83E2094
:102F8000002318461037BD4680BD00BFA086010053
:102F90007F841E00FF083D0083DE1B43D34D62107B
:102FA00080B586B000AF78607B68002B01D101232B
:102FB0006CE27B681B6803F00103002B00F0878044
:102FC000924B5B6803F00C03042B0CD08F4B5B68B7
:102FD00003F00C03082B12D18C4B5B6803F4803395
:102FE000B3F5803F0BD1894B1B6803F40033002BF2
:102FF0006CD07B685B68002B68D1012346E27B685C
:103000005B68B3F5803F06D1804B1B687F4A43F471
:10301000803313602EE07B685B68002B0CD17B4B08
:103020001B687A4A23F480331360784B1B68774A15
:1030300023F4802313601DE07B685B68B3F5A02F49
:103040000CD1724B1B68714A43F4802313606F4BA1
:103050001B686E4A43F4803313600BE06B4B1B68B4
:103060006A4A23F480331360684B1B68674A23F471
:10307000802313607B685B68002B13D0FEF722FE71
:10308000386108E0FEF71EFE02463B69D31A642B46
:1030900001D90323FAE15D4B1B6803F40033002BD5
:1030A000F0D014E0FEF70EFE386108E0FEF70AFEED
:1030B00002463B69D31A642B01D90323E6E1534B43
:1030C0001B6803F40033002BF0D100E000BF7B68E5
:1030D0001B6803F00203002B63D04C4B5B6803F0CA
:1030E0000C03002B0BD0494B5B6803F00C03082B3F
:1030F0001CD1464B5B6803F48033002B16D1434B45
:103100001B6803F00203002B05D07B681B69012BB1
:1031100001D00123BAE13D4B1B6823F0F8027B6824
:103120005B69DB00394913430B603AE07B681B693C
:10313000002B20D0364B01221A60FEF7C3FD386108
:1031400008E0FEF7BFFD02463B69D31A022B01D906
:1031500003239BE12D4B1B6803F00203002BF0D0EF
:103160002A4B1B6823F0F8027B685B69DB00274968
:1031700013430B6015E0264B00221A60FEF7A2FDF8
:10318000386108E0FEF79EFD02463B69D31A022B28
:1031900001D903237AE11D4B1B6803F00203002BC6
:1031A000F0D17B681B6803F00803002B3AD07B68E2
:1031B0009B69002B19D0174B01221A60FEF782FD84
:1031C000386108E0FEF77EFD02463B69D31A022B08
:1031D00001D903235AE10D4B5B6A03F00203002B74
:1031E000F0D0012000F0B8FA1CE00A4B00221A606F
:1031F000FEF768FD38610FE0FEF764FD02463B69AB
:10320000D31A022B08D9032340E100BF001002406B
:1032100000004242800442429E4B5B6A03F002037C
:10322000002BE9D17B681B6803F00403002B00F03E
:10323000A6800023FB75974BDB6903F08053002BBE
:103240000DD1944BDB69934A43F08053D361914B8A
:10325000DB6903F08053BB60BB680123FB758E4BB9
:103260001B6803F48073002B18D18B4B1B688A4AB0
:1032700043F480731360FEF725FD386108E0FEF724
:1032800021FD02463B69D31A642B01D90323FDE0DB
:10329000814B1B6803F48073002BF0D07B68DB68E4
:1032A000012B06D17B4B1B6A7A4A43F00103136260
:1032B0002DE07B68DB68002B0CD1764B1B6A754ACE
:1032C00023F001031362734B1B6A724A23F0040359
:1032D00013621CE07B68DB68052B0CD16D4B1B6A0D
:1032E0006C4A43F0040313626A4B1B6A694A43F059
:1032F000010313620BE0674B1B6A664A23F001036C
:103300001362644B1B6A634A23F0040313627B68F5
:10331000DB68002B15D0FEF7D5FC38610AE0FEF71C
:10332000D1FC02463B69D31A41F28832934201D95B
:103330000323ABE0574B1B6A03F00203002BEED0D4
:1033400014E0FEF7BFFC38610AE0FEF7BBFC024662
:103350003B69D31A41F28832934201D9032395E0A5
:103360004C4B1B6A03F00203002BEED1FB7D012BBB
:1033700005D1484BDB69474A23F08053D3617B6812
:10338000DB69002B00F08180424B5B6803F00C038B
:10339000082B61D07B68DB69022B46D13F4B0022B2
:1033A0001A60FEF78FFC386108E0FEF78BFC0246DE
:1033B0003B69D31A022B01D9032367E0354B1B6805
:1033C00003F00073002BF0D17B681B6AB3F5803FDC
:1033D00008D1304B5B6823F400327B689B682D4931
:1033E00013434B602B4B5B6823F474127B68196AA0
:1033F0007B685B6A0B43274913434B60274B0122D1
:103400001A60FEF75FFC386108E0FEF75BFC0246DD
:103410003B69D31A022B01D9032337E01D4B1B68EC
:1034200003F00073002BF0D02FE01C4B00221A6039
:10343000FEF748FC386108E0FEF744FC02463B69B1
:10344000D31A022B01D9032320E0124B1B6803F08F
:103450000073002BF0D118E07B68DB69012B01D1F0
:10346000012313E00B4B5B68FB60FB6803F48032C5
:103470007B681B6A9A4206D1FB6803F470127B6872
:103480005B6A9A4201D0012300E0002318461837F6
:10349000BD4680BD00100240007000406000424206
:1034A00080B584B000AF786039607B68002B01D1B3
:1034B0000123D0E06A4B1B6803F007033A689A4285
:1034C00010D9674B1B6823F0070265493B6813431B
:1034D0000B60634B1B6803F007033A689A4201D004
:1034E0000123B8E07B681B6803F00203002B20D0A7
:1034F0007B681B6803F00403002B05D0594B5B6805
:10350000584A43F4E06353607B681B6803F0080388
:10351000002B05D0534B5B68524A43F46053536011
:10352000504B5B6823F0F0027B689B684D49134366
:103530004B607B681B6803F00103002B40D07B6865
:103540005B68012B07D1474B1B6803F40033002B4A
:1035500015D101237FE07B685B68022B07D1414BCB
:103560001B6803F00073002B09D1012373E03D4B6E
:103570001B6803F00203002B01D101236BE0394BE0
:103580005B6823F003027B685B68364913434B603A
:10359000FEF798FBF8600AE0FEF794FB0246FB6832
:1035A000D31A41F28832934201D9032353E02D4BC1
:1035B0005B6803F00C027B685B689B009A42EBD16E
:1035C000274B1B6803F007033A689A4210D2244B3A
:1035D0001B6823F0070222493B6813430B60204B12
:1035E0001B6803F007033A689A4201D0012332E0D6
:1035F0007B681B6803F00403002B08D0194B5B6841
:1036000023F4E0627B68DB68164913434B607B68F8
:103610001B6803F00803002B09D0124B5B6823F4EE
:1036200060527B681B69DB000E4913434B6000F05E
:1036300021F802460B4B5B681B0903F00F030A4994
:10364000CB5C22FA03F3094A1360094B1B68184646
:10365000FEF7F6FA002318461037BD4680BD00BFBE
:1036600000200240001002400879000804000020F9
:103670000800002080B487B000AF0023FB60002367
:10368000BB6000237B6100237B6000233B611E4BFA
:103690005B68FB60FB6803F00C03042B02D0082B73
:1036A00003D027E0194B3B6127E0FB689B0C03F03C
:1036B0000F03174AD35C7B60FB6803F48033002B55
:1036C00010D0114B5B685B0C03F00103114AD35C13
:1036D000BB607B680D4A02FB03F2BB68B2FBF3F3ED
:1036E0007B6104E07B680C4A02FB03F37B617B692E
:1036F0003B6102E0054B3B6100BF3B6918461C374C
:10370000BD4680BC704700BF0010024000127A0026
:10371000207900083079000800093D0080B400AF2E
:10372000024B1B681846BD4680BC70470400002051
:1037300080B500AFFFF7F2FF0246054B5B681B0A3E
:1037400003F007030349CB5C22FA03F3184680BD5C
:10375000001002401879000880B485B000AF78608E
:103760000A4B1B680A4AA2FB03235B0A7A6802FB26
:1037700003F3FB6000BFFB685A1EFA60002BF9D10F
:1037800000BF00BF1437BD4680BC70470400002056
:10379000D34D621080B586B000AF786000233B61E6
:1037A0000023FB607B681B6803F00103002B7DD0C6
:1037B0000023FB754F4BDB6903F08053002B0DD1C9
:1037C0004C4BDB694B4A43F08053D361494BDB6977
:1037D00003F08053BB60BB680123FB75464B1B683D
:1037E00003F48073002B18D1434B1B68424A43F407
:1037F00080731360FEF766FA386108E0FEF762FA3C
:1038000002463B69D31A642B01D903236DE03A4B7E
:103810001B6803F48073002BF0D0364B1B6A03F453
:103820004073FB60FB68002B2ED07B685B6803F461
:103830004073FA689A4227D02E4B1B6A23F44073D8
:10384000FB602E4B01221A602C4B00221A60294A81
:10385000FB681362FB6803F00103002B14D0FEF732
:1038600031FA38610AE0FEF72DFA02463B69D31AB5
:1038700041F28832934201D9032336E01D4B1B6A83
:1038800003F00203002BEED01A4B1B6A23F44072A4
:103890007B685B68174913430B62FB7D012B05D1E5
:1038A000144BDB69134A23F08053D3617B681B6898
:1038B00003F00203002B08D00E4B5B6823F4404258
:1038C0007B689B680B4913434B607B681B6803F064
:1038D0001003002B08D0074B5B6823F480027B6841
:1038E000DB68044913434B60002318461837BD4674
:1038F00080BD00BF00100240007000404004424202
:1039000080B582B000AF78607B68002B01D10123C5
:1039100041E07B6893F83D30DBB2002B06D17B6839
:10392000002283F83C207868FEF7B8F87B68022212
:1039300083F83D207B681A687B680433194610467B
:1039400000F068FF7B68012283F846207B68012233
:1039500083F83E207B68012283F83F207B680122A8
:1039600083F840207B68012283F841207B68012294
:1039700083F842207B68012283F843207B68012280
:1039800083F844207B68012283F845207B6801226C
:1039900083F83D20002318460837BD4680BD00004F
:1039A00080B485B000AF78607B6893F83D30DBB2BF
:1039B000012B01D001233AE07B68022283F83D20ED
:1039C0007B681B68DA687B681B6842F00102DA607A
:1039D0007B681B68184A93420ED07B681B68B3F162
:1039E000804F09D07B681B68144A934204D07B68DF
:1039F0001B68134A934211D17B681B689B6803F0D4
:103A00000703FB60FB68062B10D07B681B681A68F5
:103A10007B681B6842F001021A6007E07B681B6844
:103A20001A687B681B6842F001021A60002318467E
:103A30001437BD4680BC7047002C01400004004094
:103A40000008004080B582B000AF78607B68002B32
:103A500001D1012341E07B6893F83D30DBB2002BBC
:103A600006D17B68002283F83C20786800F039F8A2
:103A70007B68022283F83D207B681A687B680433E8
:103A80001946104600F0C6FE7B68012283F84620E6
:103A90007B68012283F83E207B68012283F83F2067
:103AA0007B68012283F840207B68012283F8412053
:103AB0007B68012283F842207B68012283F843203F
:103AC0007B68012283F844207B68012283F845202B
:103AD0007B68012283F83D20002318460837BD4645
:103AE00080BD80B483B000AF786000BF0C37BD46A6
:103AF00080BC704780B584B000AF786039603B68A7
:103B0000002B09D17B6893F83E30DBB2012B14BF48
:103B100001230023DBB222E03B68042B09D17B6840
:103B200093F83F30DBB2012B14BF01230023DBB23B
:103B300015E03B68082B09D17B6893F84030DBB275
:103B4000012B14BF01230023DBB208E07B6893F84C
:103B50004130DBB2012B14BF01230023DBB2002B69
:103B600001D001235EE03B68002B04D17B68022278
:103B700083F83E2013E03B68042B04D17B680222CB
:103B800083F83F200BE03B68082B04D17B680222BE
:103B900083F8402003E07B68022283F841207B68A1
:103BA0001B6801223968184601F0B4F87B681B686D
:103BB0001E4A934207D17B681B685A6C7B681B685E
:103BC00042F400425A647B681B68184A93420ED044
:103BD0007B681B68B3F1804F09D07B681B68144A6F
:103BE000934204D07B681B68124A934211D17B68D0
:103BF0001B689B6803F00703FB60FB68062B10D073
:103C00007B681B681A687B681B6842F001021A60B7
:103C100007E07B681B681A687B681B6842F001023A
:103C20001A60002318461037BD4680BD002C0140A5
:103C3000000400400008004080B586B000AFF86086
:103C4000B9607A607B800023FB75BB68002B09D1CB
:103C5000FB6893F83E30DBB2022B0CBF012300233C
:103C6000DBB222E0BB68042B09D1FB6893F83F303C
:103C7000DBB2022B0CBF01230023DBB215E0BB68D3
:103C8000082B09D1FB6893F84030DBB2022B0CBF44
:103C900001230023DBB208E0FB6893F84130DBB27C
:103CA000022B0CBF01230023DBB2002B01D0022327
:103CB00053E1BB68002B09D1FB6893F83E30DBB2BF
:103CC000012B0CBF01230023DBB222E0BB68042BD5
:103CD00009D1FB6893F83F30DBB2012B0CBF012305
:103CE0000023DBB215E0BB68082B09D1FB6893F811
:103CF0004030DBB2012B0CBF01230023DBB208E014
:103D0000FB6893F84130DBB2012B0CBF0123002389
:103D1000DBB2002B24D07B68002B02D07B88002BE9
:103D200001D1012319E1BB68002B04D1FB680222F9
:103D300083F83E2016E0BB68042B04D1FB68022206
:103D400083F83F200EE0BB68082B04D1FB680222F9
:103D500083F8402006E0FB68022283F8412001E05E
:103D60000123FAE0BB680C2B00F2AE8001A252F8EE
:103D700023F000BFA93D0008C93E0008C93E000865
:103D8000C93E0008F13D0008C93E0008C93E0008D0
:103D9000C93E0008393E0008C93E0008C93E000877
:103DA000C93E0008813E0008FB685B6A6D4A9A6262
:103DB000FB685B6A6C4ADA62FB685B6A6B4A1A638F
:103DC000FB68586A7968FB681B6834331A467B883D
:103DD000FEF7FAFB0346002B01D00123BDE0FB6890
:103DE0001B68DA68FB681B6842F40072DA606EE0F8
:103DF000FB689B6A5B4A9A62FB689B6A5A4ADA6272
:103E0000FB689B6A594A1A63FB68986A7968FB6881
:103E10001B6838331A467B88FEF7D6FB0346002B17
:103E200001D0012399E0FB681B68DA68FB681B6816
:103E300042F48062DA604AE0FB68DB6A494A9A62CF
:103E4000FB68DB6A484ADA62FB68DB6A474A1A6346
:103E5000FB68D86A7968FB681B683C331A467B8824
:103E6000FEF7B2FB0346002B01D0012375E0FB688F
:103E70001B68DA68FB681B6842F40062DA6026E0BF
:103E8000FB681B6B374A9A62FB681B6B364ADA6227
:103E9000FB681B6B354A1A63FB68186B7968FB6813
:103EA0001B6840331A467B88FEF78EFB0346002BC7
:103EB00001D0012351E0FB681B68DA68FB681B68CE
:103EC00042F48052DA6002E00123FB7500BFFB7D03
:103ED000002B41D1FB681B680122B968184600F02D
:103EE00019FFFB681B68224A934207D1FB681B68D5
:103EF0005A6CFB681B6842F400425A64FB681B68FA
:103F00001B4A93420ED0FB681B68B3F1804F09D067
:103F1000FB681B68174A934204D0FB681B68164A6B
:103F2000934211D1FB681B689B6803F007033B6158
:103F30003B69062B10D0FB681B681A68FB681B687E
:103F400042F001021A6007E0FB681B681A68FB6810
:103F50001B6842F001021A60FB7D18461837BD4607
:103F600080BD00BF05470008AD4700087346000844
:103F7000002C0140000400400008004080B584B0DF
:103F800000AF786039600023FB733B680C2B55D879
:103F900001A252F823F000BFCD3F00083D400008C9
:103FA0003D4000083D400008E93F00083D40000852
:103FB0003D4000083D400008054000083D40000825
:103FC0003D4000083D400008214000087B681B6818
:103FD000DA687B681B6822F40072DA607B685B6ACF
:103FE0001846FEF751FB2CE07B681B68DA687B689B
:103FF0001B6822F48062DA607B689B6A1846FEF7D1
:1040000043FB1EE07B681B68DA687B681B6822F450
:104010000062DA607B68DB6A1846FEF735FB10E069
:104020007B681B68DA687B681B6822F48052DA6060
:104030007B681B6B1846FEF727FB02E00123FB732E
:1040400000BFFB7B002B57D17B681B6800223968BF
:10405000184600F05FFE7B681B682A4A934217D11E
:104060007B681B681A6A41F211131340002B0FD1B1
:104070007B681B681A6A40F244431340002B07D147
:104080007B681B685A6C7B681B6822F400425A6488
:104090007B681B681A6A41F211131340002B0FD181
:1040A0007B681B681A6A40F244431340002B07D117
:1040B0007B681B681A687B681B6822F001021A6023
:1040C0003B68002B04D17B68012283F83E2013E07B
:1040D0003B68042B04D17B68012283F83F200BE06E
:1040E0003B68082B04D17B68012283F8402003E061
:1040F0007B68012283F84120FB7B18461037BD46C0
:1041000080BD00BF002C014080B582B000AF786058
:104110007B681B681B6903F00203022B22D17B68BA
:104120001B68DB6803F00203022B1BD17B681B6852
:104130006FF002021A617B6801221A777B681B68A4
:104140009B6903F00303002B03D0786800F076FA34
:1041500005E0786800F069FA7868FDF775F87B6823
:1041600000221A777B681B681B6903F00403042B89
:1041700022D17B681B68DB6803F00403042B1BD18E
:104180007B681B686FF004021A617B6802221A7751
:104190007B681B689B6903F44073002B03D078682D
:1041A00000F04CFA05E0786800F03FFA7868FDF717
:1041B0004BF87B6800221A777B681B681B6903F049
:1041C0000803082B22D17B681B68DB6803F0080317
:1041D000082B1BD17B681B686FF008021A617B6893
:1041E00004221A777B681B68DB6903F00303002B4A
:1041F00003D0786800F022FA05E0786800F015FA3C
:104200007868FDF721F87B6800221A777B681B68C5
:104210001B6903F01003102B22D17B681B68DB683D
:1042200003F01003102B1BD17B681B686FF010028A
:104230001A617B6808221A777B681B68DB6903F4C4
:104240004073002B03D0786800F0F8F905E0786837
:1042500000F0EBF97868FCF7F7FF7B6800221A772B
:104260007B681B681B6903F00103012B0ED17B687F
:104270001B68DB6803F00103012B07D17B681B6817
:104280006FF001021A617868FCF74EFE7B681B68CC
:104290001B6903F08003802B0ED17B681B68DB68F1
:1042A00003F08003802B07D17B681B686FF08002CE
:1042B0001A61786800F00AFE7B681B681B6903F0CE
:1042C0004003402B0ED17B681B68DB6803F0400382
:1042D000402B07D17B681B686FF040021A61786839
:1042E00000F0B5F97B681B681B6903F02003202BE5
:1042F0000ED17B681B68DB6803F02003202B07D1FD
:104300007B681B686FF020021A61786800F0D5FDA9
:1043100000BF0837BD4680BD80B586B000AFF860ED
:10432000B9607A600023FB75FB6893F83C30012B81
:1043300001D10223AEE0FB68012283F83C207B68B8
:104340000C2B00F29F8001A252F823F08143000859
:10435000854400088544000885440008C1430008DE
:10436000854400088544000885440008034400088B
:10437000854400088544000885440008434400083B
:10438000FB681B68B968184600F0A6FAFB681B6852
:104390009A69FB681B6842F008029A61FB681B6817
:1043A0009A69FB681B6822F004029A61FB681B682B
:1043B0009969BB681A69FB681B680A439A6164E0E3
:1043C000FB681B68B968184600F0ECFAFB681B68CC
:1043D0009A69FB681B6842F400629A61FB681B687B
:1043E0009A69FB681B6822F480629A61FB681B680B
:1043F0009969BB681B691A02FB681B680A439A61CA
:1044000043E0FB681B68B968184600F035FBFB68A1
:104410001B68DA69FB681B6842F00802DA61FB6816
:104420001B68DA69FB681B6822F00402DA61FB682A
:104430001B68D969BB681A69FB681B680A43DA61A3
:1044400023E0FB681B68B968184600F07FFBFB6837
:104450001B68DA69FB681B6842F40062DA61FB687A
:104460001B68DA69FB681B6822F48062DA61FB680A
:104470001B68D969BB681B691A02FB681B680A4381
:10448000DA6102E00123FB7500BFFB68002283F8BC
:104490003C20FB7D18461837BD4680BD80B584B0F2
:1044A00000AF786039600023FB737B6893F83C3081
:1044B000012B01D10223B4E07B68012283F83C2068
:1044C0007B68022283F83D207B681B689B68BB6089
:1044D000BB6823F07703BB60BB6823F47F43BB60FA
:1044E0007B681B68BA689A603B681B68B3F5005F1D
:1044F0003ED0B3F5005F00F28780B3F5805F00F037
:104500008680B3F5805F7FD8702B1AD0702B7BD854
:10451000602B50D0602B77D8502B3CD0502B73D8C9
:10452000402B58D0402B6FD8302B64D0302B6BD819
:10453000202B60D0202B67D8002B5CD0102B5AD0BA
:1045400062E07B6818683B6899683B685A683B681A
:10455000DB6800F0C0FB7B681B689B68BB60BB68C6
:1045600043F07703BB607B681B68BA689A604FE0D2
:104570007B6818683B6899683B685A683B68DB68E9
:1045800000F0A9FB7B681B689A687B681B6842F493
:1045900080429A603CE07B6818683B6859683B68D9
:1045A000DB681A4600F020FB7B681B685021184628
:1045B00000F077FB2CE07B6818683B6859683B6823
:1045C000DB681A4600F03EFB7B681B6860211846DA
:1045D00000F067FB1CE07B6818683B6859683B6823
:1045E000DB681A4600F000FB7B681B684021184618
:1045F00000F057FB0CE07B681A683B681B681946A3
:10460000104600F04EFB03E00123FB7300E000BF07
:104610007B68012283F83D207B68002283F83C20E0
:10462000FB7B18461037BD4680BD80B483B000AF19
:10463000786000BF0C37BD4680BC704780B483B043
:1046400000AF786000BF0C37BD4680BC704780B4B7
:1046500083B000AF786000BF0C37BD4680BC7047A8
:1046600080B483B000AF786000BF0C37BD4680BC1B
:10467000704780B584B000AF78607B685B6AFB6090
:10468000FB685B6A7A689A4207D1FB6801221A7755
:10469000FB68012283F83E202AE0FB689B6A7A6867
:1046A0009A4207D1FB6802221A77FB68012283F83D
:1046B0003F201DE0FB68DB6A7A689A4207D1FB68FD
:1046C00004221A77FB68012283F8402010E0FB687F
:1046D0001B6B7A689A4207D1FB6808221A77FB683D
:1046E000012283F8412003E0FB68012283F83D208A
:1046F000F868FFF7B5FFFB6800221A7700BF103794
:10470000BD4680BD80B584B000AF78607B685B6AD1
:10471000FB60FB685B6A7A689A420BD1FB680122F6
:104720001A777B689B69002B36D1FB68012283F8DE
:104730003E2031E0FB689B6A7A689A420BD1FB68A5
:1047400002221A777B689B69002B25D1FB68012226
:1047500083F83F2020E0FB68DB6A7A689A420BD13D
:10476000FB6804221A777B689B69002B14D1FB68D5
:10477000012283F840200FE0FB681B6B7A689A42A5
:104780000AD1FB6808221A777B689B69002B03D14A
:10479000FB68012283F84120F868FCF755FDFB68AF
:1047A00000221A7700BF1037BD4680BD80B584B0A7
:1047B00000AF78607B685B6AFB60FB685B6A7A6865
:1047C0009A4203D1FB6801221A7719E0FB689B6AC1
:1047D0007A689A4203D1FB6802221A7710E0FB68DC
:1047E000DB6A7A689A4203D1FB6804221A7707E0F1
:1047F000FB681B6B7A689A4202D1FB6808221A7721
:10480000F868FCF7A3FCFB6800221A7700BF10379A
:10481000BD4680BD80B485B000AF786039607B68EC
:104820001B68FB607B68294A93420BD07B68B3F11D
:10483000804F07D07B68264A934203D07B68254A85
:10484000934208D1FB6823F07003FB603B685B6810
:10485000FA681343FB607B681C4A93420BD07B6869
:10486000B3F1804F07D07B68194A934203D07B682D
:10487000184A934208D1FB6823F44073FB603B68FD
:10488000DB68FA681343FB60FB6823F080023B6837
:104890005B691343FB607B68FA681A603B689A683F
:1048A0007B68DA623B681A687B689A627B68074AB1
:1048B000934203D13B681A697B681A637B680122C3
:1048C0005A6100BF1437BD4680BC7047002C0140C0
:1048D000000400400008004080B487B000AF78605A
:1048E00039607B681B6A7B617B681B6A23F001026D
:1048F0007B681A627B685B683B617B689B69FB60D5
:10490000FB6823F07003FB60FB6823F00303FB608C
:104910003B681B68FA681343FB607B6923F0020362
:104920007B613B689B687A6913437B617B681C4AA7
:1049300093420CD17B6923F008037B613B68DB6801
:104940007A6913437B617B6923F004037B617B6895
:10495000134A934211D13B6923F480733B613B6955
:1049600023F400733B613B685B693A6913433B6125
:104970003B689B693A6913433B617B683A695A60BB
:104980007B68FA689A613B685A687B685A637B68FF
:104990007A691A6200BF1C37BD4680BC704700BFF1
:1049A000002C014080B487B000AF786039607B682C
:1049B0001B6A7B617B681B6A23F010027B681A62AA
:1049C0007B685B683B617B689B69FB60FB6823F4E9
:1049D000E043FB60FB6823F44073FB603B681B68AB
:1049E0001B02FA681343FB607B6923F020037B61A1
:1049F0003B689B681B017A6913437B617B681D4A96
:104A000093420DD17B6923F080037B613B68DB68B7
:104A10001B017A6913437B617B6923F040037B614F
:104A20007B68144A934213D13B6923F480633B6152
:104A30003B6923F400633B613B685B699B003A6917
:104A400013433B613B689B699B003A6913433B619D
:104A50007B683A695A607B68FA689A613B685A6871
:104A60007B689A637B687A691A6200BF1C37BD460F
:104A700080BC7047002C014080B487B000AF7860E4
:104A800039607B681B6A7B617B681B6A23F48072D8
:104A90007B681A627B685B683B617B68DB69FB60F3
:104AA000FB6823F07003FB60FB6823F00303FB60EB
:104AB0003B681B68FA681343FB607B6923F400734F
:104AC0007B613B689B681B027A6913437B617B684F
:104AD0001D4A93420DD17B6923F400637B613B68DF
:104AE000DB681B027A6913437B617B6923F4806373
:104AF0007B617B68144A934213D13B6923F4805352
:104B00003B613B6923F400533B613B685B691B01DC
:104B10003A6913433B613B689B691B013A69134344
:104B20003B617B683A695A607B68FA68DA613B6886
:104B30005A687B68DA637B687A691A6200BF1C373F
:104B4000BD4680BC704700BF002C014080B487B0D8
:104B500000AF786039607B681B6A3B617B681B6AC9
:104B600023F480527B681A627B685B687B617B6898
:104B7000DB69FB60FB6823F4E043FB60FB6823F424
:104B80004073FB603B681B681B02FA681343FB60C1
:104B90003B6923F400533B613B689B681B033A6904
:104BA00013433B617B680F4A934209D17B6923F42D
:104BB00080437B613B685B699B017A6913437B613E
:104BC0007B687A695A607B68FA68DA613B685A6880
:104BD0007B681A647B683A691A6200BF1C37BD465D
:104BE00080BC7047002C014080B487B000AFF860F3
:104BF000B9607A60FB681B6A7B61FB681B6A23F003
:104C00000102FB681A62FB689B693B613B6923F008
:104C1000F0033B617B681B013A6913433B617B698D
:104C200023F00A037B617A69BB6813437B61FB68ED
:104C30003A699A61FB687A691A6200BF1C37BD46FF
:104C400080BC704780B487B000AFF860B9607A600C
:104C5000FB681B6A7B61FB681B6A23F01002FB6820
:104C60001A62FB689B693B613B6923F470433B61BB
:104C70007B681B033A6913433B617B6923F0A00304
:104C80007B61BB681B017A6913437B61FB683A69EE
:104C90009A61FB687A691A6200BF1C37BD4680BC06
:104CA000704780B485B000AF786039607B689B68DE
:104CB000FB60FB6823F07003FB603A68FB681343FA
:104CC00043F00703FB607B68FA689A6000BF143703
:104CD000BD4680BC704780B487B000AFF860B96053
:104CE0007A603B60FB689B687B617B6923F47F4350
:104CF0007B613B681A027B681A43BB6813437A697D
:104D000013437B61FB687A699A6000BF1C37BD461C
:104D100080BC704780B487B000AFF860B9607A603B
:104D2000BB6803F01F03012202FA03F37B61FB68F7
:104D30001A6A7B69DB431A40FB681A62FB681A6ACD
:104D4000BB6803F01F03796801FA03F31A43FB6899
:104D50001A6200BF1C37BD4680BC704780B485B066
:104D600000AF786039607B6893F83C30012B01D14B
:104D7000022346E07B68012283F83C207B68022204
:104D800083F83D207B681B685B68FB607B681B6861
:104D90009B68BB60FB6823F07003FB603B681B688B
:104DA000FA681343FB607B681B68FA685A607B688B
:104DB0001B68164A93420ED07B681B68B3F1804F84
:104DC00009D07B681B68124A934204D07B681B6839
:104DD000104A93420CD1BB6823F08003BB603B6850
:104DE0005B68BA681343BB607B681B68BA689A60EB
:104DF0007B68012283F83D207B68002283F83C20F9
:104E0000002318461437BD4680BC7047002C014073
:104E1000000400400008004080B485B000AF786016
:104E200039600023FB607B6893F83C30012B01D193
:104E300002233DE07B68012283F83C20FB6823F0DD
:104E4000FF023B68DB681343FB60FB6823F440729E
:104E50003B689B681343FB60FB6823F480623B68FC
:104E60005B681343FB60FB6823F400623B681B68CC
:104E70001343FB60FB6823F480523B681B691343B8
:104E8000FB60FB6823F400523B685B691343FB60E3
:104E9000FB6823F480423B68DB691343FB607B685B
:104EA0001B68FA685A647B68002283F83C20002360
:104EB00018461437BD4680BC704780B483B000AF3D
:104EC000786000BF0C37BD4680BC704780B483B0AB
:104ED00000AF786000BF0C37BD4680BC7047000053
:104EE000014B1868704700BF1000002070B5002605
:104EF0000C4D0D4C641BA410A64209D102F0F6FC27
:104F000000260A4D0A4C641BA410A64205D170BDB0
:104F100055F8043B98470136EEE755F8043B9847AF
:104F20000136F2E7147D0008147D0008147D0008A6
:104F3000187D000803460244934200D1704703F8ED
:104F4000011BF9E7002B2DE9F0471F46BBBF03F11A
:104F500000431F4600232D2388B01446129A109D4B
:104F60001370149BDDF84CA023F02008B8F1460F15
:104F700005D0B8F1450F00D10135022300E003232D
:104F800007AA049206AACDE902A2CDE9003522467D
:104F90003B4600F0C5FCB8F1470F064602D1119B15
:104FA000DB0722D5B8F1460F06EB050910D133789F
:104FB000302B0AD10022002320463946FBF7F4FCAF
:104FC00018B9C5F10105CAF80050DAF80030994463
:104FD0000022002320463946FBF7E6FC08B1CDF855
:104FE0001C903022079B4B4507D33046079B159AF0
:104FF0009B1B136008B0BDE8F087591C07911A701D
:10500000F0E70346F7B5002903F8022BB6BF2D22BF
:105010002B224942092942702BDD0DF10704A446D9
:105020000A2791FBF7F60A46A64607FB1615632AE0
:1050300005F13005314604F1FF340EF8015CF0DC77
:105040003031AEF1020504F8011C2946441C6145CB
:105050000AD30DF10902A2EB0E02654588BF0022BA
:105060001344181A03B0F0BD11F8012B04F8012FF6
:10507000EDE7302330318370C170031DF1E700008C
:105080002DE9F04F91B00C46DDF8688016461F46BA
:10509000054601F033FA036818460993FBF758F800
:1050A00000230E93D8F800300A90073323F007034B
:1050B00003F1080294F81890D4F800B0C8F8002062
:1050C000D3E90023C4E91223D4E9128A2AF0004369
:1050D0000B934FF0FF3240469C4B0B99FBF796FC2D
:1050E00070BB4FF0FF324046984B0B99FBF770FCBA
:1050F00030BB0022002340465146FBF75FFC10B155
:105100002D2384F84330924B9248B9F1470F94BF56
:105110009846804603234FF0000A23612BF00403D6
:10512000236033462146284600970FAA00F0D4F9A1
:10513000013040F090804FF0FF3011B0BDE8F08FAB
:105140004246534640465146FBF760FC48B1BAF12F
:10515000000FB8BF2D238048B8BF84F843307F4B81
:10516000D3E7636809F0DF015A1C42D1062363606C
:10517000002206920EAACDE904920DAA4BF4806398
:1051800003920DF13302CDE9013223606368424698
:105190000093284653460B91FFF7D4FE0B998046A7
:1051A00047290D9908D1C81C02DB6368994240DD8C
:1051B000A9F102095FFA89F9B9F1650F1FD84A46CA
:1051C000013904F150000D91FFF71BFF0E9A824642
:1051D0001318012A236102DC2268D20701D50133AA
:1051E00023619DF83330002B9BD02D2384F843306E
:1051F00097E74729BCD1002BBAD10123B7E7B9F112
:10520000660F18D1002963680BDD216113B922688C
:10521000D00702D501330B4423614FF0000AA1658A
:10522000DFE713B92268D20701D50233F4E701237F
:10523000F2E74FF067090E9B994205DB2368216175
:10524000D807EAD54B1CE7E70029CCBF0122C1F102
:1052500002021344E0E723685A0507D42369424653
:1052600031462846B84701302BD164E7B9F1650FC4
:1052700040F2DD80D4E9120100220023FBF794FB09
:10528000002833D0012331462846354AB84701303B
:105290003FF451AFDDE90D239A4202DB2368D807C2
:1052A0000FD5DDE9092331462846B84701303FF4E0
:1052B00042AF4FF0000804F11A090E9B013B434531
:1052C00009DC23689B0700F10281E0680F9B98428C
:1052D000B8BF184631E701234A4631462846B84749
:1052E00001303FF428AF08F10108E6E70D9B002BE1
:1052F00038DC012331462846194AB84701303FF4CB
:105300001AAFDDE90D23134302D12368D907D8D59D
:10531000DDE9092331462846B84701303FF40BAF99
:105320004FF0000904F11A0A0D9B5B424B4501DC6A
:105330000E9B94E70123524631462846B847013078
:105340003FF4F9AE09F10109EEE700BFFFFFEF7F7F
:10535000387900083C790008447900084079000851
:10536000487900080E9AA36D9A42A8BF1A46002AEF
:10537000914637DC4FF0000B29EAE97904F11A0273
:10538000D4F858A0AAEB09035B4533DCDDE90D2313
:105390009A423BDB2368DA0738D40E9A0D99A2EBC8
:1053A0000A03A2EB01099945A8BF9946B9F1000F7C
:1053B00034DC4FF0000829EAE97904F11A0ADDE942
:1053C0000D239B1AA3EB090343457FF77AAF012313
:1053D000524631462846B84701303FF4ACAE08F19A
:1053E0000108ECE71346314642462846B8470130EB
:1053F000C0D1A0E60123314628460B92B8470130C0
:105400003FF499AE0B9A0BF1010BB9E73146DDE998
:1054100009232846B8470130BFD18CE64B463146B8
:10542000284608EB0A02B8470130C2D183E60E9A3B
:10543000012A01DCDB0737D50123424631462846E5
:10544000B84701303FF477AEDDE9092331462846FD
:10545000B84701303FF46FAED4E9120100220023B7
:10546000FBF7A2FAD8B90E9B08F10102013B3146C5
:105470002846B84701300ED15DE601234A46314641
:105480002846B84701303FF456AE08F101080E9B9C
:10549000013B4345F1DC534604F15002E0E64FF096
:1054A000000804F11A09F2E701234246DFE701236D
:1054B0004A4631462846B84701303FF43CAE08F131
:1054C0000108E3680F995B1A4345F0DCFDE64FF0F5
:1054D000000804F11909F4E72DE9F047164699464A
:1054E0008A680B6907469342B8BF1346336091F848
:1054F00043200C46DDF820800AB101333360236875
:10550000990642BF336802333360256815F00605FB
:1055100006D104F1190AE36832689B1AAB4228DC11
:1055200094F84320131E226818BF012392062DD43D
:105530004946384604F14302C047013020D0236871
:10554000E56803F00603042B18BF002532684FF00E
:105550000006A36808BFAD1A226908BF25EAE575F1
:105560009342C4BF9B1AED181A34B5421AD10020D9
:1055700008E00123524649463846C047013003D16E
:105580004FF0FF30BDE8F0870135C4E73020E11867
:1055900081F843005A1C94F845102244023382F8E3
:1055A0004310C5E70123224649463846C04701302B
:1055B000E6D00136D9E700002DE9FF470C46277EEB
:1055C0009146782F80469A460C9904F1430207D8F9
:1055D000622F0AD8002F00F0D980582F00F0A48045
:1055E00004F1420684F842703AE0A7F16303152BF8
:1055F000F6D801A050F823F051560008655600086F
:10560000E1550008E1550008E1550008E1550008A2
:1056100065560008E1550008E1550008E15500080D
:10562000E1550008735700089556000855570008C3
:10563000E1550008E155000895570008E1550008BC
:1056400095560008E1550008E15500085D5700082F
:105650000B6804F142061A1D1B680A6084F8423088
:105660000123A4E0256808682E0600F104030AD58A
:1056700005680B60002D03DA2D236D4284F843305A
:105680000A235E4819E015F0400F05680B6018BF4B
:105690002DB2EFE70B682568181D0860280601D5B4
:1056A0001D6802E06906FBD51D886F2F0CBF08231B
:1056B0000A235248002184F843106668002EA8BFD0
:1056C0002168A660A4BF21F0040121600DB9002E5D
:1056D0004DD01646B5FBF3F103FB1157C75D06F835
:1056E000017D2F46BB420D46F4D9082B0BD1236810
:1056F000DF0708D5236961689942DEBF302306F8C9
:10570000013C06F1FF36921B22614B462146404682
:10571000CDF800A003AAFFF7DFFE01304CD14FF017
:10572000FF3004B0BDE8F087344884F845700E6857
:10573000236856F8045B1F060E6014D5D90744BFD2
:1057400043F0200323601DB9236823F02003236066
:105750001023AFE7236843F0200323607823284811
:1057600084F84530E3E75E0648BFADB2E6E716468B
:10577000BBE70B6826681D1D60690D6035061B6858
:1057800001D5186002E07106FBD51880002316468B
:105790002361BAE70B681A1D0A601E6800213046B3
:1057A000626800F0B7FE08B1801B60606368236127
:1057B000002384F84330A8E732464946404623692F
:1057C000D0470130ABD023689B0713D4E068039B1C
:1057D0009842B8BF1846A4E70123324649464046DE
:1057E000D04701309BD00135E36803995B1AAB4287
:1057F000F2DCEBE7002504F11906F5E74A79000829
:105800005B7900082DE9F74F03690C690746A3424D
:10581000C0F28380013C00F1140501F1140805EB8E
:105820008403019358F8243055F8242001339A4218
:10583000B2FBF3F64FEA840B08EB840932D34FF046
:10584000000E4046AC46F24650F8042B93B206FBDD
:1058500003E3120C4FEA134E06FB02E29BB2AAEBE3
:105860000303DCF800A04FEA124E1FFA8AFA5344F1
:105870001FFA82FADCF800208145CAEB124202EBE3
:1058800023429BB243EA02434FEA224A4CF8043BCC
:10589000DAD255F80B302BB9019B043B9D421A46D6
:1058A0002FD33C61384601F0CBF8002825DB284691
:1058B0004FF0000C013658F8041BD0F800E08BB212
:1058C000ACEB03031FFA8EF213440A0CC2EB1E4228
:1058D00002EB23429BB243EA0243C1454FEA224C0A
:1058E00040F8043BE7D255F8242005EB840322B9A5
:1058F000043B9D421A460AD33C61304603B0BDE8E2
:10590000F08F1268043B002ACBD1013CC6E7126835
:10591000043B002AF0D1013CEBE70020EEE7000059
:105920002DE9F04F16461F46446A99B00546CDE969
:105930000467DDF8948074B9102000F0E3FD02469E
:10594000686220B9EA21AE4BAE4801F045FAC0E9E1
:1059500001440460C4606B6A196851B15A6801233C
:1059600093404A608B60284600F030FE00226B6A4C
:105970001A603B1EAFBF0023012223F000430593B2
:10598000A8BFC8F80030DDF814909F4BB8BFC8F826
:10599000002033EA090319D142F20F73249A1360ED
:1059A000C9F31303334300F08085269B53B9974B0B
:1059B00022E0974B08930833269A1360089819B091
:1059C000BDE8F08F914B08930333F5E7DDE904342C
:1059D000CDE90C34DDE90C0100220023FAF7E4FFE5
:1059E000804658B10123249A1360269B002B00F0B7
:1059F000598588481860431E0893DFE716AB01936A
:105A000017AB00932846DDE90C2301F0C5F8C9F374
:105A10000A548246002C7ED0DDE90C010D9BA4F2D5
:105A2000FF34C3F3130343F07F5141F44011CDF829
:105A30004C800022784BFAF797FB6BA3D3E9002345
:105A4000FAF74AFD6AA3D3E90023FAF78FFB06466B
:105A500020460F46FAF7D6FC67A3D3E90023FAF7EE
:105A60003BFD02460B4630463946FAF77FFB0646B9
:105A70000F46FAF7E1FF00228146002330463946FF
:105A8000FAF79CFF48B14846FAF7BCFC32463B4661
:105A9000FAF78AFF08B909F1FF39B9F1160F57D89B
:105AA000DDE90C015D4B03EBC903D3E90023FAF7F1
:105AB00085FF00284ED0002309F1FF390F93169B74
:105AC0001C1B631E099349BFC4F101030023069305
:105AD000002354BF06930993B9F1000F3CDB099BE7
