:020000040800F2
:1000000000500020BD340008E9310008EF3100083D
:10001000F5310008FB310008013200080000000043
:10002000000000000000000000000000073200088F
:1000300013320008000000001F3200082B320008B5
:1000400005350008053500080535000805350008A8
:100050000535000805350008053500080535000898
:100060000535000805350008053500080535000888
:100070003932000805350008053500080535000847
:100080000535000805350008053500080535000868
:100090000535000805350008053500080535000858
:1000A0000535000805350008053500080535000848
:1000B0004D3200080535000805350008613200089A
:1000C00075320008053500080535000805350008BB
:1000D0000535000805350008893200080535000897
:1000E0009D320008053500080535000800000000B5
:1000F0000000000000000000000000000000000000
:0C01000000000000000000005FF808F1A3
:1001100010B5054C237833B9044B13B10448AFF341
:1001200000800123237010BD5C020020000000004D
:10013000B0CE000808B5034B1BB103490348AFF329
:10014000008008BD0000000060020020B0CE000862
:10015000034613F8012B002AFBD1181A0138704707
:1001600081F0004102E000BF83F0004330B54FEA68
:1001700041044FEA430594EA050F08BF90EA020FD5
:100180001FBF54EA000C55EA020C7FEA645C7FEA68
:10019000655C00F0E2804FEA5454D4EB5555B8BF8B
:1001A0006D420CDD2C4480EA020281EA030382EAFC
:1001B000000083EA010180EA020281EA0303362D8E
:1001C00088BF30BD11F0004F4FEA01314FF4801C61
:1001D0004CEA113102D0404261EB410113F0004F73
:1001E0004FEA03334CEA133302D0524263EB43032A
:1001F00094EA050F00F0A780A4F10104D5F1200EC8
:100200000DDB02FA0EFC22FA05F2801841F1000122
:1002100003FA0EF2801843FA05F359410EE0A5F1F6
:1002200020050EF1200E012A03FA0EFC28BF4CF027
:10023000020C43FA05F3C01851EBE37101F00045DD
:1002400007D54FF0000EDCF1000C7EEB00006EEBEA
:100250000101B1F5801F1BD3B1F5001F0CD3490874
:100260005FEA30004FEA3C0C04F101044FEA4452CB
:1002700012F5800F80F09A80BCF1004F08BF5FEA52
:10028000500C50F1000041EB045141EA050130BD32
:100290005FEA4C0C404141EB0101013C28BFB1F544
:1002A000801FE9D291F0000F04BF01460020B1FA8F
:1002B00081F308BF2033A3F10B03B3F120020CDA62
:1002C0000C3208DD02F1140CC2F10C0201FA0CF040
:1002D00021FA02F10CE002F11402D8BFC2F1200CA5
:1002E00001FA02F120FA0CFCDCBF41EA0C0190405B
:1002F000E41AA2BF01EB0451294330BD6FEA0404A4
:100300001F3C1CDA0C340EDC04F11404C4F120028E
:1003100020FA04F001FA02F340EA030021FA04F3A0
:1003200045EA030130BDC4F10C04C4F1200220FAF7
:1003300002F001FA04F340EA0300294630BD21FA35
:1003400004F0294630BD94F0000F83F4801306BFFB
:1003500081F480110134013D4EE77FEA645C18BFEF
:100360007FEA655C29D094EA050F08BF90EA020F86
:1003700005D054EA000C04BF1946104630BD91EA7E
:10038000030F1EBF0021002030BD5FEA545C05D181
:100390004000494128BF41F0004130BD14F58004C0
:1003A0003CBF01F5801130BD01F0004545F0FE4134
:1003B00041F470014FF0000030BD7FEA645C1ABF69
:1003C000194610467FEA655C1CBF0B46024650EAA0
:1003D000013406BF52EA033591EA030F41F40021CC
:1003E00030BD00BF90F0000F04BF0021704730B552
:1003F0004FF4806404F132044FF000054FF0000127
:1004000050E700BF90F0000F04BF0021704730B5E7
:100410004FF4806404F1320410F0004548BF4042BC
:100420004FF000013EE700BF42004FEAE2014FEA11
:1004300031014FEA02701FBF12F07F4393F07F4FEC
:1004400081F06051704732F07F4208BF704793F0EF
:100450007F4F04BF41F40021704730B54FF4607402
:1004600001F0004521F000411CE700BF50EA010205
:1004700008BF704730B54FF000050AE050EA0102AE
:1004800008BF704730B511F0004502D5404261EB1E
:1004900041014FF4806404F132045FEA915C3FF45F
:1004A000D8AE4FF003025FEADC0C18BF03325FEAFC
:1004B000DC0C18BF033202EBDC02C2F1200300FAAD
:1004C00003FC20FA02F001FA03FE40EA0E0021FAD2
:1004D00002F11444BDE600BF70B54FF0FF0C4CF4C0
:1004E000E06C1CEA11541DBF1CEA135594EA0C0F72
:1004F00095EA0C0F00F0DEF82C4481EA030621EAAD
:100500004C5123EA4C5350EA013518BF52EA0335E7
:1005100041F4801143F4801338D0A0FB02CE4FF099
:100520000005E1FB02E506F00042E0FB03E54FF0C9
:100530000006E1FB03569CF0000F18BF4EF0010EC1
:10054000A4F1FF04B6F5007F64F5407404D25FEABD
:100550004E0E6D4146EB060642EAC62141EA555170
:100560004FEAC52040EA5E504FEACE2EB4F1FD0CB2
:1005700088BFBCF5E06F1ED8BEF1004F08BF5FEA30
:10058000500E50F1000041EB045170BD06F00046E2
:1005900046EA010140EA020081EA0301B4EB5C048F
:1005A000C2BFD4EB0C0541EA045170BD41F4801187
:1005B0004FF0000E013C00F3AB8014F1360FDEBFAC
:1005C000002001F0004170BDC4F10004203C35DA88
:1005D0000C341BDC04F11404C4F1200500FA05F30B
:1005E00020FA04F001FA05F240EA020001F00042AC
:1005F00021F0004110EBD37021FA04F642EB060122
:100600005EEA430E08BF20EAD37070BDC4F10C044B
:10061000C4F1200500FA04F320FA05F001FA04F20F
:1006200040EA020001F0004110EBD37041F10001FB
:100630005EEA430E08BF20EAD37070BDC4F1200506
:1006400000FA05F24EEA020E20FA04F301FA05F26E
:1006500043EA020321FA04F001F0004121FA04F216
:1006600020EA020000EBD3705EEA430E08BF20EAE6
:10067000D37070BD94F0000F0FD101F00046400020
:1006800041EB010111F4801F08BF013CF7D041EAA2
:10069000060195F0000F18BF704703F000465200A6
:1006A00043EB030313F4801F08BF013DF7D043EA77
:1006B0000603704794EA0C0F0CEA135518BF95EA2D
:1006C0000C0F0CD050EA410618BF52EA4306D1D1B4
:1006D00081EA030101F000414FF0000070BD50EAD3
:1006E000410606BF1046194652EA430619D094EA5D
:1006F0000C0F02D150EA013613D195EA0C0F05D147
:1007000052EA03361CBF104619460AD181EA03019A
:1007100001F0004141F0FE4141F470014FF0000052
:1007200070BD41F0FE4141F4780170BD70B54FF0ED
:10073000FF0C4CF4E06C1CEA11541DBF1CEA13556D
:1007400094EA0C0F95EA0C0F00F0A7F8A4EB05044F
:1007500081EA030E52EA03354FEA013100F0888046
:100760004FEA03334FF0805545EA131343EA12630F
:100770004FEA022245EA111545EA10654FEA0026C4
:100780000EF000419D4208BF964244F1FD0404F57D
:10079000407402D25B084FEA3202B61A65EB0305D9
:1007A0005B084FEA32024FF480104FF4002CB6EB96
:1007B000020E75EB030E22BFB61A754640EA0C0016
:1007C0005B084FEA3202B6EB020E75EB030E22BF56
:1007D000B61A754640EA5C005B084FEA3202B6EB97
:1007E000020E75EB030E22BFB61A754640EA9C0056
:1007F0005B084FEA3202B6EB020E75EB030E22BF26
:10080000B61A754640EADC0055EA060E18D04FEAE3
:10081000051545EA16754FEA06164FEAC30343EA83
:1008200052734FEAC2025FEA1C1CC0D111F4801F50
:100830000BD141EA00014FF000004FF0004CB6E749
:1008400011F4801F04BF01430020B4F1FD0C88BFE8
:10085000BCF5E06F3FF6AFAEB5EB030C04BFB6EBF3
:10086000020C5FEA500C50F1000041EB045170BDE6
:100870000EF0004E4EEA113114EB5C04C2BFD4EB13
:100880000C0541EA045170BD41F480114FF0000E97
:10089000013C90E645EA060E8DE60CEA135594EA13
:1008A0000C0F08BF95EA0C0F3FF43BAF94EA0C0F16
:1008B0000AD150EA01347FF434AF95EA0C0F7FF48B
:1008C00025AF104619462CE795EA0C0F06D152EADF
:1008D00003353FF4FDAE1046194622E750EA4106C3
:1008E00018BF52EA43067FF4C5AE50EA41047FF4D4
:1008F0000DAF52EA43057FF4EBAE12E74FF0FF3C39
:1009000006E000BF4FF0010C02E000BF4FF0010C09
:100910004DF804CD4FEA410C7FEA6C5C4FEA430C82
:1009200018BF7FEA6C5C1BD001B050EA410C0CBFD1
:1009300052EA430C91EA030F02BF90EA020F002033
:10094000704710F1000F91EA030F58BF994208BF9A
:1009500090422CBFD8176FEAE37040F00100704757
:100960004FEA410C7FEA6C5C02D150EA013C07D1AE
:100970004FEA430C7FEA6C5CD6D152EA033CD3D0F9
:100980005DF8040B704700BF8446104662468C46F3
:100990001946634600E000BF01B5FFF7B7FF002826
:1009A00048BF10F1000F01BD4DF808EDFFF7F4FF4F
:1009B0000CBF012000205DF808FB00BF4DF808EDDA
:1009C000FFF7EAFF34BF012000205DF808FB00BFFD
:1009D0004DF808EDFFF7E0FF94BF012000205DF81F
:1009E00008FB00BF4DF808EDFFF7CEFF94BF0120D4
:1009F00000205DF808FB00BF4DF808EDFFF7C4FFCD
:100A000034BF012000205DF808FB00BF4FEA410C15
:100A10007FEA6C5C02D150EA013C0AD14FEA430CF8
:100A20007FEA6C5C02D152EA033C02D14FF0000035
:100A300070474FF0010070474FEA410212F5001273
:100A400015D211D56FF47873B3EB625212D94FEA15
:100A5000C12343F0004343EA505311F0004F23FAFF
:100A600002F018BF404270474FF00000704750EA54
:100A7000013005D111F0004008BF6FF00040704711
:100A80004FF00000704700BF4FEA4102B2F1E0436F
:100A900024BFB3F5001CDCF1FE5C0DD901F0004C65
:100AA0004FEAC0024CEA5070B2F1004F40EB8300B5
:100AB00008BF20F00100704711F0804F21D113F1E1
:100AC0003872BCBF01F00040704741F480114FEA1A
:100AD0005252C2F11802C2F1200C10FA0CF320FAA3
:100AE00002F018BF40F001004FEAC1234FEAD323C0
:100AF00003FA0CFC40EA0C0023FA02F34FEA43032A
:100B0000CCE77FEA625307D150EA01331EBF4FF0B2
:100B1000FE4040F44000704701F0004040F0FE40CD
:100B200040F40000704700BF80F0004002E000BFCA
:100B300081F0004142001FBF5FEA410392EA030FC8
:100B40007FEA226C7FEA236C6AD04FEA1262D2EB12
:100B50001363C1BFD218414048404140B8BF5B4217
:100B6000192B88BF704710F0004F40F4000020F0B0
:100B70007F4018BF404211F0004F41F4000121F0C6
:100B80007F4118BF494292EA030F3FD0A2F1010210
:100B900041FA03FC10EB0C00C3F1200301FA03F14E
:100BA00000F0004302D5494260EB4000B0F5000F71
:100BB00013D3B0F1807F06D340084FEA310102F130
:100BC0000102FE2A51D2B1F1004F40EBC25008BFE2
:100BD00020F0010040EA03007047490040EB0000AC
:100BE000013A28BFB0F5000FEDD2B0FA80FCACF1AD
:100BF000080CB2EB0C0200FA0CF0AABF00EBC250DA
:100C000052421843BCBFD0401843704792F0000FC7
:100C100081F4000106BF80F400000132013BB5E71A
:100C20004FEA41037FEA226C18BF7FEA236C21D090
:100C300092EA030F04D092F0000F08BF08467047F5
:100C400090EA010F1CBF0020704712F07F4F04D1C3
:100C5000400028BF40F00040704712F100723CBFD6
:100C600000F50000704700F0004343F0FE4040F400
:100C7000000070477FEA226216BF08467FEA2363BE
:100C80000146420206BF5FEA412390EA010F40F4A9
:100C9000800070474FF0000304E000BF10F00043F5
:100CA00048BF40425FEA000C08BF704743F09643DC
:100CB00001464FF000001CE050EA010208BF7047F7
:100CC0004FF000030AE000BF50EA010208BF70477E
:100CD00011F0004302D5404261EB41015FEA010C93
:100CE00002BF84460146002043F0B64308BFA3F18B
:100CF0008053A3F50003BCFA8CF2083AA3EBC2536D
:100D000010DB01FA02FC634400FA02FCC2F120028B
:100D1000BCF1004F20FA02F243EB020008BF20F0C2
:100D20000100704702F1200201FA02FCC2F1200228
:100D300050EA4C0021FA02F243EB020008BF20EA1D
:100D4000DC70704780B582B000AF6423012270214F
:100D50000B4804F0D9F90346FB71FB791A4609499F
:100D6000094809F02BFE03469AB24FF47A730649FC
:100D7000064808F068FBFB7918460837BD4680BD79
:100D800050030020C8CE00081000002008050020F5
:100D900080B500AF054B1B68054A1268114618461E
:100DA000FFF7C8FE0346184680BD00BF780200204A
:100DB0008002002080B500AF054B1B68054A126811
:100DC00011461846FFF7B6FE0346184680BD00BF21
:100DD0007C0200208402002080B584B002AF4FF472
:100DE0007A7300930323064A7021064803F022FE1B
:100DF0000346FB71FB7918460837BD4680BD00BF2E
:100E0000000000205003002080B485B000AF78605F
:100E10000B46FB70FF23FB731EE07B685A1C7A6055
:100E20001A78FB7B5340FB730023BB7311E097F9E7
:100E30000F30002B07DAFB7B5B00FB73FB7B83F03F
:100E40003103FB7302E0FB7B5B00FB73BB7B013375
:100E5000BB73BB7B072BEAD9FB785A1EFA70002BB9
:100E6000DBD1FB7B18461437BD4680BC70470000C1
:100E700080B584B002AFFFF765FF0346002B02D0B8
:100E80006FF00A032DE0FFF7A7FF0346FB71FB7924
:100E9000002B24D14FF47A7002F098FB134A1449C6
:100EA000144809F08BFD03469AB24FF47A73114946
:100EB000114808F0C8FA6423009307230F4A7021F1
:100EC0000F4803F0B5FE0346BB71642002F07EFBC1
:100ED000BB79002B03D100F015F8034601E06FF059
:100EE0000C0318460837BD4680BD00BFDCCE0008A5
:100EF000E0CE000810000020080500208802002035
:100F00005003002080B582B000AF564B5B787B6009
:100F10007B681B027B60534B9B781A467B681344AB
:100F20007B607B681B017B604E4BDB781B09DBB26F
:100F30001A467B6813447B607868FFF753FA4FF0DA
:100F40000002494BFFF7C8FA02460B461046194605
:100F5000FFF79AFD0346454A1360444B1B68184649
:100F6000FFF762FA02460B464149424809F026FD66
:100F700003469AB24FF47A733E493F4808F063FA49
:100F8000384BDB7803F00F037B607B681B027B60D0
:100F9000344B1B791A467B6813447B607B681B02C9
:100FA0007B60304B5B791A467B6813447B607868C2
:100FB000FFF718FA4FF00002304BFFF78DFA0246A8
:100FC0000B46104619464FF000022D4BFFF7CCF8A8
:100FD00002460B4610461946FFF756FD0346294ABE
:100FE0001360284B1B681846FFF71EFA02460B4693
:100FF0002549204809F0E2FC03469AB24FF47A737F
:101000001C491D4808F01FFA06211648FFF7FCFE90
:101010000346FB70134B9B79FA789A420FD01B4A18
:101020001B49144809F0CAFC03469AB24FF47A737C
:101030001049114808F007FA6FF009030DE0154A4E
:1010400013490C4809F0BAFC03469AB24FF47A737C
:101050000849094808F0F7F9002318460837BD4643
:1010600080BD00BF880200200000193F78020020E8
:10107000F0CE000810000020080500200000293FE5
:10108000000049407C020020FCCE000808CF000888
:1010900010CF0008DCCE000880B586B002AF034652
:1010A000FB71FB7923F00F03FB73FB791B01BB730F
:1010B000FB7B43F00C03DBB23B72FB7B43F008038A
:1010C000DBB27B72BB7B43F00C03DBB2BB72BB7B3E
:1010D00043F00803DBB2FB7207F1080264230093BC
:1010E00004234221034803F0A5FC00BF1037BD468E
:1010F00080BD00BF5003002080B586B002AF03461C
:10110000FB71FB7923F00F03FB73FB791B01BB73AE
:10111000FB7B43F00D03DBB23B72FB7B43F0090327
:10112000DBB27B72BB7B43F00D03DBB2BB72BB7BDC
:1011300043F00903DBB2FB7207F108024FF47A7344
:10114000009304234221034803F074FC00BF1037CE
:10115000BD4680BD5003002080B582B000AF7860EE
:1011600039607B68002B03D07B68012B05D009E038
:101170003B6843F080033B6004E03B6843F0C003FE
:101180003B6000BF3B68DBB21846FFF785FF00BF3E
:101190000837BD4680BD80B500AF322002F016FA98
:1011A0003020FFF779FF052002F010FA3020FFF71A
:1011B00073FF012002F00AFA3020FFF76DFF0A20CA
:1011C00002F004FA2020FFF767FF0A2002F0FEF980
:1011D0002820FFF761FF012002F0F8F90820FFF74F
:1011E0005BFF012002F0F2F90120FFF755FF01201B
:1011F00002F0ECF90620FFF74FFF012002F0E6F9BC
:101200000C20FFF749FF00BF80BD80B582B000AF62
:10121000786006E07B685A1C7A601B781846FFF7F6
:101220006BFF7B681B78002BF4D100BF00BF083731
:10123000BD4680BD80B584B000AF78607868FFF7A8
:10124000F3F802460B4607F10800064909F0B6FB21
:1012500007F108031846FFF7D8FF00BF1037BD4657
:1012600080BD00BF44CF000880B500AF0E4802F03B
:1012700057FB03460D4A136000F020F80B4B1B6828
:101280001A460B490B4809F099FB03469AB24FF4F2
:101290007A730849084808F0D6F840F6B83002F0EA
:1012A00095F900BF80BD00BF20030020D4020020BC
:1012B00048CF0008100000200805002080B400AFCF
:1012C000084B1B68642203FB02F2074BA3FB0213CB
:1012D000D21A52081344DB0A024A136000BFBD460B
:1012E00080BC7047D40200200101100080B483B09C
:1012F00000AF78607B68002B07DB7B68022B04DC87
:10130000044A7B68012142F8231000BF0C37BD4618
:1013100080BC7047B002002080B483B000AF78601A
:101320007B68002B07DB7B68022B04DC044A7B68AC
:10133000134401221A7000BF0C37BD4680BC7047B1
:10134000A002002080B483B000AF78607B68002BDF
:1013500007DB7B68022B04DC044A7B681344012210
:101360001A7000BF0C37BD4680BC7047A402002035
:1013700080B582B000AF78603960554A3B6852F85A
:101380002330022B4FD0022B00F39680002B02D08B
:10139000012B39D090E04F4A3B6832F81330B3F557
:1013A000967F20D24B4A3B6832F81330013399B212
:1013B000484A3B6822F81310464A3B6832F813301B
:1013C000B3F5967F0FD1424A3B68022142F82310C1
:1013D000404A3B68002122F813103868FFF786FF67
:1013E0003868FFF799FF3B687A6813441B78012B34
:1013F00064D1374A3B68012142F82310354A3B68E3
:10140000002122F8131059E03B687A6813441B78D6
:10141000002B55D12E4A3B68002142F82310386832
:10142000FFF764FF4CE02B4A3B6832F81330632B24
:1014300022D8284A3B6832F81330013399B2254A42
:101440003B6822F81310234A3B6832F81330642BB0
:1014500012D11F4A3B68022142F823101D4A3B6803
:10146000002122F813103868FFF76CFF3868FFF787
:101470003DFF3868FFF750FF3B687A6813441B78DC
:10148000012B1FD1124A3B68012142F82310114A57
:101490003B68002122F813100F4A3B6813440022D6
:1014A0001A700E4A3B68134400221A700C4A3B68BB
:1014B000002142F8231005E000BF04E000BF02E075
:1014C00000BF00E000BF00BF0837BD4680BD00BFC1
:1014D00004000020A8020020A0020020A402002096
:1014E000B002002090B583B000AF0023FB7152E042
:1014F000FA79FB792C49895C2C4AD154FA79FB7929
:101500002B49895C284AD154FB79022B1AD0022B33
:1015100022DC002B02D0012B0AD01DE0FC79012136
:10152000244803F0DDF803461A46214B1A5514E00F
:10153000FC7902211F4803F0D3F803461A461C4BDE
:101540001A550AE0FC7904211A4803F0C9F8034649
:101550001A46174B1A5500E000BFFB79134AD25CBC
:10156000FB791149CB5C9A4212D1FB790E4AD25CCD
:10157000FB790F49CB5C9A420AD1FA79FB790B4986
:10158000895C0D4AD154FB7919460B48FFF7F0FEF0
:10159000FB790133FB71FB79022BA9D900BF00BF96
:1015A0000C37BD4690BD00BF980200209C02002071
:1015B00094020020000C01409002002080B483B00F
:1015C00000AF0346FB71FB79022B01D900230DE02C
:1015D000FB79094A52F82330012B06D1FB79064AE0
:1015E000002142F82310012300E0002318460C37A5
:1015F000BD4680BC704700BFB002002080B586B0F9
:1016000000AF78600B467B80284B9B69274A43F0EC
:1016100010039361254B9B6903F010037B617B6989
:10162000224B9B69214A43F0200393611F4B9B6926
:1016300003F020033B613B691C4B9B691B4A43F051
:1016400004039361194B9B6903F00403FB60FB687F
:10165000164B9B69154A43F008039361134B9B6932
:1016600003F00803BB60BB687B88114A32F8133073
:1016700000221946786803F04AF87B880C4A32F851
:1016800013301A460B4B1A600A4B01225A60094B61
:1016900000229A60074B0222DA600649786802F05D
:1016A0009BFE00BF1837BD4680BD00BF0010024042
:1016B00020000020BC02002080B594B000AFF8608C
:1016C0007B600B46FB721346BB72FB7A002B08D083
:1016D000FB7A042B05D8BB7A002B02D0BB7A042BF3
:1016E00001D900F082FEFB7A013BFB72BB7A013B21
:1016F000BB7207F13C0300221A605A609A60DA60FC
:1017000007F1340300221A605A6007F1180300221F
:101710001A605A609A60DA601A615A619A61FB7ABB
:10172000A04A52F82320FB681A60FB687A685A6066
:10173000FB6800229A60FB68BA6DDA60FB680022E1
:101740001A61FB6800229A61F86806F03DFB0346C7
:10175000002B01D000F049FE4FF48053FB6307F1EA
:101760003C031946F86807F0FDF80346002B01D04A
:1017700000F03BFEF86806F0C9FB0346002B01D0E1
:1017800000F033FE00237B630023BB6307F13403C7
:101790001946F86807F046FD0346002B01D000F01B
:1017A00024FE6023BB610023FB6100233B62002316
:1017B000BB62FB7A7B4A52F823307B4A934240F06B
:1017C000BF80BB7A794A52F8232007F118031946E3
:1017D000F86807F005F80346002B01D000F005FE7D
:1017E000734B9B69724A43F010039361704B9B6982
:1017F00003F010037B617B69BB7A032B70D801A2D5
:1018000052F823F015180008471800087918000846
:10181000AD180008674B1B78002B03D1664B4022A4
:101820001A6205E0644B1B6A43F04003624A13628C
:10183000604B1B780133DAB25E4B1A700021F868F6
:1018400006F0BCFB4DE05B4B1B78002B03D15A4BE1
:1018500080221A6205E0584B1B6A43F08003564A07
:101860001362544B1B780133DAB2524B1A700421C5
:10187000F86806F0A3FB34E04E4B1B78002B04D134
:101880004D4B4FF480721A6205E04B4B1B6A43F4D8
:101890008073494A1362474B1B780133DAB2454BD8
:1018A0001A700821F86806F089FB1AE0414B1B7892
:1018B000002B04D1404B4FF400721A6205E03E4BFE
:1018C0001B6A43F400733C4A13623A4B1B780133A2
:1018D000DAB2384B1A700C21F86806F06FFB00E0A2
:1018E00000BF354B02225A62334B0222DA6233497F
:1018F000334802F071FD334B5B68FB64FB6C23F4EF
:101900004063FB64FB6C43F0E063FB64FB6C43F4FB
:101910004063FB642B4AFB6C5360F86806F0A4FA42
:10192000254B1B6A1A462849284809F047F8034600
:101930009AB24FF47A732549254807F084FDCCE02C
:10194000FB7A184A52F82330174A934240F0C58078
:10195000BB7A164A52F8232007F118031946F86893
:1019600006F03EFF0346002B01D000F03EFD104B79
:101970009B690F4A43F0080393610D4B9B6903F089
:1019800008033B613B69BB7A032B00F2898001A20B
:1019900052F823F0D5190008071A0008391A000870
:1019A0006D1A000840000020000400405000002094
:1019B00000100240D8020020DC020020FC020020BF
:1019C00000100140000001405CCF00081000002022
:1019D00008050020434B1B78002B03D1424B4022CB
:1019E0001A6305E0404B1B6B43F040033E4A136310
:1019F0003C4B1B780133DAB23A4B1A700021F8687D
:101A000006F0DCFA4DE0374B1B78002B03D1364B48
:101A100080221A6305E0344B1B6B43F08003324A8B
:101A20001363304B1B780133DAB22E4B1A7004214A
:101A3000F86806F0C3FA34E02A4B1B78002B04D177
:101A4000294B4FF480721A6305E0274B1B6B43F45C
:101A50008073254A1363234B1B780133DAB2214B81
:101A60001A700821F86806F0A9FA1AE01D4B1B78D5
:101A7000002B04D11C4B4FF400721A6305E01A4B83
:101A80001B6B43F40073184A1363164B1B78013326
:101A9000DAB2144B1A700C21F86806F08FFA00E0E5
:101AA00000BF114B02225A630F4B0222DA630F4927
:101AB0000F4802F091FCF86806F0D6F90A4B1B6B50
:101AC0001A460C490C4808F079FF03469AB24FF4C5
:101AD0007A730949094807F0B6FC00BF5037BD4684
:101AE00080BD00BFD9020020DC0200200C030020D2
:101AF000000C01405CCF0008100000200805002009
:101B000080B588B000AF786007F1100300221A603A
:101B10005A609A60DA607B681B680E4A934215D15E
:101B20000D4B9B690C4A43F4007393610A4B9B690C
:101B300003F40073FB60FB6801233B6103237B61BB
:101B400007F110031946054802F046FC00BF203794
:101B5000BD4680BD00240140001002400008014045
:101B600080B586B000AF78600B46FB7007F10C03C0
:101B700000221A605A609A607B681D4A1A607B686E
:101B800000229A607B6801221A737B6800221A7512
:101B90007B684FF46022DA617B6800225A607B68C0
:101BA00001221A61786801F035FD0346002B01D04F
:101BB00000F01BFC0023FB6001233B61FB780D4A16
:101BC00052F823307B6107F10C031946786801F065
:101BD000B3FE0346002B01D000F007FC7868FFF746
:101BE0008FFF786801F0EEFD00BF1837BD4680BD5D
:101BF000002401406000002080B500AF534B1B68FB
:101C0000032B00F2988001A252F823F01D1C00085B
:101C10007F1C0008E91C00081B1D00087F22FF2113
:101C2000782000F083FE0020FFF7C8FC0346012B5C
:101C300009D17F22FF21782000F078FE002000F0FB
:101C400039FC00F097FC0120FFF7B8FC0346012B9C
:101C500073D100F0E3FB7F22FF21782000F066FEC5
:101C60003B4B1B785A1CD1B2394A1170184600F010
:101C700021FC00F07FFC354B01221A605DE0002062
:101C8000FFF79CFC0346012B18D1314B1B78032B2B
:101C900002D92F4B00221A7000F0C0FB7F22FF21D7
:101CA000782000F043FE2A4B1B785A1CD1B2284AF8
:101CB0001170184600F0FEFB00F05CFC0120FFF7FD
:101CC0007DFC0346012B3AD1214B00221A7000F013
:101CD000A5FB7F22FF21782000F028FE00F0CCFB3E
:101CE0001A4B02221A602AE00220FFF767FC034623
:101CF000012B01D100F0C0FB0120FFF75FFC034680
:101D0000012B1ED100F08AFB642001F05FFC00F083
:101D1000DDFD0E4B03221A6013E000F0D7FD012019
:101D2000FFF74CFC0346012B0DD100F077FB074B6E
:101D300000221A6007E000BF06E000BF04E000BF19
:101D400002E000BF00E000BF00BF80BD1C03002018
:101D5000CC02002080B500AFFFF74EFF00BF80BD72
:101D600080B500AFFFF780FA00BF80BD80B582B0BC
:101D700000AF78607B681B68134A93421FD1134BF6
:101D80001B785A1CD1B2114A11701A46104B19789F
:101D9000104B99540D4B1B781E2B02D10B4B00227C
:101DA0001A700D4B01221A703223012208490B4888
:101DB00007F049FB01220649084807F0C7FB00BFAE
:101DC0000837BD4680BD00BF00440040CE02002061
:101DD000CD02002050050020CF0200200805002081
:101DE00080B584B002AF01F08FFB00F0A5F800F0E1
:101DF0006DFA00F041FA00F0C9F900F0F9F800F0CE
:101E000025F9592300930023012203213E48FFF7BF
:101E100053FC592300930023022203213A48FFF781
:101E20004BFC592300930023012204213748FFF77C
:101E300043FC592300930023022204213348FFF777
:101E40003BFC07213248FFF78BFE324806F00CF8C6
:101E5000314806F009F800212F4806F0AFF80122BA
:101E60002E492F4807F072FB00F03EFE1422DF21BE
:101E70002C4800F0BFFE4FF47A6219212A4800F086
:101E8000B9FEFEF7F5FFFFF786F901210120FFF704
:101E900063F9FEF77DFF03461846FFF7CBF90A20EA
:101EA00001F094FB01210020FFF756F9FEF782FFB5
:101EB00003461846FFF7BEF91C4B00221A701C4B54
:101EC00000221A6000F0AAFA0A2001F07FFB00232A
:101ED000FB710123BB710A211648FFF78FFBFFF747
:101EE0008BFE00F0E9FE084B1B6864229A63064BE8
:101EF0001B6832225A63054B1B6864229A63034BAA
:101F00001B6832225A63EAE7340400207C04002074
:101F100020030020EC030020A4030020CD020020B9
:101F200008050020551D0008611D0008D002002092
:101F30001C0300200008014080B594B000AF07F1F9
:101F4000280328220021184608F0D0F807F11403CE
:101F500000221A605A609A60DA601A613B1D002202
:101F60001A605A609A60DA600123BB624FF48033D2
:101F7000FB6200233B630123BB6302237B644FF4BA
:101F80008033BB644FF4E013FB6407F12803184669
:101F900005F054FA0346002B01D000F026FA0F2377
:101FA0007B610223BB610023FB614FF480633B62D2
:101FB00000237B6207F114030221184605F0C0FCE0
:101FC0000346002B01D000F010FA02237B604FF48F
:101FD0000043FB603B1D184605F040FE0346002B06
:101FE00001D000F002FA00BF5037BD4680BD0000AE
:101FF00080B500AF124B134A1A60114B124A5A6057
:102000000F4B00229A600E4B0022DA600C4B4FF40B
:1020100080421A610A4B00225A61094B00229A61E0
:10202000074B0022DA61064B00221A62044802F0D4
:10203000A9FB0346002B01D000F0D7F900BF80BDFB
:102040005003002000540040A086010080B596B0E7
:1020500000AF07F1480300221A605A609A60DA6004
:1020600007F1400300221A605A6007F1240300229E
:102070001A605A609A60DA601A615A619A613B1D6F
:1020800020220021184608F031F83E4B3E4A1A60E3
:102090003C4B00225A603B4B00229A60394B59223C
:1020A000DA60384B00221A61364B00225A61354BF8
:1020B00000229A61334805F087FE0346002B01D0C9
:1020C00000F093F94FF48053BB6407F148031946BD
:1020D0002C4806F047FC0346002B01D000F085F9A0
:1020E000284805F013FF0346002B01D000F07DF9CE
:1020F00000233B6400237B6407F140031946214819
:1021000007F090F80346002B01D000F06EF9602331
:102110007B620023BB620023FB6200233B6300233E
:102120007B630023BB630023FB6307F124030022CE
:102130001946144806F054FB0346002B01D000F06A
:1021400054F900237B600023BB600023FB60002365
:102150003B6100237B614FF40053BB6100233B6272
:102160003B1D1946074807F0BBF80346002B01D07A
:1021700000F03BF9034800F08BFF00BF5837BD4625
:1021800080BD00BFA4030020002C014080B58EB0AC
:1021900000AF07F1280300221A605A609A60DA60E3
:1021A00007F1200300221A605A603B1D00221A60CA
:1021B0005A609A60DA601A615A619A612D4B4FF049
:1021C00080421A602B4B41F63F725A60294B002225
:1021D0009A60284B0922DA60264B00221A61254BAF
:1021E00000229A61234805F0EFFD0346002B01D041
:1021F00000F0FBF84FF48053BB6207F12803194647
:102200001C4806F0AFFB0346002B01D000F0EDF8B0
:10221000184805F07BFE0346002B01D000F0E5F8DE
:1022200000233B6200237B6207F12003194611481B
:1022300006F0F8FF0346002B01D000F0D6F860232B
:102240007B600023BB600023FB6000237B613B1DA0
:1022500000221946074806F0C3FA0346002B01D0B6
:1022600000F0C3F8034800F013FF00BF3837BD4645
:1022700080BD00BFEC03002080B500AF114B124AB7
:102280001A60104B4FF416525A600E4B00229A609F
:102290000C4B0022DA600B4B00221A61094B0C2216
:1022A0005A61084B00229A61064B0022DA61054808
:1022B00007F079F80346002B01D000F096F800BF34
:1022C00080BD00BF080500200044004080B588B0F4
:1022D00000AF07F1100300221A605A609A60DA60BA
:1022E000334B9B69324A43F010039361304B9B6937
:1022F00003F01003FB60FB682D4B9B692C4A43F0F5
:10230000200393612A4B9B6903F02003BB60BB68E9
:10231000274B9B69264A43F004039361244B9B6936
:1023200003F004037B607B68214B9B69204A43F0E8
:10233000080393611E4B9B6903F008033B603B68F5
:102340000022E0211B4802F0E2F94FF400533B6108
:10235000194B7B610023BB6107F110031946174835
:1023600002F03AF8E0233B6101237B610023BB616B
:102370000223FB6107F1100319460E4802F02CF806
:1023800007233B6100237B610123BB6107F110033D
:1023900019460B4802F020F800220021282001F005
:1023A00036FD282001F04FFD00BF2037BD4680BD1F
:1023B0000010024000080140000011100010014010
:1023C000000C014080B582B000AF78607B681B686C
:1023D000B3F1804F01D1FFF785F801F02DF800F03F
:1023E00099FB00BF0837BD4680BD80B400AF72B610
:1023F00000BFFEE780B483B000AF03460A46FB711E
:102400001346BB71FB79BA7902FB03F31B12DBB2F3
:1024100018460C37BD4680BC7047000080B582B0BE
:1024200000AF00237B6019E07A6813465B00134419
:10243000104A0021D1547A6813465B0013440133DB
:102440000C4A0021D1547A6813465B0013440233CE
:10245000084A0021D1547B6801337B607B68072BDD
:10246000E2D900F087F8C82001F0B0F800BF0837C3
:10247000BD4680BD7005002080B500AF0C4B1B78B9
:10248000002B02D1FFF7CAFF06E07F22FF21782050
:1024900000F04CFA00F056F8054B1B78002B0CBFEF
:1024A00001230023DBB21A46014B1A7000BF80BD26
:1024B000D002002090B583B000AF0346FB711C4BE7
:1024C0001B681B0CDAB21B4B1A70194B1B681B0ADA
:1024D000DAB2194B1A70164B1B68DAB2174B1A7026
:1024E000154B1878FA7913465B009C18B021FFF75A
:1024F00081FF03461A46124B1A55FA7913465B00C0
:10250000134401330B4A11780D4AD1540B4B187800
:10251000FA7913465B0013449C1CF021FFF76AFF15
:1025200003461A46064B1A5500BF0C37BD4690BDF0
:102530001C000020BC050020BD050020BE050020B9
:102540007005002080B582B000AF00237B6007E0FB
:102550007B68DBB21846FFF7ADFF7B6801337B6019
:102560007B68072BF4D900F005F800BF0837BD469B
:1025700080BD000080B582B000AF4D4B1B68002BC2
:1025800005D14C4B93F82130DBB2012B14D0002342
:10259000FB7106E0FB79484A0021D154FB790133F5
:1025A000FB71FB792F2BF5D9414B00221A600021DA
:1025B000424805F047FF78E000233B6069E0404B6C
:1025C0001B781A463B6802FA03F303F08003002BE2
:1025D00001DD3A2100E01D21374A3B6813440A46D9
:1025E0001A70374B5B781A463B6802FA03F303F024
:1025F0008003002B01DD3A2100E01D213B680833F8
:102600002D4AD1542E4B9B781A463B6802FA03F3AD
:1026100003F08003002B01DD3A2100E01D213B681F
:102620001033254AD154264BDB781A463B6802FA10
:1026300003F303F08003002B01DD3A2100E01D21AC
:102640003B6818331C4AD1541D4B1B791A463B6812
:1026500002FA03F303F08003002B01DD3A2100E0CE
:102660001D213B682033144AD154154B5B791A461F
:102670003B6802FA03F303F08003002B01DD3A21EB
:1026800000E01D213B6828330B4AD1543B680133DD
:102690003B603B68072B92D93023074A002107484B
:1026A00005F02EFD024B02221A600837BD4680BDA0
:1026B000B8050020C404002088050020A4030020E1
:1026C0007005002080B485B000AF7860394B1B687E
:1026D000072B53D80023FB6047E0364B1A6813469C
:1026E0005B001344344AD35C1A46FB6802FA03F3D6
:1026F00003F08003002B01DD3A2100E01D212F4A69
:10270000FB6813440A461A702A4B1A6813465B008A
:1027100013440133284AD35C1A46FB6802FA03F3D8
:1027200003F08003002B01DD3A2100E01D21FB684E
:102730000833224AD1541F4B1A6813465B001344D6
:1027400002331D4AD35C1A46FB6802FA03F303F016
:102750008003002B01DD3A2100E01D21FB681033CE
:10276000164AD154FB680133FB60FB68072BB4D9D0
:10277000104B1B6801330F4A136015E00D4B1B68AB
:10278000092B11D80023FB7206E0FB7A0B4A0021CB
:10279000D154FB7A0133FB72FB7A172BF5D9054B29
:1027A0001B680133034A136000BF1437BD4680BC69
:1027B000704700BFB8050020700500208805002084
:1027C00080B584B000AF78603C4B1B68072B52D8B3
:1027D0000023FB6046E0394B1A6813465B00134444
:1027E000374AD35C1A46FB6802FA03F303F080030E
:1027F000002B01DD3A2100E01D21FB681833314A2E
:10280000D1542E4B1A6813465B00134401332C4AF3
:10281000D35C1A46FB6802FA03F303F08003002B33
:1028200001DD3A2100E01D21FB682033254AD15407
:10283000224B1A6813465B0013440233204AD35CD0
:102840001A46FB6802FA03F303F08003002B01DD54
:102850003A2100E01D21FB6828331A4AD154FB6855
:102860000133FB60FB68072BB5D9144B1B680133A0
:10287000124A13601DE0114B1B68092B12D8182354
:10288000FB7206E0FB7A0F4A0021D154FB7A013338
:10289000FB72FB7A2F2BF5D9084B1B680133074AD3
:1028A000136006E0054B00221A600021064805F07F
:1028B000C9FD00BF1037BD4680BD00BFB805002070
:1028C0007005002088050020A403002080B582B098
:1028D00000AF0023FB7114E00B22FB7902FB03F332
:1028E000DAB2114B1B781344DBB27F22FF2118466A
:1028F00000F01CF8FB791846FFF7DCFDFB7901338B
:10290000FB71FB79032BE7D9074B1B780133DAB254
:10291000054B1A70FFF72EFE0A2000F057FE00BF8D
:102920000837BD4680BD00BFBF05002080B582B01E
:1029300000AF0346FB710B46BB7113467B717A797E
:10294000B979FB79184600F005F800BF0837BD4695
:1029500080BD000080B487B000AF0346FB710B461A
:10296000BB7113467B717B79002B00F0B6807B79BD
:102970009BB201339BB2BB8197F90530002B09DB79
:10298000BB899BB25B00BA7902FB03F31B12DBB27B
:10299000FB740AE0BB899BB25B00C3F50073BA7994
:1029A00002FB03F31B12DBB2FB74FB799BB21A46EA
:1029B000520013445B009BB27B817B899BB2DBB2EC
:1029C0003B753B7DDBB29BB201339BB2FB817B89C4
:1029D0009BB203F48073002B09D1FB899BB2FA7C74
:1029E000D2B202FB03F31B12DBB2BB740AE0FB8919
:1029F0009BB2C3F58073FA7CD2B202FB03F31B12C5
:102A0000DBB2BB74FB7CDBB25B08DBB27A79D31A36
:102A1000DBB27B747B899BB21B0A9BB2042B3AD836
:102A200001A252F823F000BF3D2A00084F2A0008F7
:102A3000612A0008732A0008852A0008FB7CDBB2A3
:102A4000FB75BB7CDBB2BB7500237B752CE0BB7CCC
:102A5000DBB2FB75FB7CDBB2BB7500237B7523E02F
:102A60000023FB75FB7CDBB2BB75BB7CDBB27B75EB
:102A70001AE00023FB75BB7CDBB2BB75FB7CDBB2D1
:102A80007B7511E0BB7CDBB2FB750023BB75FB7C67
:102A9000DBB27B7508E0FB7CDBB2FB750023BB750A
:102AA000BB7CDBB27B7500BFFB7DDBB21A467B7C57
:102AB000DBB213441A04BB7DDBB219467B7CDBB26C
:102AC0000B441B021A437B7DDBB219467B7CDBB2D5
:102AD0000B441343034A136000E000BF1C37BD469C
:102AE00080BC70471C00002080B582B000AF00237E
:102AF000FB7106E0FB79184600F02AF9FB790133F7
:102B0000FB71FB79272BF5D900BF00BF0837BD4605
:102B100080BD000080B483B000AF0023FB715DE096
:102B2000FA79334913465B001344DB000B441B68FE
:102B3000002B50D0FA792E4913465B001344DB007A
:102B40000B4404331B68002B32D1FA792849134611
:102B50005B001344DB000B440C331B78FA79013320
:102B6000D8B2234913465B001344DB000B440C33FB
:102B700002461A70FA791E4913465B001344DB00C3
:102B80000B4408331B68002B25D0F979FA791848D3
:102B90000B465B000B44DB00034408331968144800
:102BA00013465B001344DB0003440433196012E056
:102BB000FA790F4913465B001344DB000B440433DE
:102BC0001B68FA79591E0A4813465B001344DB0060
:102BD000034404331960FB790133FB71FB79272B24
:102BE0009ED900BF00BF0C37BD4680BC704700BFF8
:102BF000C005002080B487B000AFF860B9607A608B
:102C00000023FB7502E0FB7D0133FB75FA7D28494B
:102C100013465B001344DB000B441B68002B02D0FF
:102C2000FB7D272BEFD9FB7D282B01D1282339E011
:102C3000FA7D1F4913465B001344DB000B44FA681E
:102C40001A60FA7DBB681B49A1FB0313D908184819
:102C500013465B001344DB00034404331960FA7D20
:102C60007B681449A1FB0313D908114813465B0084
:102C70001344DB00034408331960FA7D0C49134602
:102C80005B001344DB000B440C3300221A70FA7D06
:102C9000F97D074813465B001344DB0003441433FB
:102CA0001960FB7D18461C37BD4680BC704700BFCD
:102CB000C0050020CDCCCCCC80B582B000AF0023C5
:102CC000FB713AE0FA79214913465B001344DB00BB
:102CD0000B440C331B78002B2CD0FA791B4913467C
:102CE0005B001344DB000B441B689847FA791749D3
:102CF00013465B001344DB000B440C331B78FA795A
:102D0000013BD8B2114913465B001344DB000B446E
:102D10000C3302461A70FA790C4913465B001344CF
:102D2000DB000B4408331B68002B03D1FB791846EA
:102D300000F00EF8FB790133FB71FB79272BC1D929
:102D400000BF00BF0837BD4680BD00BFC0050020E2
:102D500080B483B000AF0346FB71FA791F49134674
:102D60005B001344DB000B441B68002B31D0FA7965
:102D70001A4913465B001344DB000B4400221A601F
:102D8000FA79164913465B001344DB000B44043305
:102D900000221A60FA79114913465B001344DB00E4
:102DA0000B44083300221A60FA790C4913465B0081
:102DB0001344DB000B44103300221A60FA790749F0
:102DC00013465B001344DB000B44143300221A60EB
:102DD00000E000BF0C37BD4680BC7047C005002036
:102DE00080B485B000AF154B9B69144A43F00103D2
:102DF0009361124B9B6903F00103BB60BB680F4BEF
:102E0000DB690E4A43F08053D3610C4BDB6903F05E
:102E100080537B607B680A4B5B68FB60FB6823F038
:102E2000E063FB60FB6843F00073FB60044AFB68EF
:102E3000536000BF1437BD4680BC7047001002408D
:102E40000000014080B588B000AF786007F1100342
:102E500000221A605A609A60DA607B681B68144A24
:102E6000934221D1134B9B69124A43F4007393613F
:102E7000104B9B6903F40073FB60FB680D4B9B696F
:102E80000C4A43F0100393610A4B9B6903F0100353
:102E9000BB60BB6808233B6103237B6107F1100320
:102EA0001946054801F098FA00BF2037BD4680BD9D
:102EB00000240140001002400010014080B58AB09B
:102EC00000AF786007F1140300221A605A609A601C
:102ED000DA607B681B68254A934242D1244B9B6988
:102EE000234A43F008039361214B9B6903F00803D5
:102EF0003B613B694FF440737B611223BB61032349
:102F00003B6207F1140319461A4801F065FA1A4B9F
:102F10005B687B627B6A43F0E0637B627B6A43F0C1
:102F200002037B62144A7B6A5360114BDB69104ACF
:102F300043F40013D3610E4BDB6903F40013FB6011
:102F4000FB68002200211F2000F061FF1F2000F01D
:102F50007AFF00220021202000F059FF202000F0FD
:102F600072FF00BF2837BD4680BD00BF005400403F
:102F700000100240000C01400000014080B586B006
:102F800000AF78607B681B683B4A934233D13B4B70
:102F90009B693A4A43F400639361384B9B6903F49D
:102FA00000637B617B69364B364A1A60344B1022D2
:102FB0005A60334B00229A60314B8022DA60304BEA
:102FC0004FF400721A612E4B00225A612C4B2022C2
:102FD0009A612B4B0022DA61294800F04FFF03462B
:102FE000002B01D0FFF701FA7B68254A5A62244A78
:102FF0007B6853623CE07B681B68B3F1804F14D15F
:103000001E4BDB691D4A43F00103D3611B4BDB6997
:1030100003F001033B613B69002200211C2000F00A
:10302000F6FE1C2000F00FFF22E07B681B68164AAA
:1030300093420CD1114BDB69104A43F00203D36178
:103040000E4BDB6903F00203FB60FB6810E07B685A
:103050001B680E4A93420BD1084BDB69074A43F0C9
:103060000403D361054BDB6903F00403BB60BB6859
:1030700000BF1837BD4680BD002C01400010024043
:10308000C40400201C00024000040040000800406E
:1030900080B58AB000AF786007F1140300221A608F
:1030A0005A609A60DA607B681B68284A934219D19B
:1030B000274B9B69264A43F004039361244B9B6989
:1030C00003F004033B613B694FF480737B6102238F
:1030D000BB6102233B6207F1140319461D4801F04E
:1030E0007BF92FE07B681B68B3F1804F2AD1184B26
:1030F0009B69174A43F004039361154B9B6903F0E6
:103100000403FB60FB684FF400437B610223BB6157
:1031100002233B6207F1140319460E4801F05CF9E3
:103120000D4B5B687B627B6A23F440737B627B6A36
:1031300043F0E0637B627B6A43F480737B62064A00
:103140007B6A536000BF2837BD4680BD002C01401C
:1031500000100240000801400000014080B588B026
:1031600000AF786007F1100300221A605A609A607D
:10317000DA607B681B68194A93422BD1184BDB69D4
:10318000174A43F40033D361154BDB6903F4003372
:10319000FB60FB68124B9B69114A43F00403936187
:1031A0000F4B9B6903F00403BB60BB680C233B61BE
:1031B00002237B610223FB6107F1100319460948D2
:1031C00001F00AF900220021262000F020FE26202E
:1031D00000F039FE00BF2037BD4680BD00440040EE
:1031E000001002400008014080B400AFFEE780B448
:1031F00000AFFEE780B400AFFEE780B400AFFEE7AB
:1032000080B400AFFEE780B400AF00BFBD4680BC15
:10321000704780B400AF00BFBD4680BC704780B42B
:1032200000AF00BFBD4680BC704780B500AF00F066
:10323000B1F900BF80BD000080B500AF024800F0CA
:103240008BFF00BF80BD00BFC404002080B500AF6D
:10325000024805F0BDF900BF80BD00BFEC030020AF
:1032600080B500AF024802F07DF800BF80BD00BF0E
:103270005003002080B500AF024802F0E4F900BF1F
:1032800080BD00BF5003002080B500AF024806F0AB
:1032900083F900BF80BD00BF0805002080B500AFE6
:1032A0004FF4005001F04CFA00BF80BD80B400AF75
:1032B00001231846BD4680BC704780B582B000AF80
:1032C0007860396006F0E8FE034616221A604FF077
:1032D000FF3318460837BD4680BD80B582B000AFC9
:1032E00078604FF0FF317868FFF7E7FFFEE780B5C1
:1032F00086B000AFF860B9607A6000237B610AE0B5
:10330000AFF300800146BB685A1CBA60CAB21A709B
:103310007B6901337B617A697B689A42F0DB7B6869
:1033200018461837BD4680BD80B586B000AFF8603E
:10333000B9607A6000237B6109E0BB685A1CBA60FF
:103340001B781846AFF300807B6901337B617A6993
:103350007B689A42F1DB7B6818461837BD4680BD12
:1033600080B483B000AF78604FF0FF3318460C375D
:10337000BD4680BC704780B483B000AF78603960D0
:103380003B684FF400525A60002318460C37BD4684
:1033900080BC704780B483B000AF786001231846CA
:1033A0000C37BD4680BC704780B485B000AFF86074
:1033B000B9607A60002318461437BD4680BC704758
:1033C00080B586B000AF7860144A154BD31A7B6184
:1033D0007B693B61134B1B68002B02D1114B124AD6
:1033E0001A60104B1A687B6813443A699A4207D2F4
:1033F00006F052FE03460C221A604FF0FF3309E03C
:10340000084B1B68FB60074B1A687B681344054A2E
:103410001360FB6818461837BD4680BD0050002079
:103420000004000080090020B009002080B400AF33
:1034300000BFBD4680BC704780B400AF194B1B680D
:10344000002B0BDD174B1B68013B164A1360154B15
:103450001B68002B02DC144B01221A60134B1B6803
:10346000002B0BDD114B1B68013B104A13600F4B07
:103470001B68002B02DC0E4B01221A600D4B1B68EF
:10348000002B0BDD0B4B1B68013B0A4A1360094BF9
:103490001B68002B02DC084B01221A6000BFBD46EE
:1034A00080BC704784090020900900208809002012
:1034B000940900208C09002098090020FFF7B6FF2E
:1034C0000B480C490C4A002302E0D458C450043382
:1034D000C4188C42F9D3094A094C002301E0136057
:1034E0000432A242FBD306F0DDFDFEF779FC704703
:1034F000000000205C0200207CD300085C02002059
:10350000B0090020FEE7000080B500AF084B1B6843
:10351000074A43F010031360032000F06DFC002005
:1035200000F008F8FFF75CFC0023184680BD00BFE0
:103530000020024080B582B000AF7860124B1A685C
:10354000124B1B7819464FF47A73B3FBF1F3B2FBBD
:10355000F3F3184600F085FC0346002B01D001234D
:103560000EE07B680F2B0AD8002279684FF0FF30FD
:1035700000F04DFC064A7B681360002300E0012345
:1035800018460837BD4680BD800000208800002016
:103590008400002080B400AF054B1B781A46054B11
:1035A0001B681344034A136000BFBD4680BC7047CC
:1035B000880000209C09002080B400AF024B1B68EB
:1035C0001846BD4680BC70479C09002080B584B079
:1035D00000AF7860FFF7F0FFB8607B68FB60FB68C6
:1035E000B3F1FF3F05D00A4B1B781A46FB68134422
:1035F000FB6000BFFFF7E0FF0246BB68D31AFA6822
:103600009A42F7D800BF00BF1037BD4680BD00BF4B
:103610008800002080B586B000AF78600023FB757D
:1036200000233B610023BB600023FB607B68002B11
:1036300001D10123BEE07B689B68002B7B689B6AFD
:10364000002B09D17B680022DA627B68002283F8B4
:1036500024207868FFF7F6FB786800F0BFFA03468D
:10366000FB757B689B6A03F01003002B40F0998088
:10367000FB7D002B40F095807B689B6A23F4885388
:1036800023F0020343F002027B689A627B685A6867
:103690007B68DB691A437B681B7B5B001343BA685A
:1036A0001343BB607B689B68B3F5807F03D07B6866
:1036B0009B68012B02D14FF4807300E000233A692C
:1036C00013433B617B681B7D012B19D17B681B7BFE
:1036D000002B09D17B689B69013B5A033B6913436B
:1036E00043F400633B610BE07B689B6A43F020027C
:1036F0007B689A627B68DB6A43F001027B68DA626E
:103700007B681B685B6823F469417B681B683A69C6
:103710000A435A607B681B689A68284B13407A6892
:103720001268B9680B4393607B689B68B3F5807F30
:1037300003D07B689B68012B04D17B681B69013B2C
:103740001B05FB607B681B68DB6A23F470017B68E8
:103750001B68FA680A43DA627B681B689A68184B30
:103760001340BA689A420BD17B680022DA627B6808
:103770009B6A23F0030343F001027B689A6218E01E
:103780007B689B6A23F0120343F010027B689A6205
:103790007B68DB6A43F001027B68DA620123FB7518
:1037A00007E07B689B6A43F010027B689A62012302
:1037B000FB75FB7D18461837BD4680BDFDF7E1FF60
:1037C000FE0E1FFF80B584B000AF78600023FB734E
:1037D0007B6893F82430012B01D1022398E07B68A9
:1037E000012283F82420786800F09EF90346FB73D9
:1037F000FB7B002B40F087807B689B6A23F440733F
:1038000023F0010343F480727B689A627B681B6833
:10381000414A934205D1414B5B6803F47023002B6E
:1038200015D17B689B6A23F480127B689A627B685F
:103830001B685B6803F48063002B26D07B689B6A5F
:1038400023F4405343F480527B689A621DE07B6806
:103850009B6A43F480127B689A627B681B682F4ADC
:10386000934204D07B681B682B4A93420DD12B4BAB
:103870005B6803F48063002B07D07B689B6A23F4AA
:10388000405343F480527B689A627B689B6A03F4DE
:103890008053002B06D07B68DB6A23F006027B682E
:1038A000DA6202E07B680022DA627B68002283F839
:1038B00024207B681B686FF002021A607B681B681B
:1038C0009B6803F46023B3F5602F13D17B681B68FA
:1038D000114A934205D1114B5B6803F47023002B0E
:1038E00008D17B681B689A687B681B6842F4A00259
:1038F0009A600CE07B681B689A687B681B6842F4DE
:1039000080129A6003E07B68002283F82420FB7B0E
:1039100018461037BD4680BD0028014000240140F4
:1039200080B483B000AF78607B681B68DB6C18469E
:103930000C37BD4680BC704780B485B000AF78605E
:1039400039600023FB730023BB607B6893F824304D
:10395000012B01D10223DCE07B68012283F82420C3
:103960003B685B68062B1CD87B681B68596B3B68FF
:103970005A6813469B001344053B1F2202FA03F3C7
:10398000DB4319403B6818683B685A6813469B0044
:103990001344053B00FA03F27B681B680A435A6331
:1039A0003CE03B685B680C2B1CD87B681B68196B80
:1039B0003B685A6813469B001344233B1F2202FABC
:1039C00003F3DB4319403B6818683B685A681346A9
:1039D0009B001344233B00FA03F27B681B680A43F5
:1039E0001A631BE07B681B68D96A3B685A681346F8
:1039F0009B001344413B1F2202FA03F3DB431940AF
:103A00003B6818683B685A6813469B001344413B67
:103A100000FA03F27B681B680A43DA623B681B68A2
:103A2000092B1CD97B681B68D9683B681A68134648
:103A30005B0013441E3B072202FA03F3DB431940E9
:103A40003B6898683B681A6813465B0013441E3B4A
:103A500000FA03F27B681B680A43DA6019E07B68AE
:103A60001B6819693B681A6813465B0013440722F8
:103A700002FA03F3DB4319403B6898683B681A6815
:103A800013465B00134400FA03F27B681B680A4389
:103A90001A613B681B68102B03D03B681B68112B15
:103AA00032D17B681B681D4A934225D17B681B6815
:103AB0009B6803F40003002B26D17B681B689A687F
:103AC0007B681B6842F400029A603B681B68102BFD
:103AD0001AD1134B1B68134AA2FB03239A0C1346FB
:103AE0009B0013445B00BB6002E0BB68013BBB6012
:103AF000BB68002BF9D107E07B689B6A43F020028A
:103B00007B689A620123FB737B68002283F8242080
:103B1000FB7B18461437BD4680BC7047002401402B
:103B20008000002083DE1B4380B584B000AF786046
:103B30000023FB600023BB607B681B689B6803F06D
:103B40000103012B40D07B681B689A687B681B6867
:103B500042F001029A601F4B1B681F4AA2FB03231D
:103B60009B0CBB6002E0BB68013BBB60BB68002BE9
:103B7000F9D1FFF721FDF8601FE0FFF71DFD0246B8
:103B8000FB68D31A022B18D97B681B689B6803F06B
:103B90000103012B11D07B689B6A43F010027B6804
:103BA0009A627B68DB6A43F001027B68DA627B68B9
:103BB000002283F82420012307E07B681B689B68B0
:103BC00003F00103012BD8D1002318461037BD465E
:103BD00080BD00BF8000002083DE1B4380B584B021
:103BE00000AF78600023FB607B681B689B6803F074
:103BF0000103012B2ED17B681B689A687B681B68C8
:103C000022F001029A60FFF7D7FCF8601BE0FFF793
:103C1000D3FC0246FB68D31A022B14D97B681B68BD
:103C20009B6803F00103012B0DD17B689B6A43F075
:103C300010027B689A627B68DB6A43F001027B6852
:103C4000DA62012307E07B681B689B6803F00103CD
:103C5000012BDCD0002318461037BD4680BD000084
:103C600080B485B000AF78607B6803F00703FB6029
:103C70000C4BDB68BB60BA684FF6FF031340BB60B8
:103C8000FB681A02BB68134343F0BF6343F400337D
:103C9000BB60044ABB68D36000BF1437BD4680BC1C
:103CA000704700BF00ED00E080B400AF044BDB685C
:103CB0001B0A03F007031846BD4680BC704700BFCF
:103CC00000ED00E080B483B000AF0346FB7197F9CC
:103CD0000730002B0BDBFB7903F01F02064997F935
:103CE00007305B09012000FA02F241F8232000BFEF
:103CF0000C37BD4680BC704700E100E080B483B063
:103D000000AF03463960FB7197F90730002B0ADBDF
:103D10003B68DAB20C4997F907301201D2B20B4472
:103D200083F800230AE03B68DAB20849FB7903F024
:103D30000F03043B1201D2B20B441A7600BF0C37BA
:103D4000BD4680BC704700BF00E100E000ED00E030
:103D500080B489B000AFF860B9607A60FB6803F0A6
:103D60000703FB61FB69C3F10703042B28BF04238E
:103D7000BB61FB690433062B02D9FB69033B00E0FE
:103D800000237B614FF0FF32BB6902FA03F3DA4391
:103D9000BB681A407B699A404FF0FF317B6901FA9A
:103DA00003F3D9437B680B40134318462437BD46C1
:103DB00080BC704780B582B000AF78607B68013B03
:103DC000B3F1807F01D301230FE00A4A7B68013BF6
:103DD00053600F214FF0FF30FFF790FF054B00229B
:103DE0009A60044B07221A60002318460837BD4624
:103DF00080BD00BF10E000E080B582B000AF786009
:103E00007868FFF72DFF00BF0837BD4680BD80B53D
:103E100086B000AF0346B9607A60FB7300237B6114
:103E2000FFF742FF78617A68B9687869FFF790FF19
:103E3000024697F90F3011461846FFF75FFF00BFA3
:103E40001837BD4680BD80B582B000AF0346FB7118
:103E500097F907301846FFF735FF00BF0837BD4612
:103E600080BD80B582B000AF78607868FFF7A2FFB0
:103E7000034618460837BD4680BD000080B485B0B3
:103E800000AF78600023FB607B68002B01D1012329
:103E900043E07B681B681A46224B1344224AA2FB6C
:103EA00003231B099A007B681A647B681F4ADA6344
:103EB0007B68022283F821207B681B681B68FB60FB
:103EC000FB6823F47F5323F03003FB607B685A6860
:103ED0007B689B681A437B68DB681A437B681B69B5
:103EE0001A437B685B691A437B689B691A437B684A
:103EF000DB691343FA681343FB607B681B68FA684D
:103F00001A607B6800229A637B68012283F8212073
:103F10007B68002283F82020002318461437BD4612
:103F200080BC7047F8FFFDBFCDCCCCCC0000024078
:103F300080B586B000AFF860B9607A603B6000235E
:103F4000FB75FB6893F82030012B01D102234BE075
:103F5000FB68012283F82020FB6893F82130DBB254
:103F6000012B3AD1FB68022283F82120FB68002252
:103F70009A63FB681B681A68FB681B6822F00102E1
:103F80001A603B687A68B968F86800F0F8F9FB686D
:103F9000DB6A002B08D0FB681B681A68FB681B688B
:103FA00042F00E021A600FE0FB681B681A68FB689B
:103FB0001B6822F004021A60FB681B681A68FB6821
:103FC0001B6842F00A021A60FB681B681A68FB68EB
:103FD0001B6842F001021A6005E0FB68002283F8CA
:103FE00020200223FB75FB7D18461837BD4680BD97
:103FF00080B485B000AF78600023FB737B6893F8D2
:104000002130DBB2022B08D07B6804229A637B68E4
:10401000002283F82020012320E07B681B681A68B7
:104020007B681B6822F00E021A607B681B681A68A6
:104030007B681B6822F001021A607B681A6C7B683F
:10404000DB6B012101FA02F25A607B68012283F8DE
:1040500021207B68002283F82020FB7B1846143740
:10406000BD4680BC7047000080B584B000AF78606A
:104070000023FB737B6893F82130DBB2022B05D061
:104080007B6804229A630123FB7351E07B681B6801
:104090001A687B681B6822F00E021A607B681B6836
:1040A0001A687B681B6822F001021A607B681B6833
:1040B000224A934229D07B681B68214A934222D02E
:1040C0007B681B681F4A93421AD07B681B681E4A94
:1040D000934212D07B681B681C4A93420AD07B68CB
:1040E0001B681B4A934202D14FF480130EE04FF03D
:1040F00080730BE04FF4803308E04FF4805305E009
:104100004FF4807302E0102300E00123114A536052
:104110007B68012283F821207B68002283F820201D
:104120007B685B6B002B03D07B685B6B7868984780
:10413000FB7B18461037BD4680BD00BF080002401B
:104140001C0002403000024044000240580002407F
:104150006C0002400000024080B584B000AF78607F
:104160007B68DB6B1B68FB607B681B681B68BB6044
:104170007B681B6C04229A40FB681340002B4FD0D5
:10418000BB6803F00403002B4AD07B681B681B68E4
:1041900003F02003002B07D17B681B681A687B683B
:1041A0001B6822F004021A607B681B68664A93420F
:1041B00029D07B681B68654A934222D07B681B68C4
:1041C000634A93421AD07B681B68624A934212D0BA
:1041D0007B681B68604A93420AD07B681B685F4A11
:1041E000934202D14FF480030EE04FF080630BE066
:1041F0004FF4802308E04FF4804305E04FF48063E0
:1042000002E0402300E00423554A53607B68DB6AE8
:10421000002B00F094807B68DB6A786898478EE01A
:104220007B681B6C02229A40FB681340002B56D01F
:10423000BB6803F00203002B51D07B681B681B682E
:1042400003F02003002B0BD17B681B681A687B6886
:104250001B6822F00A021A607B68012283F8212081
:104260007B681B68384A934229D07B681B68374AB1
:10427000934222D07B681B68354A93421AD07B68F0
:104280001B68344A934212D07B681B68324A9342BF
:104290000AD07B681B68314A934202D14FF4001365
:1042A0000EE04FF000730BE04FF4003308E04FF4E2
:1042B000005305E04FF4007302E0202300E00223E6
:1042C000274A53607B68002283F820207B689B6A22
:1042D000002B34D07B689B6A786898472FE07B6816
:1042E0001B6C08229A40FB681340002B28D0BB6847
:1042F00003F00803002B23D07B681B681A687B68D7
:104300001B6822F00E021A607B681A6C7B68DB6BFC
:10431000012101FA02F25A607B6801229A637B68EC
:10432000012283F821207B68002283F820207B680B
:104330001B6B002B04D07B681B6B7868984700BF11
:1043400000BF1037BD4680BD080002401C0002407F
:104350003000024044000240580002406C0002401D
:104360000000024080B483B000AF78607B6893F8AF
:104370002130DBB218460C37BD4680BC704780B494
:1043800085B000AFF860B9607A603B60FB681A6C7A
:10439000FB68DB6B012101FA02F25A60FB681B68C3
:1043A0003A685A60FB685B68102B08D1FB681B6891
:1043B0007A689A60FB681B68BA68DA6007E0FB6895
:1043C0001B68BA689A60FB681B687A68DA6000BF8D
:1043D0001437BD4680BC704780B48BB000AF7860A6
:1043E000396000237B6200233B6269E101227B6A22
:1043F00002FA03F3FB613B681B68FA691340BB6177
:10440000BA69FB699A4240F058813B685B689A4AF6
:1044100093425ED0984A934275D8984A934258D0B6
:10442000964A93426FD8964A934252D0944A934206
:1044300069D8944A93424CD0924A934263D8924AA4
:10444000934246D0904A93425DD8122B2AD8122B21
:1044500059D801A252F823F0D3440008AD44000813
:10446000BF4400080145000807450008074500084B
:1044700007450008074500080745000807450008EC
:1044800007450008074500080745000807450008DC
:10449000074500080745000807450008B54400081F
:1044A000C9440008794A934213D02CE03B68DB688A
:1044B0003B6229E03B68DB6804333B6224E03B68F5
:1044C000DB6808333B621FE03B68DB680C333B6210
:1044D0001AE03B689B68002B02D104233B6213E087
:1044E0003B689B68012B05D108233B627B68FA6916
:1044F0001A6109E008233B627B68FA695A6103E0AC
:1045000000233B6200E000BFBB69FF2B01D87B6842
:1045100001E07B6804337B61BB69FF2B02D87B6AB7
:104520009B0002E07B6A083B9B003B617B691A6849
:104530000F213B6901FA03F3DB431A40396A3B69F7
:1045400001FA03F31A437B691A603B685B6803F066
:104550008053002B00F0B1804D4B9B694C4A43F0D7
:10456000010393614A4B9B6903F00103BB60BB6885
:10457000484A7B6A9B08023352F82330FB607B6A0F
:1045800003F003039B000F2202FA03F3DB43FA68F4
:104590001340FB607B68404A934213D07B683F4ADC
:1045A00093420DD07B683E4A934207D07B683D4AD8
:1045B000934201D1032306E0042304E0022302E036
:1045C000012300E000237A6A02F003029200934084
:1045D000FA681343FB602F497B6A9B080233FA6831
:1045E00041F823203B685B6803F48013002B06D05E
:1045F0002D4B9A682C49BB6913438B6006E02A4B0C
:104600009A68BB69DB43284913408B603B685B6851
:1046100003F40013002B06D0234BDA682249BB6950
:104620001343CB6006E0204BDA68BB69DB431E49CD
:104630001340CB603B685B6803F40033002B06D06B
:10464000194B5A681849BB6913434B6006E0164B77
:104650005A68BB69DB43144913404B603B685B6895
:1046600003F48033002B21D00F4B1A680E49BB692D
:1046700013430B6021E000BF000032100000311036
:104680000000221000002110000012100000111084
:10469000001002400000014000080140000C0140F1
:1046A0000010014000140140000401400B4B1A6847
:1046B000BB69DB43094913400B607B6A01337B62B2
:1046C0003B681A687B6A22FA03F3002B7FF48EAEF4
:1046D00000BF00BF2C37BD4680BC704700040140BE
:1046E00080B485B000AF78600B467B807B689A68A9
:1046F0007B881340002B02D00123FB7301E00023D1
:10470000FB73FB7B18461437BD4680BC704780B4F2
:1047100083B000AF78600B467B8013467B707B785C
:10472000002B03D07A887B681A6103E07B881A0427
:104730007B681A6100BF0C37BD4680BC7047000023
:1047400080B582B000AF0346FB80084B5A69FB88F6
:104750001340002B06D0054AFB885361FB8818469E
:1047600000F006F800BF0837BD4680BD00040140D8
:1047700080B483B000AF0346FB8000BF0C37BD465A
:1047800080BC704780B584B000AF78607B68002B38
:1047900001D101232BE17B6893F83D30DBB2002B84
:1047A00006D17B68002283F83C207868FEF786FB00
:1047B0007B68242283F83D207B681B681A687B682D
:1047C0001B6822F001021A607B681B681A687B680C
:1047D0001B6842F400421A607B681B681A687B6899
:1047E0001B6822F400421A6003F0F2F9F8607B685B
:1047F0005B68814A934207D8FB68804A934294BF22
:1048000001230023DBB206E0FB687D4A934294BF9C
:1048100001230023DBB2002B01D00123E7E0FB687A
:10482000784AA2FB03239B0CBB607B681B685B6818
:1048300023F03F017B681B68BA680A435A607B68B3
:104840001B681B6A23F03F017B685B686A4A9342DE
:1048500002D8BB68013309E0BB684FF4967202FBD3
:1048600003F3694AA2FB03239B0901337A681268A8
:104870000B4313627B681B68DB6923F44F4222F011
:10488000FF027B685B685C498B4219D8FB68591E44
:104890007B685B685B00B1FBF3F3591C40F6FC736B
:1048A0000B40002B0AD0FB68591E7B685B685B00DD
:1048B000B1FBF3F30133C3F30B0351E004234FE0E7
:1048C0007B689B68002B11D1FB68581E7B68596878
:1048D0000B465B000B44B0FBF3F30133C3F30B0354
:1048E000002B0CBF01230023DBB212E0FB68581E33
:1048F0007B6859680B469B000B4499000B44B0FB46
:10490000F3F30133C3F30B03002B0CBF012300238C
:10491000DBB2002B01D0012322E07B689B68002BD7
:104920000ED1FB68581E7B6859680B465B000B4430
:10493000B0FBF3F30133C3F30B0343F400430FE085
:10494000FB68581E7B6859680B469B000B44990016
:104950000B44B0FBF3F30133C3F30B0343F44043C5
:10496000796809681343CB617B681B681B6823F077
:10497000C0017B68DA697B681B6A1A437B681B6825
:104980000A431A607B681B689B6823F4034323F087
:10499000FF037A6811697A68D26811437A681268ED
:1049A0000B4393607B681B68DB6823F0FF017B6827
:1049B0005A697B689B691A437B681B680A43DA6003
:1049C0007B681B681A687B681B6842F001021A60EA
:1049D0007B6800221A647B68202283F83D207B6874
:1049E00000221A637B68002283F83E2000231846C9
:1049F0001037BD4680BD00BFA08601007F841E0029
:104A0000FF083D0083DE1B43D34D621080B483B0AA
:104A100000AF78607B681B685B6903F08003802BC4
:104A200003D17B681B6800221A6100BF0C37BD46AA
:104A300080BC704780B588B002AFF8607A601A46D3
:104A40000B467B8113463B81FEF7B6FD7861FB6820
:104A500093F83D30DBB2202B40F0E0807B6900937F
:104A6000192301227049F86802F066FA0346002B08
:104A700001D00223D3E0FB6893F83C30012B01D135
:104A80000223CCE0FB68012283F83C20FB681B6812
:104A90001B6803F00103012B07D0FB681B681A6831
:104AA000FB681B6842F001021A60FB681B681A6809
:104AB000FB681B6822F400621A60FB68212283F8FD
:104AC0003D20FB68102283F83E20FB6800221A6418
:104AD000FB687A685A62FB683A895A85FB685B8D85
:104AE0009AB2FB681A85FB68504ADA6279897B6959
:104AF0003A6AF86802F028F80346002B01D0012337
:104B00008DE000233B61FB681B685B693B61FB68D0
:104B10001B689B693B613B6966E07A69396AF868A2
:104B200002F024FB0346002B0DD0FB681B6C042B0A
:104B300007D1FB681B681A68FB681B6842F40072A7
:104B40001A6001236BE0FB685B6A1A78FB681B68DC
:104B50001A61FB685B6A5A1CFB685A62FB685B8DD2
:104B60009BB2013B9AB2FB685A85FB681B8D013BE7
:104B70009AB2FB681A85FB681B685B6903F0040343
:104B8000042B1BD1FB681B8D002B17D0FB685B6AC5
:104B90001A78FB681B681A61FB685B6A5A1CFB6821
:104BA0005A62FB685B8D9BB2013B9AB2FB685A85E7
:104BB000FB681B8D013B9AB2FB681A857A69396ADA
:104BC000F86802F01BFB0346002B0DD0FB681B6C42
:104BD000042B07D1FB681B681A68FB681B6842F44A
:104BE00000721A6001231AE0FB681B8D002B94D120
:104BF000FB681B681A68FB681B6842F400721A6045
:104C0000FB68202283F83D20FB68002283F83E20C9
:104C1000FB68002283F83C20002300E002231846B2
:104C20001837BD4680BD00BF020010000000FFFF26
:104C300080B58CB002AFF8607A601A460B467B8173
:104C400013463B8100233B62FEF7B6FC7862FB68AB
:104C500093F83D30DBB2202B40F04B827B6A00930F
:104C6000192301227F49F86802F066F90346002BF8
:104C700001D002233EE2FB6893F83C30012B01D1C6
:104C8000022337E2FB68012283F83C20FB681B68A3
:104C90001B6803F00103012B07D0FB681B681A682F
:104CA000FB681B6842F001021A60FB681B681A6807
:104CB000FB681B6822F400621A60FB68222283F8FA
:104CC0003D20FB68102283F83E20FB6800221A6416
:104CD000FB687A685A62FB683A895A85FB685B8D83
:104CE0009AB2FB681A85FB685F4ADA6279897B6A47
:104CF0003A6BF86801F0AAFF0346002B01D00123AC
:104D0000F8E1FB681B8D002B13D10023FB61FB68CE
:104D10001B685B69FB61FB681B689B69FB61FB6946
:104D2000FB681B681A68FB681B6842F400721A6013
:104D3000CCE1FB681B8D012B1ED1FB681B681A6838
:104D4000FB681B6822F480621A6072B600BF002301
:104D5000BB61FB681B685B69BB61FB681B689B6987
:104D6000BB61BB69FB681B681A68FB681B6842F47F
:104D700000721A6062B635E0FB681B8D022B1ED1F3
:104D8000FB681B681A68FB681B6842F400621A60C3
:104D900072B600BF00237B61FB681B685B697B61A7
:104DA000FB681B689B697B617B69FB681B681A68F1
:104DB000FB681B6822F480621A6062B612E0FB682E
:104DC0001B681A68FB681B6842F480621A60002343
:104DD0003B61FB681B685B693B61FB681B689B6907
:104DE0003B613B6972E1FB681B8D032B00F21F8165
:104DF000FB681B8D012B23D17A6A396BF86802F0AE
:104E000077FA0346002B01D0012373E1FB681B688E
:104E10001A69FB685B6AD2B21A70FB685B6A5A1C3B
:104E2000FB685A62FB681B8D013B9AB2FB681A85CE
:104E3000FB685B8D9BB2013B9AB2FB685A8545E1EA
:104E4000FB681B8D022B52D17B6A00933B6B0022C7
:104E50000649F86802F070F80346002B08D00123D9
:104E600048E100BF020010000000FFFF0400010045
:104E700072B600BFFB681B681A68FB681B6842F4C7
:104E800000721A60FB681B681A69FB685B6AD2B221
:104E90001A70FB685B6A5A1CFB685A62FB681B8DC0
:104EA000013B9AB2FB681A85FB685B8D9BB2013BA4
:104EB0009AB2FB685A8562B600BFFB681B681A6924
:104EC000FB685B6AD2B21A70FB685B6A5A1CFB68AB
:104ED0005A62FB681B8D013B9AB2FB681A85FB681E
:104EE0005B8D9BB2013B9AB2FB685A85EEE07B6A10
:104EF00000933B6B00228149F86802F01DF80346DD
:104F0000002B01D00123F5E0FB681B681A68FB68E1
:104F10001B6822F480621A6072B600BFFB681B68CF
:104F20001A69FB685B6AD2B21A70FB685B6A5A1C2A
:104F3000FB685A62FB681B8D013B9AB2FB681A85BD
:104F4000FB685B8D9BB2013B9AB2FB685A856C4B48
:104F50001B68DB086B4AA2FB03231A0A13469B005B
:104F60001344DA00D31A3B623B6A013B3B623B6A63
:104F7000002B18D1FB6800221A63FB68202283F8FB
:104F80003D20FB68002283F83E20FB681B6C43F049
:104F90002002FB681A6462B600BFFB68002283F837
:104FA0003C200123A6E0FB681B685B6903F0040357
:104FB000042BD9D1FB681B681A68FB681B6842F494
:104FC00000721A60FB681B681A69FB685B6AD2B2E0
:104FD0001A70FB685B6A5A1CFB685A62FB681B8D7F
:104FE000013B9AB2FB681A85FB685B8D9BB2013B63
:104FF0009AB2FB685A8562B600BFFB681B681A69E3
:10500000FB685B6AD2B21A70FB685B6A5A1CFB6869
:105010005A62FB681B8D013B9AB2FB681A85FB68DC
:105020005B8D9BB2013B9AB2FB685A854EE07A6A6F
:10503000396BF86802F05CF90346002B01D00123BC
:1050400058E0FB681B681A69FB685B6AD2B21A7089
:10505000FB685B6A5A1CFB685A62FB681B8D013B4C
:105060009AB2FB681A85FB685B8D9BB2013B9AB2D2
:10507000FB685A85FB681B685B6903F00403042B1B
:1050800024D1FB681B8D032B07D1FB681B681A68B2
:10509000FB681B6822F480621A60FB681B681A694F
:1050A000FB685B6AD2B21A70FB685B6A5A1CFB68C9
:1050B0005A62FB681B8D013B9AB2FB681A85FB683C
:1050C0005B8D9BB2013B9AB2FB685A85FB681B8DD6
:1050D000002B7FF488AEFB68202283F83D20FB681C
:1050E000002283F83E20FB68002283F83C20002346
:1050F00000E0022318462837BD4680BD04000100A9
:105100008000002089B5F81480B58AB002AFF8603D
:105110007A603B600B467B81FEF74EFAF861002314
:10512000BB61FB6893F83D30DBB2202B40F011816E
:10513000FB690093192301228849F86801F0FCFEFD
:105140000346002B01D0022304E1FB6893F83C30B6
:10515000012B01D10223FDE0FB68012283F83C20F2
:10516000FB681B681B6803F00103012B07D0FB6879
:105170001B681A68FB681B6842F001021A60FB6832
:105180001B681A68FB681B6822F400621A60FB68DF
:10519000242283F83D20FB6800221A64FB68704AD1
:1051A000DA62FB681B681A68FB681B6842F480724D
:1051B0001A60FB6900933B6800224FF00111F86808
:1051C00001F0BAFE0346002B0DD0FB681B681B687C
:1051D00003F48073B3F5807F03D1FB684FF4007252
:1051E0001A640323B6E07B89DBB21A46FB681B68AE
:1051F00002F0FE021A61FEF7DFF9F861FB681B6836
:105200005B6903F00203022B0CBF01230023DBB216
:10521000FB75FB681B685B6903F48063B3F5806F03
:105220000CBF01230023DBB2BB7525E0FEF7C4F9F8
:105230000246FB69D31A3A689A4202D33B68002BB4
:1052400003D1FB68A02283F83D20FB681B685B69E3
:1052500003F00203022B0CBF01230023DBB2FB751A
:10526000FB681B685B6903F48063B3F5806F0CBF58
:1052700001230023DBB2BB75FB6893F83D30DBB242
:10528000A02B05D0FB7D002B02D1BB7D002BCDD008
:10529000FB68202283F83D20FB681B685B6903F0F4
:1052A0000203022B29D1FB681B681A68FB681B6884
:1052B00042F400721A6000233B61FB681B685B6963
:1052C0003B61FB681B689B693B613B69FB69009321
:1052D000192301222149F86801F02EFE0346002B14
:1052E00001D0012336E0FB68202283F83D20FB68D3
:1052F000002283F83C2000232CE0FB681B681A681E
:10530000FB681B6842F400721A60FB681B686FF44C
:1053100080625A61FB690093192301220F49F868E2
:1053200001F00AFE0346002B01D0012312E0BB6905
:105330000133BB61BA697B689A42FFF432AFFB6804
:10534000202283F83D20FB68002283F83C200123C3
:1053500000E0022318462037BD4680BD0200100041
:105360000000FFFF80B588B000AF78600023BB610C
:105370007B681B685B687B617B68DB6A3B617B6881
:1053800093F83E30FB737B6893F83D30BB73FB7B37
:10539000102B03D0FB7B402B40F0C1807B681B6847
:1053A0009B69BB617B681B685B69FB61FB6903F000
:1053B0000103002B0DD13B69B3F52A0F03D03B69E4
:1053C000B3F12A4F01D1012300E00023012B00F0AB
:1053D0003281FB6903F00103002B0CD07B695B0A6F
:1053E00003F00103002B06D0786802F00CF878680F
:1053F00000F085FD92E0FB69DB0803F00103002B60
:1054000009D07B695B0A03F00103002B03D07868A5
:1054100000F0FAFD82E0FB695B0803F00103002B5A
:1054200009D07B695B0A03F00103002B03D0786885
:1054300000F013FE72E0BB699B0803F00103002B30
:105440003BD07B681B685B6803F40063B3F5006FB7
:1054500000F0F380FB69DB0903F00103002B0FD0A0
:105460007B699B0A03F00103002B09D0FB699B08B1
:1054700003F00103002B03D1786800F0F1F94DE04F
:10548000FB699B0803F00103002B00F0D6807B69C9
:105490005B0A03F00103002B00F0CF80BB7B212BC4
:1054A00003D1786800F078FAC7E0FB7B402B40F02E
:1054B000C480786800F0E6FABFE07B681B685B6830
:1054C00003F40063B3F5006F00F0B780FB699B093C
:1054D00003F00103002B0FD07B699B0A03F001034B
:1054E000002B09D0FB699B0803F00103002B03D1BB
:1054F000786800F05FFB11E0FB699B0803F0010393
:10550000002B00F09A807B695B0A03F00103002BFB
:1055100000F09380786800F008FC8EE08DE07B68F6
:105520001B6C002B04D07B681B685B69FB6107E088
:105530007B681B689B69BB617B681B685B69FB615F
:10554000FB695B0803F00103002B12D07B695B0A47
:1055500003F00103002B0CD07B681B6C002B03D0E5
:105560007B681B689B69BB61B969786800F0CCFFF8
:1055700066E0FB691B0903F00103002B09D07B697E
:105580005B0A03F00103002B03D0786801F006F8F2
:1055900056E0BB7B212B02D0BB7B292B25D1FB699D
:1055A000DB0903F00103002B0FD07B699B0A03F09A
:1055B0000103002B09D0FB699B0803F00103002BBA
:1055C00003D1786800F0E4FE39E0FB699B0803F042
:1055D0000103002B33D07B695B0A03F00103002B2E
:1055E0002DD0786800F011FF29E0FB699B0903F0DA
:1055F0000103002B0FD07B699B0A03F00103002BF2
:1056000009D0FB699B0803F00103002B03D17868E4
:1056100000F01BFF14E0FB699B0803F00103002B63
:105620000ED07B695B0A03F00103002B08D0786879
:1056300000F049FF04E000BF02E000BF00E000BF4F
:105640002037BD4680BD80B58AB000AF78607B68EA
:105650001B685B693B627B681B685B68FB610023BE
:105660007B627B6893F83E30FB763B6A1B0A03F053
:105670000103002B16D0FB691B0A03F00103002B6A
:1056800010D07B6A43F001037B627B681B686FF478
:1056900080725A617B681B681A687B681B6842F4D9
:1056A00000421A603B6A5B0A03F00103002B0ED034
:1056B000FB691B0A03F00103002B08D07B6A43F04F
:1056C00002037B627B681B686FF400725A613B6A5D
:1056D0009B0A03F00103002B3FD0FB691B0A03F078
:1056E0000103002B39D0FB7EBB767B685B8D9BB2C0
:1056F0007B617B6893F83D30FB747B681B6BFB60C0
:10570000BB7E202B12D17B69002B0FD1FB7C212B80
:1057100008D0FB7C292B05D0FB7C282B06D1FB680D
:10572000212B03D1786801F069F816E07B681B68CB
:105730006FF480625A617B6A43F004037B62FB7EF4
:10574000102B02D0FB7E402B07D17B681B681A68A8
:105750007B681B6842F400721A603B6ADB0A03F044
:105760000103002B0ED0FB691B0A03F00103002B81
:1057700008D07B6A43F008037B627B681B686FF488
:1057800000625A617B6A002B08D07B681A6C7B6AC6
:105790001A437B681A64786801F0A4F800BF2837C0
:1057A000BD4680BD80B483B000AF786000BF0C37C9
:1057B000BD4680BC704780B483B000AF786000BF46
:1057C0000C37BD4680BC704780B483B000AF7860B2
:1057D00000BF0C37BD4680BC704780B483B000AFBB
:1057E000786000BF0C37BD4680BC704780B483B082
:1057F00000AF78600B46FB7013463B8000BF0C3750
:10580000BD4680BC704780B483B000AF786000BFF5
:105810000C37BD4680BC704780B483B000AF786061
:1058200000BF0C37BD4680BC704780B483B000AF6A
:10583000786000BF0C37BD4680BC704780B483B031
:1058400000AF786000BF0C37BD4680BC704780B4A5
:1058500083B000AF786000BF0C37BD4680BC704796
:1058600080B584B000AF78607B6893F83D30FB73FF
:105870007B6893F83E30BB737B68DB6ABB607B68F8
:105880001B8D002B50D1FB7B212B4DD1BB68082BEE
:105890001DD0BB68202B1AD0BB6813F5803F16D0F3
:1058A0007B681B685A687B681B6822F4E0625A6058
:1058B0007B6811221A637B68002283F83E207B6894
:1058C000202283F83D207868FFF76CFF60E07B685A
:1058D0001B685A687B681B6822F4E0625A607B6828
:1058E0001B681A687B681B6842F400721A607B6848
:1058F00000221A637B68202283F83D207B6893F89E
:105900003E30DBB2402B07D17B68002283F83E207B
:105910007868FFF781FF3BE07B68002283F83E2038
:105920007868FFF73FFF33E0FB7B212B05D0BB7B83
:10593000402B2DD1FB7B222B2AD17B685B8D9BB228
:10594000002B08D17B681B685A687B681B6822F4AF
:1059500080625A601CE07B6893F83E30DBB2402BDB
:1059600003D1786800F08EF812E07B685B6A1A78E1
:105970007B681B681A617B685B6A5A1C7B685A6289
:105980007B685B8D9BB2013B9AB27B685A85FFE7CF
:1059900000BF1037BD4680BD80B584B000AF7860D1
:1059A0007B68DB6AFB607B6893F83D30DBB2212BC0
:1059B00064D17B685B8D9BB2002B12D07B685B6AE5
:1059C0001A787B681B681A617B685B6A5A1C7B6863
:1059D0005A627B685B8D9BB2013B9AB27B685A85A9
:1059E0004CE0FB68082B1DD0FB68202B1AD0FB680D
:1059F00013F5803F16D07B681B685A687B681B686C
:105A000022F4E0625A607B6811221A637B680022EC
:105A100083F83E207B68202283F83D207868FFF7DA
:105A2000C1FE2BE07B681B685A687B681B6822F408
:105A3000E0625A607B681B681A687B681B6842F4E6
:105A400000721A607B6800221A637B68202283F848
:105A50003D207B6893F83E30DBB2402B07D17B685A
:105A6000002283F83E207868FFF7D6FE06E07B68C8
:105A7000002283F83E207868FFF794FE00BF1037BD
:105A8000BD4680BD80B584B000AF78607B6893F878
:105A90003D30FB737B681B6D002B1DD17B68DB6C7D
:105AA000012B0BD17B689B6CDAB27B681B681A6197
:105AB0007B681B6D9A1C7B681A6577E07B689B6C22
:105AC0009BB21B12DAB27B681B681A617B681B6D84
:105AD0005A1C7B681A6569E07B681B6D012B0BD132
