:020000040800F2
:1000000000500020A1210008CD1E0008D31E0008CA
:10001000D91E0008DF1E0008E51E000800000000D1
:10002000000000000000000000000000EB1E0008BF
:10003000F71E000800000000031F00080F1F000843
:10004000E9210008E9210008E9210008E921000868
:10005000E9210008E9210008E9210008E921000858
:10006000E9210008E9210008E9210008E921000848
:100070001D1F0008E9210008E9210008E921000806
:10008000E9210008E9210008E9210008E921000828
:10009000E9210008E9210008E9210008E921000818
:1000A000E9210008E9210008E9210008E921000808
:1000B000311F0008E9210008E9210008451F000858
:1000C000591F0008E9210008E9210008E92100087A
:1000D000E9210008E92100086D1F0008E921000856
:1000E000811F0008E9210008E92100080000000044
:1000F0000000000000000000000000000000000000
:0C01000000000000000000005FF808F1A3
:1001100010B5054C237833B9044B13B10448AFF341
:1001200000800123237010BDF801002000000000B2
:10013000C8BC000808B5034B1BB103490348AFF323
:10014000008008BD00000000FC010020C8BC0008C1
:10015000034613F8012B002AFBD1181A0138704707
:1001600081F0004102E000BF83F0004330B54FEA68
:1001700041044FEA430594EA050F08BF90EA020FD5
:100180001FBF54EA000C55EA020C7FEA645C7FEA68
:10019000655C00F0E2804FEA5454D4EB5555B8BF8B
:1001A0006D420CDD2C4480EA020281EA030382EAFC
:1001B000000083EA010180EA020281EA0303362D8E
:1001C00088BF30BD11F0004F4FEA01314FF4801C61
:1001D0004CEA113102D0404261EB410113F0004F73
:1001E0004FEA03334CEA133302D0524263EB43032A
:1001F00094EA050F00F0A780A4F10104D5F1200EC8
:100200000DDB02FA0EFC22FA05F2801841F1000122
:1002100003FA0EF2801843FA05F359410EE0A5F1F6
:1002200020050EF1200E012A03FA0EFC28BF4CF027
:10023000020C43FA05F3C01851EBE37101F00045DD
:1002400007D54FF0000EDCF1000C7EEB00006EEBEA
:100250000101B1F5801F1BD3B1F5001F0CD3490874
:100260005FEA30004FEA3C0C04F101044FEA4452CB
:1002700012F5800F80F09A80BCF1004F08BF5FEA52
:10028000500C50F1000041EB045141EA050130BD32
:100290005FEA4C0C404141EB0101013C28BFB1F544
:1002A000801FE9D291F0000F04BF01460020B1FA8F
:1002B00081F308BF2033A3F10B03B3F120020CDA62
:1002C0000C3208DD02F1140CC2F10C0201FA0CF040
:1002D00021FA02F10CE002F11402D8BFC2F1200CA5
:1002E00001FA02F120FA0CFCDCBF41EA0C0190405B
:1002F000E41AA2BF01EB0451294330BD6FEA0404A4
:100300001F3C1CDA0C340EDC04F11404C4F120028E
:1003100020FA04F001FA02F340EA030021FA04F3A0
:1003200045EA030130BDC4F10C04C4F1200220FAF7
:1003300002F001FA04F340EA0300294630BD21FA35
:1003400004F0294630BD94F0000F83F4801306BFFB
:1003500081F480110134013D4EE77FEA645C18BFEF
:100360007FEA655C29D094EA050F08BF90EA020F86
:1003700005D054EA000C04BF1946104630BD91EA7E
:10038000030F1EBF0021002030BD5FEA545C05D181
:100390004000494128BF41F0004130BD14F58004C0
:1003A0003CBF01F5801130BD01F0004545F0FE4134
:1003B00041F470014FF0000030BD7FEA645C1ABF69
:1003C000194610467FEA655C1CBF0B46024650EAA0
:1003D000013406BF52EA033591EA030F41F40021CC
:1003E00030BD00BF90F0000F04BF0021704730B552
:1003F0004FF4806404F132044FF000054FF0000127
:1004000050E700BF90F0000F04BF0021704730B5E7
:100410004FF4806404F1320410F0004548BF4042BC
:100420004FF000013EE700BF42004FEAE2014FEA11
:1004300031014FEA02701FBF12F07F4393F07F4FEC
:1004400081F06051704732F07F4208BF704793F0EF
:100450007F4F04BF41F40021704730B54FF4607402
:1004600001F0004521F000411CE700BF50EA010205
:1004700008BF704730B54FF000050AE050EA0102AE
:1004800008BF704730B511F0004502D5404261EB1E
:1004900041014FF4806404F132045FEA915C3FF45F
:1004A000D8AE4FF003025FEADC0C18BF03325FEAFC
:1004B000DC0C18BF033202EBDC02C2F1200300FAAD
:1004C00003FC20FA02F001FA03FE40EA0E0021FAD2
:1004D00002F11444BDE600BF70B54FF0FF0C4CF4C0
:1004E000E06C1CEA11541DBF1CEA135594EA0C0F72
:1004F00095EA0C0F00F0DEF82C4481EA030621EAAD
:100500004C5123EA4C5350EA013518BF52EA0335E7
:1005100041F4801143F4801338D0A0FB02CE4FF099
:100520000005E1FB02E506F00042E0FB03E54FF0C9
:100530000006E1FB03569CF0000F18BF4EF0010EC1
:10054000A4F1FF04B6F5007F64F5407404D25FEABD
:100550004E0E6D4146EB060642EAC62141EA555170
:100560004FEAC52040EA5E504FEACE2EB4F1FD0CB2
:1005700088BFBCF5E06F1ED8BEF1004F08BF5FEA30
:10058000500E50F1000041EB045170BD06F00046E2
:1005900046EA010140EA020081EA0301B4EB5C048F
:1005A000C2BFD4EB0C0541EA045170BD41F4801187
:1005B0004FF0000E013C00F3AB8014F1360FDEBFAC
:1005C000002001F0004170BDC4F10004203C35DA88
:1005D0000C341BDC04F11404C4F1200500FA05F30B
:1005E00020FA04F001FA05F240EA020001F00042AC
:1005F00021F0004110EBD37021FA04F642EB060122
:100600005EEA430E08BF20EAD37070BDC4F10C044B
:10061000C4F1200500FA04F320FA05F001FA04F20F
:1006200040EA020001F0004110EBD37041F10001FB
:100630005EEA430E08BF20EAD37070BDC4F1200506
:1006400000FA05F24EEA020E20FA04F301FA05F26E
:1006500043EA020321FA04F001F0004121FA04F216
:1006600020EA020000EBD3705EEA430E08BF20EAE6
:10067000D37070BD94F0000F0FD101F00046400020
:1006800041EB010111F4801F08BF013CF7D041EAA2
:10069000060195F0000F18BF704703F000465200A6
:1006A00043EB030313F4801F08BF013DF7D043EA77
:1006B0000603704794EA0C0F0CEA135518BF95EA2D
:1006C0000C0F0CD050EA410618BF52EA4306D1D1B4
:1006D00081EA030101F000414FF0000070BD50EAD3
:1006E000410606BF1046194652EA430619D094EA5D
:1006F0000C0F02D150EA013613D195EA0C0F05D147
:1007000052EA03361CBF104619460AD181EA03019A
:1007100001F0004141F0FE4141F470014FF0000052
:1007200070BD41F0FE4141F4780170BD70B54FF0ED
:10073000FF0C4CF4E06C1CEA11541DBF1CEA13556D
:1007400094EA0C0F95EA0C0F00F0A7F8A4EB05044F
:1007500081EA030E52EA03354FEA013100F0888046
:100760004FEA03334FF0805545EA131343EA12630F
:100770004FEA022245EA111545EA10654FEA0026C4
:100780000EF000419D4208BF964244F1FD0404F57D
:10079000407402D25B084FEA3202B61A65EB0305D9
:1007A0005B084FEA32024FF480104FF4002CB6EB96
:1007B000020E75EB030E22BFB61A754640EA0C0016
:1007C0005B084FEA3202B6EB020E75EB030E22BF56
:1007D000B61A754640EA5C005B084FEA3202B6EB97
:1007E000020E75EB030E22BFB61A754640EA9C0056
:1007F0005B084FEA3202B6EB020E75EB030E22BF26
:10080000B61A754640EADC0055EA060E18D04FEAE3
:10081000051545EA16754FEA06164FEAC30343EA83
:1008200052734FEAC2025FEA1C1CC0D111F4801F50
:100830000BD141EA00014FF000004FF0004CB6E749
:1008400011F4801F04BF01430020B4F1FD0C88BFE8
:10085000BCF5E06F3FF6AFAEB5EB030C04BFB6EBF3
:10086000020C5FEA500C50F1000041EB045170BDE6
:100870000EF0004E4EEA113114EB5C04C2BFD4EB13
:100880000C0541EA045170BD41F480114FF0000E97
:10089000013C90E645EA060E8DE60CEA135594EA13
:1008A0000C0F08BF95EA0C0F3FF43BAF94EA0C0F16
:1008B0000AD150EA01347FF434AF95EA0C0F7FF48B
:1008C00025AF104619462CE795EA0C0F06D152EADF
:1008D00003353FF4FDAE1046194622E750EA4106C3
:1008E00018BF52EA43067FF4C5AE50EA41047FF4D4
:1008F0000DAF52EA43057FF4EBAE12E74FF0FF3C39
:1009000006E000BF4FF0010C02E000BF4FF0010C09
:100910004DF804CD4FEA410C7FEA6C5C4FEA430C82
:1009200018BF7FEA6C5C1BD001B050EA410C0CBFD1
:1009300052EA430C91EA030F02BF90EA020F002033
:10094000704710F1000F91EA030F58BF994208BF9A
:1009500090422CBFD8176FEAE37040F00100704757
:100960004FEA410C7FEA6C5C02D150EA013C07D1AE
:100970004FEA430C7FEA6C5CD6D152EA033CD3D0F9
:100980005DF8040B704700BF8446104662468C46F3
:100990001946634600E000BF01B5FFF7B7FF002826
:1009A00048BF10F1000F01BD4DF808EDFFF7F4FF4F
:1009B0000CBF012000205DF808FB00BF4DF808EDDA
:1009C000FFF7EAFF34BF012000205DF808FB00BFFD
:1009D0004DF808EDFFF7E0FF94BF012000205DF81F
:1009E00008FB00BF4DF808EDFFF7CEFF94BF0120D4
:1009F00000205DF808FB00BF4DF808EDFFF7C4FFCD
:100A000034BF012000205DF808FB00BF4FEA410C15
:100A10007FEA6C5C02D150EA013C0AD14FEA430CF8
:100A20007FEA6C5C02D152EA033C02D14FF0000035
:100A300070474FF0010070474FEA410212F5001273
:100A400015D211D56FF47873B3EB625212D94FEA15
:100A5000C12343F0004343EA505311F0004F23FAFF
:100A600002F018BF404270474FF00000704750EA54
:100A7000013005D111F0004008BF6FF00040704711
:100A80004FF00000704700BF4A0011D212F500126B
:100A900011D20DD56FF47873B3EB62520ED44FEAD6
:100AA000C12343F0004343EA505323FA02F0704756
:100AB0004FF00000704750EA013002D14FF0FF3094
:100AC00070474FF0000070474FEA4102B2F1E04337
:100AD00024BFB3F5001CDCF1FE5C0DD901F0004C25
:100AE0004FEAC0024CEA5070B2F1004F40EB830075
:100AF00008BF20F00100704711F0804F21D113F1A1
:100B00003872BCBF01F00040704741F480114FEAD9
:100B10005252C2F11802C2F1200C10FA0CF320FA62
:100B200002F018BF40F001004FEAC1234FEAD3237F
:100B300003FA0CFC40EA0C0023FA02F34FEA4303E9
:100B4000CCE77FEA625307D150EA01331EBF4FF072
:100B5000FE4040F44000704701F0004040F0FE408D
:100B600040F40000704700BF80F0004002E000BF8A
:100B700081F0004142001FBF5FEA410392EA030F88
:100B80007FEA226C7FEA236C6AD04FEA1262D2EBD2
:100B90001363C1BFD218414048404140B8BF5B42D7
:100BA000192B88BF704710F0004F40F4000020F070
:100BB0007F4018BF404211F0004F41F4000121F086
:100BC0007F4118BF494292EA030F3FD0A2F10102D0
:100BD00041FA03FC10EB0C00C3F1200301FA03F10E
:100BE00000F0004302D5494260EB4000B0F5000F31
:100BF00013D3B0F1807F06D340084FEA310102F1F0
:100C00000102FE2A51D2B1F1004F40EBC25008BFA1
:100C100020F0010040EA03007047490040EB00006B
:100C2000013A28BFB0F5000FEDD2B0FA80FCACF16C
:100C3000080CB2EB0C0200FA0CF0AABF00EBC25099
:100C400052421843BCBFD0401843704792F0000F87
:100C500081F4000106BF80F400000132013BB5E7DA
:100C60004FEA41037FEA226C18BF7FEA236C21D050
:100C700092EA030F04D092F0000F08BF08467047B5
:100C800090EA010F1CBF0020704712F07F4F04D183
:100C9000400028BF40F00040704712F100723CBF96
:100CA00000F50000704700F0004343F0FE4040F4C0
:100CB000000070477FEA226216BF08467FEA23637E
:100CC0000146420206BF5FEA412390EA010F40F469
:100CD000800070474FF0000304E000BF10F00043B5
:100CE00048BF40425FEA000C08BF704743F096439C
:100CF00001464FF000001CE050EA010208BF7047B7
:100D00004FF000030AE000BF50EA010208BF70473D
:100D100011F0004302D5404261EB41015FEA010C52
:100D200002BF84460146002043F0B64308BFA3F14A
:100D30008053A3F50003BCFA8CF2083AA3EBC2532C
:100D400010DB01FA02FC634400FA02FCC2F120024B
:100D5000BCF1004F20FA02F243EB020008BF20F082
:100D60000100704702F1200201FA02FCC2F12002E8
:100D700050EA4C0021FA02F243EB020008BF20EADD
:100D8000DC70704780B485B000AFF860B9607A60FD
:100D90003B60FB68D9B2104AFB6802F823107B68FD
:100DA000D9B20D4AFB689B0013440A465A70BB68CF
:100DB000D9B2094AFB689B0013440A469A703B6803
:100DC000D9B2054AFB689B0013440A46DA7000BF9B
:100DD0001437BD4680BC704714020020000000009C
:100DE000B0B586B000AF78607B682D2B01DD2D2378
:100DF0007B6000237B615FE0354A7B6912F823103A
:100E0000344A7B6902F8231001233B614EE07B6882
:100E1000C3F15A031846FFF761FF0346FB60F86809
:100E2000FFF702FB28A3D3E90023FFF755FB024697
:100E30000B46104619464FF00002274BFFF776FC91
:100E400002460B4610461946FFF73EFE0346FB607E
:100E50001F4A7B699B001A443B6913441B78184660
:100E6000FFF7D0FA04460D46F868FFF7DDFA0246B0
:100E70000B461046194606F0B9FF02460B462046BF
:100E80002946FFF753FC02460B4610461946FFF76A
:100E9000FBFD0346D9B20F4A7B699B001A443B69AC
:100EA00013440A461A703B6901333B613B69032BCB
:100EB000ADDD7B6901337B617B69032B9CDD00BF6A
:100EC00000BF1837BD46B0BDF1D4C853FB2109405F
:100ED00014020020240200200080664080B586B005
:100EE00000AF00237B6100233B6136E07F4A3B6912
:100EF0009B0013445B781A047C493B699B000B44BC
:100F00009B781B021A4379493B699B000B44DB78B1
:100F100013433B601723FB6019E00122FB6802FAD0
:100F200003F31A463B681340002B05D0704A7B69D7
:100F30003C2122F8131004E06D4A7B691E2122F83F
:100F400013107B6901337B61FB68013BFB60FB682D
:100F5000002BE2DA3B6901333B613B69032BC5DDC2
:100F60000023BB600AE0624A7B69002122F813106B
:100F70007B6901337B61BB680133BB60BB68312B8C
:100F8000F1DD642001F094F97A695A495A4808F071
:100F900023FC03469AB24FF47A735749574806F038
:100FA000FCF8574805F066FC0346BB71BB791A464E
:100FB0005449514808F010FC03469AB24FF47A7332
:100FC0004D494E4806F0E9F84D4805F053FC0346FC
:100FD000012B03D000214A4804F0D2FD0A2001F081
:100FE00067F9474805F046FC0346BB71BB791A46D2
:100FF0004449414808F0F0FB03469AB24FF47A7333
:101000003D493E4806F0C9F83F4801F009FF034654
:10101000FB71FB791A463D49374808F0DDFB034672
:101020009AB24FF47A733449344806F0B6F8FB7933
:10103000022B02D0FB79032B0ED1FB791A463349E0
:101040002D4808F0C9FB03469AB24FF47A732A4937
:101050002A4806F0A2F82FE07B699BB2244A0021BF
:10106000274804F0E1FE03467B71642001F020F97B
:10107000254801F0D5FE0346FB717B79002B1BD17F
:101080007B791A4622491C4808F0A6FB03469AB20F
:101090004FF47A731849194806F07FF8FB791A461D
:1010A0001C49154808F098FB03469AB24FF47A732E
:1010B0001149124806F071F8FB791A4615490E4895
:1010C00008F08AFB03469AB24FF47A730A490B4838
:1010D00006F063F800BF104B1B78002BFBD00E4BC3
:1010E00000221A7000BF1837BD4680BD24020020C0
:1010F00064020020E0BC00080C000020E004002096
:101100000C040020ECBC00089C040020FCBC00087F
:101110000CBD000820BD00081800002080B483B07A
:1011200000AF78607B68002B07DB7B68022B04DC58
:10113000044A7B68012142F8231000BF0C37BD46EA
:1011400080BC70475402002080B483B000AF786048
:101150007B68002B07DB7B68022B04DC044A7B687E
:10116000134401221A7000BF0C37BD4680BC704783
:101170004402002080B483B000AF78607B68002B0D
:1011800007DB7B68022B04DC044A7B6813440122E2
:101190001A7000BF0C37BD4680BC70474802002063
:1011A00080B582B000AF78603960554A3B6852F82C
:1011B0002330022B4FD0022B00F39680002B02D05D
:1011C000012B39D090E04F4A3B6832F81330B3F529
:1011D000967F20D24B4A3B6832F81330013399B2E4
:1011E000484A3B6822F81310464A3B6832F81330ED
:1011F000B3F5967F0FD1424A3B68022142F8231093
:10120000404A3B68002122F813103868FFF786FF38
:101210003868FFF799FF3B687A6813441B78012B05
:1012200064D1374A3B68012142F82310354A3B68B4
:10123000002122F8131059E03B687A6813441B78A8
:10124000002B55D12E4A3B68002142F82310386804
:10125000FFF764FF4CE02B4A3B6832F81330632BF6
:1012600022D8284A3B6832F81330013399B2254A14
:101270003B6822F81310234A3B6832F81330642B82
:1012800012D11F4A3B68022142F823101D4A3B68D5
:10129000002122F813103868FFF76CFF3868FFF759
:1012A0003DFF3868FFF750FF3B687A6813441B78AE
:1012B000012B1FD1124A3B68012142F82310114A29
:1012C0003B68002122F813100F4A3B6813440022A8
:1012D0001A700E4A3B68134400221A700C4A3B688D
:1012E000002142F8231005E000BF04E000BF02E047
:1012F00000BF00E000BF00BF0837BD4680BD00BF93
:10130000000000204C02002044020020480200207F
:101310005402002090B583B000AF0023FB7152E06F
:10132000FA79FB792C49895C2C4AD154FA79FB79FA
:101330002B49895C284AD154FB79022B1AD0022B05
:1013400022DC002B02D0012B0AD01DE0FC79012108
:10135000244801F023FF03461A46214B1A5514E096
:10136000FC7902211F4801F019FF03461A461C4B65
:101370001A550AE0FC7904211A4801F00FFF0346D0
:101380001A46174B1A5500E000BFFB79134AD25C8E
:10139000FB791149CB5C9A4212D1FB790E4AD25C9F
:1013A000FB790F49CB5C9A420AD1FA79FB790B4958
:1013B000895C0D4AD154FB7919460B48FFF7F0FEC2
:1013C000FB790133FB71FB79022BA9D900BF00BF68
:1013D0000C37BD4690BD00BF3C02002040020020FB
:1013E00038020020000C01403402002080B582B099
:1013F00000AF78607B681B68134A93421FD1134B80
:101400001B785A1CD1B2114A11701A46104B197828
:10141000104B99540D4B1B781E2B02D10B4B002205
:101420001A700D4B01221A703223012208490B4811
:1014300005F0B3FE01220649084805F031FF00BF60
:101440000837BD4680BD00BF004400406102002057
:10145000600200202805002062020020E004002035
:1014600080B582B000AF78607B681B68084A934201
:101470000AD17B681B7F012B06D10021054804F0AF
:1014800075FE054B01221A7000BF0837BD4680BDAE
:10149000002C01400C0400201800002080B59CB0F6
:1014A00000AF374B5B69364A43F001035361344B5D
:1014B0005B6903F00103BB60BB68314B9B69304A39
:1014C00043F4006393612E4B9B6903F400637B60DC
:1014D0007B682C4B2C4A1A602A4B10225A60294BED
:1014E00000229A60274B8022DA60264B4FF48072EC
:1014F0001A61244B4FF480625A61224B00229A6198
:10150000204B0022DA611F4801F016FA1F4B1D4ADA
:101510009A621C4B1D4A5A621D4BBB620023FB6240
:1015200000233B6359237B630023BB630023FB63DE
:1015300007F12803184604F029FA6023FB60002312
:101540003B6100237B610023FB6107F10C0107F184
:1015500028030422184604F0D7FF07F128030421CA
:10156000184604F06BFA07F128004FF49273094A09
:10157000042104F059FC00BF7037BD4680BD00BF98
:10158000001002409C0400201C0002400C040020BB
:10159000002C01406402002080B500AF00F026FE60
:1015A00000F03AF800F034FA00F014FA00F0E8F92C
:1015B00000F09AF900F08CF800F0C8F800F0F4F8A8
:1015C000114804F091F9114804F08EF901221049F4
:1015D000104805F065FE00210C4804F035FBFFF7CC
:1015E0005DFF0023FF2200210020FFF7CBFB0A2034
:1015F000FFF7F6FB642000F05BFEFFF76FFC1E2098
:1016000000F056FEFBE700BF540400200C0400204D
:1016100060020020E004002080B594B000AF07F124
:10162000280328220021184607F06EFC07F1140356
:1016300000221A605A609A60DA601A613B1D00222B
:101640001A605A609A60DA600123BB624FF48033FB
:10165000FB6200233B630123BB6302237B644FF4E3
:101660008033BB644FF4E013FB6407F12803184692
:1016700003F024FC0346002B01D000F064FA0F2392
:101680007B610223BB610023FB614FF480633B62FB
:1016900000237B6207F114030221184603F090FE39
:1016A0000346002B01D000F04EFA02237B604FF47A
:1016B0000043FB603B1D184604F010F80346002B66
:1016C00001D000F040FA00BF5037BD4680BD000099
:1016D00080B584B000AF3B1D00221A605A609A604A
:1016E000184B194A1A60174B00229A60154B0122B9
:1016F0001A73144B00221A75124B4FF46022DA61F0
:10170000104B00225A600F4B01221A610D4800F065
:10171000F3FD0346002B01D000F015FA00237B6097
:101720000123BB600023FB603B1D1946054800F008
:10173000BBFE0346002B01D000F005FA00BF1037B6
:10174000BD4680BD880300200024014080B500AF65
:10175000124B134A1A60114B124A5A600F4B002267
:101760009A600E4B0022DA600C4B4FF480421A61F3
:101770000A4B00225A61094B00229A61074B002252
:10178000DA61064B00221A62044801F059FD034653
:10179000002B01D000F0D7F900BF80BDB8030020B6
:1017A00000540040A086010080B596B000AF07F15C
:1017B000480300221A605A609A60DA6007F1400319
:1017C00000221A605A6007F1240300221A605A604E
:1017D0009A60DA601A615A619A613B1D20220021E9
:1017E000184607F091FB3E4B3E4A1A603C4B0022E4
:1017F0005A603B4B00229A60394B5922DA60384BD1
:1018000000221A61364B00225A61354B00229A6140
:10181000334804F019F80346002B01D000F093F987
:101820004FF48053BB6407F1480319462C4804F079
:101830002DFF0346002B01D000F085F9284804F065
:10184000A5F80346002B01D000F07DF900233B648E
:1018500000237B6407F140031946214805F08CFB07
:101860000346002B01D000F06EF960237B62002359
:10187000BB620023FB6200233B6300237B630023E6
:10188000BB630023FB6307F12403002219461448BD
:1018900004F03AFE0346002B01D000F054F9002377
:1018A0007B600023BB600023FB6000233B610023BF
:1018B0007B614FF40053BB6100233B623B1D194623
:1018C000074805F0B7FB0346002B01D000F03BF9B9
:1018D000034800F081FA00BF5837BD4680BD00BF05
:1018E0000C040020002C014080B586B000AF07F149
:1018F000080300221A605A609A60DA603B460022B0
:101900001A605A601D4B4FF080421A601B4B41F623
:101910003F725A60194B00229A60184B0922DA6014
:10192000164B00221A61154B00229A61134803F0EE
:101930008BFF0346002B01D000F005F94FF48053D4
:10194000BB6007F1080319460C4804F09FFE0346EC
:10195000002B01D000F0F7F800233B6000237B60F0
:101960003B461946054805F007FB0346002B01D00E
:1019700000F0E9F800BF1837BD4680BD54040020D0
:1019800080B500AF114B124A1A60104B4FF416523B
:101990005A600E4B00229A600C4B0022DA600B4B0F
:1019A00000221A61094B0C225A61084B00229A61ED
:1019B000064B0022DA61054805F09FFB0346002B29
:1019C00001D000F0C0F800BF80BD00BFE0040020DF
:1019D0000044004080B582B000AF0C4B5B690B4AFD
:1019E00043F001035361094B5B6903F001037B6022
:1019F0007B68002200210C2000F067FF0C2000F023
:101A000080FF00BF0837BD4680BD00BF0010024008
:101A100080B588B000AF07F1100300221A605A6049
:101A20009A60DA60394B9B69384A43F0100393613E
:101A3000364B9B6903F01003FB60FB68334B9B69DB
:101A4000324A43F020039361304B9B6903F020033B
:101A5000BB60BB682D4B9B692C4A43F00403936128
:101A60002A4B9B6903F004037B607B68274B9B69CF
:101A7000264A43F008039361244B9B6903F0080353
:101A80003B603B680022E021214801F09EFB4FF4BF
:101A900000533B611F4B7B610023BB6107F11003C7
:101AA00019461D4801F0F6F9E0233B6101237B61F3
:101AB0000023BB610223FB6107F1100319461448A0
:101AC00001F0E8F907233B6100237B610123BB613F
:101AD00007F110031946114801F0DCF940233B617E
:101AE00002237B610223FB6107F1100319460B48B7
:101AF00001F0D0F900220021282000F0E6FE282085
:101B000000F0FFFE00BF2037BD4680BD0010024040
:101B1000000801400000111000100140000C0140BD
:101B200080B582B000AF78607B681B68B3F1804FEE
:101B300001D1FFF7EFFB00F0F1FA00F009F800BF68
:101B40000837BD4680BD80B400AF72B600BFFEE767
:101B500080B400AF064B1B68002B04D0044B1B68FD
:101B60005A68013A5A6000BFBD4680BC704700BF4A
:101B70004805002080B485B000AF154B9B69144A1E
:101B800043F001039361124B9B6903F00103BB60B7
:101B9000BB680F4BDB690E4A43F08053D3610C4B9B
:101BA000DB6903F080537B607B680A4B5B68FB60FA
:101BB000FB6823F0E063FB60FB6843F00073FB60AD
:101BC000044AFB68536000BF1437BD4680BC7047B1
:101BD000001002400000014080B588B000AF78607E
:101BE00007F1100300221A605A609A60DA607B687D
:101BF0001B68144A934221D1134B9B69124A43F448
:101C000000739361104B9B6903F40073FB60FB68E6
:101C10000D4B9B690C4A43F0040393610A4B9B698B
:101C200003F00403BB60BB6801233B6103237B61BA
:101C300007F110031946054801F02CF900BF2037C1
:101C4000BD4680BD00240140001002400008014054
:101C500080B58AB000AF786007F1140300221A60E3
:101C60005A609A60DA607B681B68254A934242D1C9
:101C7000244B9B69234A43F008039361214B9B69E2
:101C800003F008033B613B694FF440737B6112230F
:101C9000BB6103233B6207F1140319461A4801F0A4
:101CA000F9F81A4B5B687B627B6A43F0E0637B6206
:101CB0007B6A43F002037B62144A7B6A5360114BD8
:101CC000DB69104A43F40013D3610E4BDB6903F464
:101CD0000013FB60FB68002200211F2000F0F5FDCF
:101CE0001F2000F00EFE00220021202000F0EDFD5C
:101CF000202000F006FE00BF2837BD4680BD00BF93
:101D00000054004000100240000C0140000001405F
:101D100080B584B000AF78607B681B682A4A934224
:101D200034D12A4B9B69294A43F400639361274BC2
:101D30009B6903F40063FB60FB68254B254A1A602E
:101D4000234B10225A60224B00229A60204B8022A3
:101D5000DA601F4B4FF480721A611D4B4FF48062A2
:101D60005A611B4B00229A61194B0022DA61184814
:101D700000F0E2FD0346002B01D0FFF7E4FE7B6894
:101D8000134A5A62124A7B68536218E07B681B68E8
:101D9000B3F1804F13D10D4BDB690C4A43F00103C3
:101DA000D3610A4BDB6903F00103BB60BB6800220F
:101DB00000211C2000F089FD1C2000F0A2FD00BFC6
:101DC0001037BD4680BD00BF002C0140001002400E
:101DD0009C0400201C00024080B588B000AF7860F1
:101DE00007F1100300221A605A609A60DA607B687B
:101DF0001B68104A934218D10F4B9B690E4A43F05F
:101E0000040393610C4B9B6903F00403FB60FB68C4
:101E10004FF480733B6102237B610223FB6107F176
:101E200010031946054801F035F800BF2037BD46BC
:101E300080BD00BF002C014000100240000801409E
:101E400080B588B000AF786007F1100300221A60F7
:101E50005A609A60DA607B681B68194A93422BD1FA
:101E6000184BDB69174A43F40033D361154BDB6928
:101E700003F40033FB60FB68124B9B69114A43F08B
:101E8000040393610F4B9B6903F00403BB60BB68C1
:101E90000C233B6102237B610223FB6107F11003EA
:101EA0001946094800F0F6FF00220021262000F024
:101EB0000CFD262000F025FD00BF2037BD4680BD6B
:101EC00000440040001002400008014080B400AF10
:101ED000FEE780B400AFFEE780B400AFFEE780B459
:101EE00000AFFEE780B400AFFEE780B400AF00BFF4
:101EF000BD4680BC704780B400AF00BFBD4680BC0B
:101F0000704780B400AF00BFBD4680BC704780B54D
:101F100000AF00F0B1F900BF80BD000080B500AF98
:101F2000024800F077FE00BF80BD00BF9C04002087
:101F300080B500AF024804F0DFF900BF80BD00BFEC
:101F40005404002080B500AF024801F0D1FA00BF70
:101F500080BD00BFB803002080B500AF024801F08B
:101F600038FC00BF80BD00BFB803002080B500AFC3
:101F7000024805F0BBF900BF80BD00BFE0040020AF
:101F800080B500AF4FF4005001F038F900BF80BDBC
:101F900080B400AF01231846BD4680BC704780B5B1
:101FA00082B000AF7860396006F084FF03461622E5
:101FB0001A604FF0FF3318460837BD4680BD80B524
:101FC00082B000AF78604FF0FF317868FFF7E7FF2D
:101FD000FEE780B586B000AFF860B9607A60002394
:101FE0007B610AE0AFF300800146BB685A1CBA600F
:101FF000CAB21A707B6901337B617A697B689A4245
:10200000F0DB7B6818461837BD4680BD80B586B0CA
:1020100000AFF860B9607A6000237B6109E0BB68BB
:102020005A1CBA601B781846AFF300807B690133F5
:102030007B617A697B689A42F1DB7B6818461837C6
:10204000BD4680BD80B483B000AF78604FF0FF33F1
:1020500018460C37BD4680BC704780B483B000AFD3
:10206000786039603B684FF400525A60002318468C
:102070000C37BD4680BC704780B483B000AF786039
:10208000012318460C37BD4680BC704780B485B02C
:1020900000AFF860B9607A60002318461437BD4677
:1020A00080BC704780B586B000AF7860144A154B8D
:1020B000D31A7B617B693B61134B1B68002B02D1F8
:1020C000114B124A1A60104B1A687B6813443A6924
:1020D0009A4207D206F0EEFE03460C221A604FF039
:1020E000FF3309E0084B1B68FB60074B1A687B68ED
:1020F0001344054A1360FB6818461837BD4680BD77
:1021000000500020000400004C0500208005002045
:1021100080B400AF00BFBD4680BC704780B400AF44
:10212000194B1B68002B0BDD174B1B68013B164A34
:102130001360154B1B68002B02DC144B01221A6044
:10214000134B1B68002B0BDD114B1B68013B104A26
:1021500013600F4B1B68002B02DC0E4B01221A6030
:102160000D4B1B68002B0BDD0B4B1B68013B0A4A18
:102170001360094B1B68002B02DC084B01221A601C
:1021800000BFBD4680BC7047500500205C050020A4
:10219000540500206005002058050020640500203B
:1021A000FFF7B6FF0B480C490C4A002302E0D45855
:1021B000C4500433C4188C42F9D3094A094C002393
:1021C00001E013600432A242FBD306F079FEFFF770
:1021D000E3F9704700000020F80100201CC300084C
:1021E000F80100207C050020FEE7000080B500AF6C
:1021F000084B1B68074A43F010031360032000F0EC
:1022000059FB002000F008F8FFF7B4FC0023184643
:1022100080BD00BF0020024080B582B000AF786072
:10222000124B1A68124B1B7819464FF47A73B3FBA2
:10223000F1F3B2FBF3F3184600F071FB0346002BF9
:1022400001D001230EE07B680F2B0AD800227968A9
:102250004FF0FF3000F039FB064A7B681360002323
:1022600000E0012318460837BD4680BD1C00002051
:10227000240000202000002080B400AF054B1B7814
:102280001A46054B1B681344034A136000BFBD4642
:1022900080BC7047240000206805002080B400AF97
:1022A000024B1B681846BD4680BC7047680500207D
:1022B00080B584B000AF7860FFF7F0FFB8607B684E
:1022C000FB60FB68B3F1FF3F05D00A4B1B781A4651
:1022D000FB681344FB6000BFFFF7E0FF0246BB68EA
:1022E000D31AFA689A42F7D800BF00BF1037BD462C
:1022F00080BD00BF2400002080B586B000AF7860AC
:102300000023FB7500233B610023BB600023FB60BF
:102310007B68002B01D10123BEE07B689B68002B0A
:102320007B689B6A002B09D17B680022DA627B689C
:10233000002283F824207868FFF74EFC786800F0CC
:10234000ABF90346FB757B689B6A03F01003002B17
:1023500040F09980FB7D002B40F095807B689B6A64
:1023600023F4885323F0020343F002027B689A624D
:102370007B685A687B68DB691A437B681B7B5B0060
:102380001343BA681343BB607B689B68B3F5807FD7
:1023900003D07B689B68012B02D14FF4807300E06F
:1023A00000233A6913433B617B681B7D012B19D1E4
:1023B0007B681B7B002B09D17B689B69013B5A031F
:1023C0003B69134343F400633B610BE07B689B6A0A
:1023D00043F020027B689A627B68DB6A43F001026B
:1023E0007B68DA627B681B685B6823F469417B6801
:1023F0001B683A690A435A607B681B689A68284BD5
:1024000013407A681268B9680B4393607B689B68D5
:10241000B3F5807F03D07B689B68012B04D17B6878
:102420001B69013B1B05FB607B681B68DB6A23F4AF
:1024300070017B681B68FA680A43DA627B681B6874
:102440009A68184B1340BA689A420BD17B680022F5
:10245000DA627B689B6A23F0030343F001027B6826
:102460009A6218E07B689B6A23F0120343F0100223
:102470007B689A627B68DB6A43F001027B68DA6200
:102480000123FB7507E07B689B6A43F010027B68C1
:102490009A620123FB75FB7D18461837BD4680BD47
:1024A000FDF7E1FFFE0E1FFF80B485B000AF78603E
:1024B00039600023FB730023BB607B6893F82430F2
:1024C000012B01D10223DCE07B68012283F8242068
:1024D0003B685B68062B1CD87B681B68596B3B68A4
:1024E0005A6813469B001344053B1F2202FA03F36C
:1024F000DB4319403B6818683B685A6813469B00E9
:102500001344053B00FA03F27B681B680A435A63D5
:102510003CE03B685B680C2B1CD87B681B68196B24
:102520003B685A6813469B001344233B1F2202FA60
:1025300003F3DB4319403B6818683B685A6813464D
:102540009B001344233B00FA03F27B681B680A4399
:102550001A631BE07B681B68D96A3B685A6813469C
:102560009B001344413B1F2202FA03F3DB43194053
:102570003B6818683B685A6813469B001344413B0C
:1025800000FA03F27B681B680A43DA623B681B6847
:10259000092B1CD97B681B68D9683B681A681346ED
:1025A0005B0013441E3B072202FA03F3DB4319408E
:1025B0003B6898683B681A6813465B0013441E3BEF
:1025C00000FA03F27B681B680A43DA6019E07B6853
:1025D0001B6819693B681A6813465B00134407229D
:1025E00002FA03F3DB4319403B6898683B681A68BA
:1025F00013465B00134400FA03F27B681B680A432E
:102600001A613B681B68102B03D03B681B68112BB9
:1026100032D17B681B681D4A934225D17B681B68B9
:102620009B6803F40003002B26D17B681B689A6823
:102630007B681B6842F400029A603B681B68102BA1
:102640001AD1134B1B68134AA2FB03239A0C13469F
:102650009B0013445B00BB6002E0BB68013BBB60B6
:10266000BB68002BF9D107E07B689B6A43F020022E
:102670007B689A620123FB737B68002283F8242025
:10268000FB7B18461437BD4680BC704700240140D0
:102690001C00002083DE1B4380B584B000AF78604F
:1026A0000023FB607B681B689B6803F00103012B20
:1026B0002ED17B681B689A687B681B6822F0010238
:1026C0009A60FFF7EBFDF8601BE0FFF7E7FD0246BD
:1026D000FB68D31A022B14D97B681B689B6803F034
:1026E0000103012B0DD17B689B6A43F010027B68CC
:1026F0009A627B68DB6A43F001027B68DA6201233D
:1027000007E07B681B689B6803F00103012BDCD0AA
:10271000002318461037BD4680BD000080B485B048
:1027200000AF78607B6803F00703FB600C4BDB684D
:10273000BB60BA684FF6FF031340BB60FB681A0228
:10274000BB68134343F0BF6343F40033BB60044AE8
:10275000BB68D36000BF1437BD4680BC704700BF64
:1027600000ED00E080B400AF044BDB681B0A03F00F
:1027700007031846BD4680BC704700BF00ED00E06F
:1027800080B483B000AF0346FB7197F90730002B8C
:102790000BDBFB7903F01F02064997F907305B0951
:1027A000012000FA02F241F8232000BF0C37BD4699
:1027B00080BC704700E100E080B483B000AF034606
:1027C0003960FB7197F90730002B0ADB3B68DAB2FE
:1027D0000C4997F907301201D2B20B4483F8002359
:1027E0000AE03B68DAB20849FB7903F00F03043BC7
:1027F0001201D2B20B441A7600BF0C37BD4680BC22
:10280000704700BF00E100E000ED00E080B489B057
:1028100000AFF860B9607A60FB6803F00703FB6102
:10282000FB69C3F10703042B28BF0423BB61FB69C9
:102830000433062B02D9FB69033B00E000237B61D4
:102840004FF0FF32BB6902FA03F3DA43BB681A4068
:102850007B699A404FF0FF317B6901FA03F3D9435A
:102860007B680B40134318462437BD4680BC704735
:1028700080B582B000AF78607B68013BB3F1807FA8
:1028800001D301230FE00A4A7B68013B53600F210B
:102890004FF0FF30FFF790FF054B00229A60044B8A
:1028A00007221A60002318460837BD4680BD00BFC6
:1028B00010E000E080B582B000AF78607868FFF784
:1028C0002DFF00BF0837BD4680BD80B586B000AF84
:1028D0000346B9607A60FB7300237B61FFF742FF18
:1028E00078617A68B9687869FFF790FF024697F9CE
:1028F0000F3011461846FFF75FFF00BF1837BD467F
:1029000080BD80B582B000AF0346FB7197F90730F8
:102910001846FFF735FF00BF0837BD4680BD80B5BC
:1029200082B000AF78607868FFF7A2FF03461846D0
:102930000837BD4680BD000080B485B000AF786028
:102940000023FB607B68002B01D1012343E07B68FF
:102950001B681A46224B1344224AA2FB03231B097D
:102960009A007B681A647B681F4ADA637B680222DC
:1029700083F821207B681B681B68FB60FB6823F4DD
:102980007F5323F03003FB607B685A687B689B6849
:102990001A437B68DB681A437B681B691A437B68B0
:1029A0005B691A437B689B691A437B68DB69134345
:1029B000FA681343FB607B681B68FA681A607B68DF
:1029C00000229A637B68012283F821207B68002221
:1029D00083F82020002318461437BD4680BC70477A
:1029E000F8FFFDBFCDCCCCCC0000024080B586B056
:1029F00000AFF860B9607A603B600023FB75FB684C
:102A000093F82030012B01D102234BE0FB68012217
:102A100083F82020FB6893F82130DBB2012B3AD1F8
:102A2000FB68022283F82120FB6800229A63FB687E
:102A30001B681A68FB681B6822F001021A603B6879
:102A40007A68B968F86800F0F8F9FB68DB6A002B6F
:102A500008D0FB681B681A68FB681B6842F00E020E
:102A60001A600FE0FB681B681A68FB681B6822F09D
:102A700004021A60FB681B681A68FB681B6842F056
:102A80000A021A60FB681B681A68FB681B6842F040
:102A900001021A6005E0FB68002283F8202002236F
:102AA000FB75FB7D18461837BD4680BD80B485B0E8
:102AB00000AF78600023FB737B6893F82130DBB2B2
:102AC000022B08D07B6804229A637B68002283F87B
:102AD0002020012320E07B681B681A687B681B6844
:102AE00022F00E021A607B681B681A687B681B68FC
:102AF00022F001021A607B681A6C7B68DB6B012193
:102B000001FA02F25A607B68012283F821207B6877
:102B1000002283F82020FB7B18461437BD4680BC7A
:102B20007047000080B584B000AF78600023FB736D
:102B30007B6893F82130DBB2022B05D07B6804223E
:102B40009A630123FB7351E07B681B681A687B68FA
:102B50001B6822F00E021A607B681B681A687B688B
:102B60001B6822F001021A607B681B68224A9342AC
:102B700029D07B681B68214A934222D07B681B685E
:102B80001F4A93421AD07B681B681E4A934212D098
:102B90007B681B681C4A93420AD07B681B681B4AEF
:102BA000934202D14FF480130EE04FF080730BE09C
:102BB0004FF4803308E04FF4805305E04FF4807306
:102BC00002E0102300E00123114A53607B680122D8
:102BD00083F821207B68002283F820207B685B6BD0
:102BE000002B03D07B685B6B78689847FB7B1846AB
:102BF0001037BD4680BD00BF080002401C000240E7
:102C00003000024044000240580002406C00024084
:102C10000000024080B584B000AF78607B68DB6B59
:102C20001B68FB607B681B681B68BB607B681B6C58
:102C300004229A40FB681340002B4FD0BB6803F07E
:102C40000403002B4AD07B681B681B6803F0200339
:102C5000002B07D17B681B681A687B681B6822F011
:102C600004021A607B681B68664A934229D07B681D
:102C70001B68654A934222D07B681B68634A934273
:102C80001AD07B681B68624A934212D07B681B682B
:102C9000604A93420AD07B681B685F4A934202D124
:102CA0004FF480030EE04FF080630BE04FF480237D
:102CB00008E04FF4804305E04FF4806302E04023D6
:102CC00000E00423554A53607B68DB6A002B00F068
:102CD00094807B68DB6A786898478EE07B681B6C21
:102CE00002229A40FB681340002B56D0BB6803F0C9
:102CF0000203002B51D07B681B681B6803F0200384
:102D0000002B0BD17B681B681A687B681B6822F05C
:102D10000A021A607B68012283F821207B681B6805
:102D2000384A934229D07B681B68374A934222D0A5
:102D30007B681B68354A93421AD07B681B68344A0B
:102D4000934212D07B681B68324A93420AD07B6858
:102D50001B68314A934202D14FF400130EE04FF04A
:102D600000730BE04FF4003308E04FF4005305E02C
:102D70004FF4007302E0202300E00223274A53604F
:102D80007B68002283F820207B689B6A002B34D06C
:102D90007B689B6A786898472FE07B681B6C0822E9
:102DA0009A40FB681340002B28D0BB6803F008034F
:102DB000002B23D07B681B681A687B681B6822F095
:102DC0000E021A607B681A6C7B68DB6B012101FACA
:102DD00002F25A607B6801229A637B68012283F8C1
:102DE00021207B68002283F820207B681B6B002B4E
:102DF00004D07B681B6B7868984700BF00BF103712
:102E0000BD4680BD080002401C0002403000024068
:102E100044000240580002406C00024000000240A2
:102E200080B483B000AF78607B6893F82130DBB268
:102E300018460C37BD4680BC704780B485B000AFE3
:102E4000F860B9607A603B60FB681A6CFB68DB6B0A
:102E5000012101FA02F25A60FB681B683A685A6065
:102E6000FB685B68102B08D1FB681B687A689A6066
:102E7000FB681B68BA68DA6007E0FB681B68BA6821
:102E80009A60FB681B687A68DA6000BF1437BD4639
:102E900080BC704780B48BB000AF7860396000238D
:102EA0007B6200233B6269E101227B6A02FA03F341
:102EB000FB613B681B68FA691340BB61BA69FB6937
:102EC0009A4240F058813B685B689A4A93425ED0D0
:102ED000984A934275D8984A934258D0964A93425A
:102EE0006FD8964A934252D0944A934269D8944AF2
:102EF00093424CD0924A934263D8924A934246D02E
:102F0000904A93425DD8122B2AD8122B59D801A28D
:102F100052F823F08F2F0008692F00087B2F00083C
:102F2000BD2F0008C32F0008C32F0008C32F0008BF
:102F3000C32F0008C32F0008C32F0008C32F0008A9
:102F4000C32F0008C32F0008C32F0008C32F000899
:102F5000C32F0008C32F0008712F0008852F000819
:102F6000794A934213D02CE03B68DB683B6229E04E
:102F70003B68DB6804333B6224E03B68DB68083372
:102F80003B621FE03B68DB680C333B621AE03B6846
:102F90009B68002B02D104233B6213E03B689B68D3
:102FA000012B05D108233B627B68FA691A6109E0AD
:102FB00008233B627B68FA695A6103E000233B62A5
:102FC00000E000BFBB69FF2B01D87B6801E07B6894
:102FD00004337B61BB69FF2B02D87B6A9B0002E054
:102FE0007B6A083B9B003B617B691A680F213B6948
:102FF00001FA03F3DB431A40396A3B6901FA03F330
:103000001A437B691A603B685B6803F08053002BAE
:1030100000F0B1804D4B9B694C4A43F00103936132
:103020004A4B9B6903F00103BB60BB68484A7B6A5B
:103030009B08023352F82330FB607B6A03F00303E2
:103040009B000F2202FA03F3DB43FA681340FB6094
:103050007B68404A934213D07B683F4A93420DD02D
:103060007B683E4A934207D07B683D4A934201D138
:10307000032306E0042304E0022302E0012300E02E
:1030800000237A6A02F0030292009340FA68134325
:10309000FB602F497B6A9B080233FA6841F82320C2
:1030A0003B685B6803F48013002B06D02D4B9A68B5
:1030B0002C49BB6913438B6006E02A4B9A68BB69B5
:1030C000DB43284913408B603B685B6803F40013C3
:1030D000002B06D0234BDA682249BB691343CB602F
:1030E00006E0204BDA68BB69DB431E491340CB6026
:1030F0003B685B6803F40033002B06D0194B5A6819
:103100001849BB6913434B6006E0164B5A68BB690C
:10311000DB43144913404B603B685B6803F4803326
:10312000002B21D00F4B1A680E49BB6913430B606B
:1031300021E000BF0000321000003110000022101A
:1031400000002110000012100000111000100240B9
:103150000000014000080140000C01400010014047
:1031600000140140000401400B4B1A68BB69DB43AB
:10317000094913400B607B6A01337B623B681A6824
:103180007B6A22FA03F3002B7FF48EAE00BF00BFF0
:103190002C37BD4680BC70470004014080B485B028
:1031A00000AF78600B467B807B689A687B88134011
:1031B000002B02D00123FB7301E00023FB73FB7B98
:1031C00018461437BD4680BC704780B483B000AF4A
:1031D00078600B467B8013467B707B78002B03D096
:1031E0007A887B681A6103E07B881A047B681A611D
:1031F00000BF0C37BD4680BC7047000080B582B070
:1032000000AF0346FB80084B5A69FB881340002B34
:1032100006D0054AFB885361FB88184600F006F883
:1032200000BF0837BD4680BD0004014080B483B0B4
:1032300000AF0346FB8000BF0C37BD4680BC704723
:1032400080B584B000AF78607B68002B01D101238A
:103250002BE17B6893F83D30DBB2002B06D17B6815
:10326000002283F83C207868FEF7F2FC7B68242279
:1032700083F83D207B681B681A687B681B6822F016
:1032800001021A607B681B681A687B681B6842F43D
:1032900000421A607B681B681A687B681B6822F40E
:1032A00000421A6002F0D4F9F8607B685B68814ADA
:1032B000934207D8FB68804A934294BF01230023BE
:1032C000DBB206E0FB687D4A934294BF01230023F2
:1032D000DBB2002B01D00123E7E0FB68784AA2FBB8
:1032E00003239B0CBB607B681B685B6823F03F017A
:1032F0007B681B68BA680A435A607B681B681B6A54
:1033000023F03F017B685B686A4A934202D8BB683E
:10331000013309E0BB684FF4967202FB03F3694A7C
:10332000A2FB03239B0901337A6812680B431362E3
:103330007B681B68DB6923F44F4222F0FF027B6845
:103340005B685C498B4219D8FB68591E7B685B68D7
:103350005B00B1FBF3F3591C40F6FC730B40002BF0
:103360000AD0FB68591E7B685B685B00B1FBF3F316
:103370000133C3F30B0351E004234FE07B689B68E8
:10338000002B11D1FB68581E7B6859680B465B0007
:103390000B44B0FBF3F30133C3F30B03002B0CBF5F
:1033A00001230023DBB212E0FB68581E7B685968DA
:1033B0000B469B000B4499000B44B0FBF3F3013325
:1033C000C3F30B03002B0CBF01230023DBB2002B44
:1033D00001D0012322E07B689B68002B0ED1FB68A3
:1033E000581E7B6859680B465B000B44B0FBF3F337
:1033F0000133C3F30B0343F400430FE0FB68581E93
:103400007B6859680B469B000B4499000B44B0FB4A
:10341000F3F30133C3F30B0343F4404379680968C2
:103420001343CB617B681B681B6823F0C0017B687A
:10343000DA697B681B6A1A437B681B680A431A6057
:103440007B681B689B6823F4034323F0FF037A68BF
:1034500011697A68D26811437A6812680B439360E5
:103460007B681B68DB6823F0FF017B685A697B6817
:103470009B691A437B681B680A43DA607B681B6898
:103480001A687B681B6842F001021A607B680022A0
:103490001A647B68202283F83D207B6800221A632F
:1034A0007B68002283F83E20002318461037BD4673
:1034B00080BD00BFA08601007F841E00FF083D0084
:1034C00083DE1B43D34D621080B483B000AF7860BD
:1034D0007B681B685B6903F08003802B03D17B68EA
:1034E0001B6800221A6100BF0C37BD4680BC7047C4
:1034F00080B588B000AF78600023BB617B681B6833
:103500005B687B617B68DB6A3B617B6893F83E307C
:10351000FB737B6893F83D30BB73FB7B102B03D0B0
:10352000FB7B402B40F0C1807B681B689B69BB61C3
:103530007B681B685B69FB61FB6903F00103002B7F
:103540000DD13B69B3F52A0F03D03B69B3F12A4F84
:1035500001D1012300E00023012B00F03281FB693F
:1035600003F00103002B0CD07B695B0A03F001031D
:10357000002B06D0786801F087FC786800F085FDA4
:1035800092E0FB69DB0803F00103002B09D07B69A3
:103590005B0A03F00103002B03D0786800F0FAFD0A
:1035A00082E0FB695B0803F00103002B09D07B6913
:1035B0005B0A03F00103002B03D0786800F013FED0
:1035C00072E0BB699B0803F00103002B3BD07B68D2
:1035D0001B685B6803F40063B3F5006F00F0F380D1
:1035E000FB69DB0903F00103002B0FD07B699B0A09
:1035F00003F00103002B09D0FB699B0803F00103D2
:10360000002B03D1786800F0F1F94DE0FB699B08CD
:1036100003F00103002B00F0D6807B695B0A03F006
:103620000103002B00F0CF80BB7B212B03D17868F6
:1036300000F078FAC7E0FB7B402B40F0C48078684C
:1036400000F0E6FABFE07B681B685B6803F4006388
:10365000B3F5006F00F0B780FB699B0903F001032D
:10366000002B0FD07B699B0A03F00103002B09D0CC
:10367000FB699B0803F00103002B03D1786800F07D
:103680005FFB11E0FB699B0803F00103002B00F0D6
:103690009A807B695B0A03F00103002B00F09380A2
:1036A000786800F008FC8EE08DE07B681B6C002BD6
:1036B00004D07B681B685B69FB6107E07B681B6863
:1036C0009B69BB617B681B685B69FB61FB695B088D
:1036D00003F00103002B12D07B695B0A03F00103A6
:1036E000002B0CD07B681B6C002B03D07B681B6805
:1036F0009B69BB61B969786800F0CCFF66E0FB6943
:103700001B0903F00103002B09D07B695B0A03F05E
:103710000103002B03D0786801F006F856E0BB7B6C
:10372000212B02D0BB7B292B25D1FB69DB0903F0C0
:103730000103002B0FD07B699B0A03F00103002BD0
:1037400009D0FB699B0803F00103002B03D17868C3
:1037500000F0E4FE39E0FB699B0803F00103002B55
:1037600033D07B695B0A03F00103002B2DD078680E
:1037700000F011FF29E0FB699B0903F00103002B16
:103780000FD07B699B0A03F00103002B09D0FB6972
:103790009B0803F00103002B03D1786800F01BFFA6
:1037A00014E0FB699B0803F00103002B0ED07B693A
:1037B0005B0A03F00103002B08D0786800F049FF92
:1037C00004E000BF02E000BF00E000BF2037BD46BC
:1037D00080BD80B58AB000AF78607B681B685B698C
:1037E0003B627B681B685B68FB6100237B627B68D4
:1037F00093F83E30FB763B6A1B0A03F00103002B73
:1038000016D0FB691B0A03F00103002B10D07B6A62
:1038100043F001037B627B681B686FF480725A611E
:103820007B681B681A687B681B6842F400421A6058
:103830003B6A5B0A03F00103002B0ED0FB691B0AF5
:1038400003F00103002B08D07B6A43F002037B6284
:103850007B681B686FF400725A613B6A9B0A03F035
:103860000103002B3FD0FB691B0A03F00103002B6F
:1038700039D0FB7EBB767B685B8D9BB27B617B68BE
:1038800093F83D30FB747B681B6BFB60BB7E202B89
:1038900012D17B69002B0FD1FB7C212B08D0FB7C44
:1038A000292B05D0FB7C282B06D1FB68212B03D1CB
:1038B000786801F069F816E07B681B686FF4806235
:1038C0005A617B6A43F004037B62FB7E102B02D0BB
:1038D000FB7E402B07D17B681B681A687B681B68DE
:1038E00042F400721A603B6ADB0A03F00103002B0A
:1038F0000ED0FB691B0A03F00103002B08D07B6A82
:1039000043F008037B627B681B686FF400625A61B6
:103910007B6A002B08D07B681A6C7B6A1A437B6831
:103920001A64786801F0A4F800BF2837BD4680BD4E
:1039300080B483B000AF786000BF0C37BD4680BC58
:10394000704780B483B000AF786000BF0C37BD46CD
:1039500080BC704780B483B000AF786000BF0C3784
:10396000BD4680BC704780B483B000AF786000BFB4
:103970000C37BD4680BC704780B483B000AF786020
:103980000B46FB7013463B8000BF0C37BD4680BC26
:10399000704780B483B000AF786000BF0C37BD467D
:1039A00080BC704780B483B000AF786000BF0C3734
:1039B000BD4680BC704780B483B000AF786000BF64
:1039C0000C37BD4680BC704780B483B000AF7860D0
:1039D00000BF0C37BD4680BC704780B483B000AFD9
:1039E000786000BF0C37BD4680BC704780B584B09E
:1039F00000AF78607B6893F83D30FB737B6893F889
:103A00003E30BB737B68DB6ABB607B681B8D002B21
:103A100050D1FB7B212B4DD1BB68082B1DD0BB683F
:103A2000202B1AD0BB6813F5803F16D07B681B682B
:103A30005A687B681B6822F4E0625A607B68112236
:103A40001A637B68002283F83E207B68202283F87B
:103A50003D207868FFF76CFF60E07B681B685A6860
:103A60007B681B6822F4E0625A607B681B681A68F6
:103A70007B681B6842F400721A607B6800221A633C
:103A80007B68202283F83D207B6893F83E30DBB2D0
:103A9000402B07D17B68002283F83E207868FFF72F
:103AA00081FF3BE07B68002283F83E207868FFF7C7
:103AB0003FFF33E0FB7B212B05D0BB7B402B2DD17F
:103AC000FB7B222B2AD17B685B8D9BB2002B08D11C
:103AD0007B681B685A687B681B6822F480625A60A6
:103AE0001CE07B6893F83E30DBB2402B03D1786852
:103AF00000F08EF812E07B685B6A1A787B681B68BE
:103B00001A617B685B6A5A1C7B685A627B685B8DB2
:103B10009BB2013B9AB27B685A85FFE700BF103722
:103B2000BD4680BD80B584B000AF78607B68DB6A3D
:103B3000FB607B6893F83D30DBB2212B64D17B685E
:103B40005B8D9BB2002B12D07B685B6A1A787B6816
:103B50001B681A617B685B6A5A1C7B685A627B68C7
:103B60005B8D9BB2013B9AB27B685A854CE0FB6847
:103B7000082B1DD0FB68202B1AD0FB6813F5803F63
:103B800016D07B681B685A687B681B6822F4E06269
:103B90005A607B6811221A637B68002283F83E20FA
:103BA0007B68202283F83D207868FFF7C1FE2BE078
:103BB0007B681B685A687B681B6822F4E0625A6065
:103BC0007B681B681A687B681B6842F400721A6085
:103BD0007B6800221A637B68202283F83D207B6883
:103BE00093F83E30DBB2402B07D17B68002283F88C
:103BF0003E207868FFF7D6FE06E07B68002283F857
:103C00003E207868FFF794FE00BF1037BD4680BDA8
:103C100080B584B000AF78607B6893F83D30FB736B
:103C20007B681B6D002B1DD17B68DB6C012B0BD1DE
:103C30007B689B6CDAB27B681B681A617B681B6DC2
:103C40009A1C7B681A6577E07B689B6C9BB21B12A1
:103C5000DAB27B681B681A617B681B6D5A1C7B6833
:103C60001A6569E07B681B6D012B0BD17B689B6C2F
:103C7000DAB27B681B681A617B681B6D5A1C7B6813
:103C80001A6559E07B681B6D022B52D1FB7B222BFE
:103C90000DD17B681B681A687B681B6842F48072D0
:103CA0001A607B681B6D5A1C7B681A6544E07B6850
:103CB0005B8D9BB2002B15D0FB7B212B12D17B6837
:103CC0005B6A1A787B681B681A617B685B6A5A1C9E
:103CD0007B685A627B685B8D9BB2013B9AB27B68C2
:103CE0005A8529E07B685B8D9BB2002B24D1FB7B3E
:103CF000212B21D17B681B685A687B681B6822F4E2
:103D0000E0625A607B681B681A687B681B6842F433
:103D100000721A607B6800221A637B68202283F895
:103D20003D207B68002283F83E207868FFF73AFE4A
:103D300002E07868FFF7C8FB00BF1037BD4680BDC2
:103D400080B584B000AF78607B6893F83D30DBB21B
:103D5000222B40F0AC807B685B8D9BB2FB60FB68E4
:103D6000032B21D97B681B681A697B685B6AD2B216
:103D70001A707B685B6A5A1C7B685A627B685B8D31
:103D80009BB2013B9AB27B685A857B685B8D9BB284
:103D9000032B40F08C807B681B685A687B681B682B
:103DA00022F480625A6082E07B68DB6A022B75D065
:103DB000FB68012B02D0FB68002B6FD1786801F003
:103DC00031F80346002B42D17B681B681A687B6878
:103DD0001B6822F480621A607B681B685A687B68E3
:103DE0001B6822F4E0625A607B681B681A697B6872
:103DF0005B6AD2B21A707B685B6A5A1C7B685A6233
:103E00007B685B8D9BB2013B9AB27B685A857B686D
:103E1000202283F83D207B6893F83E30DBB2402BB4
:103E20000AD17B68002283F83E207B6800221A6357
:103E30007868FFF7C0FD3AE07B68002283F83E20F7
:103E40007B6812221A637868FFF77BFD2FE07B689E
:103E50001B685A687B681B6822F4E0625A607B68C2
:103E60001B681A697B685B6AD2B21A707B685B6AEE
:103E70005A1C7B685A627B685B8D9BB2013B9AB28D
:103E80007B685A857B68202283F83D207B6800226E
:103E900083F83E207868FFF797FD08E07B681B6891
:103EA0005A687B681B6822F480625A60FFE700BF93
:103EB0001037BD4680BD80B584B000AF78607B68A8
:103EC000DB6AFB607B685B8D9BB2042B1BD17B683C
:103ED0001B685A687B681B6822F480625A607B68A2
:103EE0001B681A697B685B6AD2B21A707B685B6A6E
:103EF0005A1C7B685A627B685B8D9BB2013B9AB20D
:103F00007B685A85BDE07B685B8D9BB2032B29D112
:103F10007B681B685A687B681B6822F480625A6061
:103F2000FB68042B0AD0FB68022B07D07B681B6858
:103F30001A687B681B6822F480621A607B681B68C1
:103F40001A697B685B6AD2B21A707B685B6A5A1C1A
:103F50007B685A627B685B8D9BB2013B9AB27B683F
:103F60005A858EE07B685B8D9BB2022B76D1FB6815
:103F7000012B02D0FB68102B08D17B681B681A68E4
:103F80007B681B6822F480621A6019E0FB68042BCE
:103F900002D0FB68022B08D17B681B681A687B681B
:103FA0001B6842F480621A600AE0FB68102B07D09D
:103FB0007B681B681A687B681B6842F400721A6091
:103FC0007B681B681A697B685B6AD2B21A707B686F
:103FD0005B6A5A1C7B685A627B685B8D9BB2013BB3
:103FE0009AB27B685A857B681B681A697B685B6A32
:103FF000D2B21A707B685B6A5A1C7B685A627B6813
:104000005B8D9BB2013B9AB27B685A857B681B68CB
:104010005A687B681B6822F440725A607B682022D1
:1040200083F83D207B6893F83E30DBB2402B0AD109
:104030007B68002283F83E207B6800221A63786840
:10404000FFF7B9FC1DE07B68002283F83E207B6807
:1040500012221A637868FFF774FC12E07B681B6811
:104060001A697B685B6AD2B21A707B685B6A5A1CF9
:104070007B685A627B685B8D9BB2013B9AB27B681E
:104080005A8500BF1037BD4680BD80B483B000AFF5
:1040900078607B6893F83E30DBB2402B17D17B68A9
:1040A0001B6D002B09D17B685B6CDBB21A467B6809
:1040B0001B6802F0FE021A6167E07B685B6CDBB292
:1040C00043F00103DAB27B681B681A615DE07B682C
:1040D0001B69B3F5804F33D17B6893F83D30DBB279
:1040E000212B09D17B685B6CDBB21A467B681B68AD
:1040F00002F0FE021A6108E07B685B6CDBB243F001
:104100000103DAB27B681B681A617B685B6B002B6A
:1041100004D07B685B6B9B6A002B08D17B689B6B30
:10412000002B32D07B689B6B9B6A002B2DD07B6869
:104130001B685A687B681B6842F400625A6024E07E
:104140007B681B6D002B0ED17B685B6C9BB2DB1117
:10415000DBB203F00603DBB263F00F03DAB27B6875
:104160001B681A6111E07B681B6D012B0DD17B6808
:104170005B6C9BB2DB11DBB203F00603DBB263F0D6
:104180000E03DAB27B681B681A6100BF0C37BD46AC
:1041900080BC704780B483B000AF78607B685B6C94
:1041A000DAB27B681B681A617B685B6B002B04D0FA
:1041B0007B685B6B9B6A002B08D17B689B6B002B39
:1041C0000CD07B689B6B9B6A002B07D07B681B68BD
:1041D0005A687B681B6842F400625A6000BF0C3763
:1041E000BD4680BC704780B491B000AF78607B68FA
:1041F00093F83E3087F83F307B68DB6ABB637B68AF
:104200001B6B7B637B6893F83D30DBB2222B40F065
:1042100074817B681B6D002B0FD197F83F30402BCA
:104220000BD100233B637B681B685B693B637B6846
:104230001B689B693B633B6B6BE17B681B6D002BD1
:104240001DD17B681B69B3F5404F18D10023FB6279
:104250007B681B685B69FB627B681B689B69FB6210
:10426000FB6A7B681B681A687B681B6842F4807273
:104270001A607B681B6D5A1C7B681A6549E17B6874
:104280005B8D9BB2002B13D10023BB627B681B6844
:104290005B69BB627B681B689B69BB62BB6A7B68AE
:1042A0001B681A687B681B6842F400721A6020E180
:1042B0007B685B8D9BB2012B40F08A80BB6B13F552
:1042C000803F37D17B681B681A687B681B6822F4C3
:1042D00080621A607B681B685B6803F40063B3F557
:1042E000006F13D17B681B681A687B681B6822F417
:1042F00080621A6000237B627B681B685B697B625B
:104300007B681B689B697B627B6AF2E000233B62EF
:104310007B681B685B693B627B681B689B693B62CF
:104320003B6A7B681B681A687B681B6842F40072F2
:104330001A60DEE0BB6B082B2ED0BB6B202B2BD082
:104340007B6B122B02D1BB6B012B25D1BB6B042BDA
:104350000ED0BB6B022B0BD0BB6B102B08D07B6835
:104360001B681A687B681B6822F480621A6007E089
:104370007B681B681A687B681B6842F480621A605D
:104380000023FB617B681B685B69FB617B681B68C2
:104390009B69FB61FB69ACE07B681B681A687B6802
:1043A0001B6822F480621A600023BB617B681B6873
:1043B0005B69BB617B681B689B69BB61BB697B6890
:1043C0001B681A687B681B6842F400721A6090E0F0
:1043D0007B685B8D9BB2022B58D1BB6B042B21D029
:1043E000BB6B022B1ED0BB6B102B1BD07B681B68DA
:1043F0001A687B681B6842F400621A6000237B61C4
:104400007B681B685B697B617B681B689B697B6160
:104410007B697B681B681A687B681B6822F4806272
:104420001A6012E07B681B681A687B681B6842F49C
:1044300080621A6000233B617B681B685B693B619B
:104440007B681B689B693B613B697B681B685B6899
:1044500003F40063B3F5006F4BD1BB6B13F5803FE2
:104460000BD0BB6B012B08D0BB6B082B05D0BB6BF3
:10447000102B02D0BB6B202B3BD17B681B685A688A
:104480007B681B6842F480525A6032E07B681B688C
:104490001A687B681B6842F480621A607B681B683C
:1044A0005B6803F40063B3F5006F17D1BB6B13F5C2
:1044B000803F0BD0BB6B012B08D0BB6B082B05D00A
:1044C000BB6B102B02D0BB6B202B07D17B681B680A
:1044D0005A687B681B6842F480525A600023FB6074
:1044E0007B681B685B69FB607B681B689B69FB6082
:1044F000FB687B6800221A650BE00023BB607B68C9
:104500001B685B69BB607B681B689B69BB60BB68A1
:10451000FFE700BF4437BD4680BC704780B584B01C
:1045200000AF78607B6893F83D30FB737B685B8DF0
:104530009BB2002B2BD07B685B6A1A787B681B6868
:104540001A617B685B6A5A1C7B685A627B685B8D68
:104550009BB2013B9AB27B685A857B685B8D9BB2AC
:10456000002B14D1FB7B292B11D17B681B685A6867
:104570007B681B6822F480625A607B6821221A6380
:104580007B68282283F83D207868FFF7E3F900BFB5
:104590001037BD4680BD80B483B000AF78607B68C3
:1045A0005B8D9BB2002B11D07B685B6A1A787B68AD
:1045B0001B681A617B685B6A5A1C7B685A627B685D
:1045C0005B8D9BB2013B9AB27B685A8500BF0C376A
:1045D000BD4680BC704780B584B000AF78607B6812
:1045E00093F83D30FB737B685B8D9BB2002B2CD026
:1045F0007B681B681A697B685B6AD2B21A707B6839
:104600005B6A5A1C7B685A627B685B8D9BB2013B7C
:104610009AB27B685A857B685B8D9BB2002B14D164
:10462000FB7B2A2B11D17B681B685A687B681B684F
:1046300022F480625A607B6822221A637B682822F7
:1046400083F83D207868FFF78EF900BF1037BD462C
:1046500080BD80B483B000AF78607B685B8D9BB217
:10466000002B12D07B681B681A697B685B6AD2B228
:104670001A707B685B6A5A1C7B685A627B685B8D28
:104680009BB2013B9AB27B685A8500BF0C37BD468E
:1046900080BC704780B584B000AF7860396000237B
:1046A000FB737B6893F83D30DBB203F02803282BC3
:1046B00027D17B681B685A687B681B6822F480627C
:1046C0005A603B689B0803F00103002B01D10123D2
:1046D000FB733B68DB0903F00103002B03D17B680C
:1046E000DB68BB8102E07B689B69BB817B68002241
:1046F00083F83C20BA89FB7B19467868FFF73CF9C0
:104700000EE00023BB607B681B685B69BB607B6855
:104710001B689B69BB60BB687B68002283F83C20F8
:1047200000BF1037BD4680BD80B584B000AF786053
:104730007B6893F83D30FB737B681B685A687B6825
:104740001B6822F4E0625A600023BB607B681B6830
:104750005B69BB607B681B681A687B681B6842F0FA
:1047600001021A60BB687B681B681A687B681B685B
:1047700022F480621A607B681B685B6803F4006344
:10478000B3F5006F72D1FB7B222B02D0FB7B2A2B6F
:1047900035D17B689B6B1B685B689AB27B685A85D6
:1047A0007B685B8D9BB2002B05D07B681B6C43F054
:1047B00004027B681A647B681B685A687B681B6804
:1047C00022F400625A607B689B6B1846FEF728FB58
:1047D0000346012B49D07B689B6B694A5A637B680F
:1047E0009B6B1846FEF79EF90346002B3DD07B6875
:1047F0009B6B5B6B7A68926B1046984735E07B68E1
:104800005B6B1B685B689AB27B685A857B685B8DC3
:104810009BB2002B05D07B681B6C43F004027B68C5
:104820001A647B681B685A687B681B6822F4006204
:104830005A607B685B6B1846FEF7F2FA0346012B61
:1048400014D07B685B6B4E4A5A637B685B6B18467F
:10485000FEF768F90346002B08D07B685B6B5B6B47
:104860007A68526B1046984700E000BF7B685B8D0A
:104870009BB2002B3ED07B681B685B6903F004038E
:10488000042B12D17B681B681A697B685B6AD2B201
:104890001A707B685B6A5A1C7B685A627B685B8D06
:1048A0009BB2013B9AB27B685A857B681B685B6947
:1048B00003F04003402B12D17B681B681A697B68A8
:1048C0005B6AD2B21A707B685B6A5A1C7B685A6258
:1048D0007B685B8D9BB2013B9AB27B685A857B6893
:1048E0005B8D9BB2002B05D07B681B6C43F00402F0
:1048F0007B681A647B681B6C002B03D0786800F01F
:10490000B7F839E0FB7B2A2B09D17B6800221A63B8
:104910007B68282283F83D207868FFF724F87B68BD
:1049200093F83D30DBB2282B11D17B68154ADA624F
:104930007B6800221A637B68202283F83D207B6815
:10494000002283F83E207868FFF723F814E07B68A4
:104950001B6B222B02D0FB7B222B0DD17B6800220C
:104960001A637B68202283F83D207B68002283F84D
:104970003E207868FEF7F7FF00BF1037BD4680BDC8
:10498000D54C00080000FFFF80B584B000AF786010
:104990007B6893F83D30FB737B68DB6ABB60BB6868
:1049A000082B02D0BB68202B29D1FB7B282B26D1DA
:1049B0007B682E4ADA627B681B685A687B681B68D2
:1049C00022F4E0625A607B681B686FF480625A616F
:1049D0007B681B681A687B681B6822F480621A6017
:1049E0007B6800221A637B68202283F83D207B6865
:1049F000002283F83E207868FEF7CBFF31E0FB7B96
:104A0000212B29D17B68194ADA627B6821221A633B
:104A10007B68202283F83D207B68002283F83E20BB
:104A20007B681B685A687B681B6822F4E0625A60E6
:104A30007B681B686FF480625A617B681B681A6828
:104A40007B681B6822F480621A607868FEF73CFD80
:104A50007868FEF77FFF04E07B681B686FF4806274
:104A60005A6100BF1037BD4680BD00BF0000FFFF88
:104A700080B584B000AF78607B6893F83D30FB73FD
:104A80007B6893F83E30BB73BB7B102B02D0BB7BA3
:104A9000402B0AD1FB7B222B07D17B681B681A684D
:104AA0007B681B6822F400621A60FB7B03F028031A
:104AB000282B07D17B6800221A637B68282283F8A1
:104AC0003D2015E07B681B685B6803F40063B3F569
:104AD000006F0AD0FB7B602B07D07B68202283F815
:104AE0003D207B68002283F83E207B6800221A6309
:104AF0007B681B685B6803F40063B3F5006F62D1E9
:104B00007B681B685A687B681B6822F400625A60E5
:104B10007B685B6B93F82130DBB2012B20D07B6884
:104B20005B6B6A4A5A637B685B6B1846FDF7FAFF5A
:104B30000346002B00F089807B681B681A687B683D
:104B40001B6822F001021A607B68202283F83D2056
:104B50007B685B6B5B6B7A68526B1046984774E0BE
:104B60007B689B6B594A5A637B689B6B1846FDF7C1
:104B7000D9FF0346002B68D07B681B685B6903F094
:104B80004003402B0BD17B681B681A697B685B6A0A
:104B9000D2B21A707B685B6A5A1C7B685A627B6867
:104BA0001B681A687B681B6822F001021A607B6828
:104BB000202283F83D207B689B6B5B6B7A68926B4D
:104BC0001046984741E07B6893F83D30DBB2602B9C
:104BD00025D17B68202283F83D207B6800221A645F
:104BE0007B681B685B6903F04003402B0BD17B683B
:104BF0001B681A697B685B6AD2B21A707B685B6A51
:104C00005A1C7B685A627B681B681A687B681B6841
:104C100022F001021A607868FEF7DFFE15E07B687B
:104C20001B685B6903F04003402B0BD17B681B685A
:104C30001A697B685B6AD2B21A707B685B6A5A1C1D
:104C40007B685A627868FEF7BFFE7B681B6CBB60AE
:104C5000BB6803F00103002B0ED1BB6803F0020315
:104C6000002B09D1BB6803F00403002B04D1BB68FF
:104C700003F00803002B07D07B681B685A687B6829
:104C80001B6822F4E0625A607B6893F83D30FB7346
:104C90007B681B6C03F00403042B13D1FB7B282BD4
:104CA00010D17B680A4ADA627B6800221A637B684B
:104CB000202283F83D207B68002283F83E2078681C
:104CC000FEF767FE00BF1037BD4680BDD54C00081B
:104CD0000000FFFF80B586B000AF78600023FB6066
:104CE0007B685B6A7B617B6993F83D30FB744B4B5F
:104CF0001B68DB084A4AA2FB03231A0A13469B00DF
:104D00001344DA00D31AFB60FB68002B06D17B69E1
:104D10001B6C43F020027B691A640AE0FB68013BCC
:104D2000FB607B691B681B6803F40073B3F5007FAD
:104D3000EAD07B695B6B002B03D07B695B6B002245
:104D40009A627B699B6B002B03D07B699B6B002273
:104D50009A627B691B681A687B691B6822F480620F
:104D60001A607B6900225A857B695B6B002B03D03C
:104D70007B695B6B00225A637B699B6B002B03D0C2
:104D80007B699B6B00225A637B691B681A687B698D
:104D90001B6822F001021A607B6993F83D30DBB298
:104DA000602B0ED17B69202283F83D207B69002295
:104DB00083F83E207B6900221A647869FEF70DFEB5
:104DC00027E0FB7C03F02803282B17D17B691B68A5
:104DD0001A687B691B6842F001021A607B691B68D4
:104DE0001A687B691B6842F480621A607B69002242
:104DF0001A637B69282283F83D2007E07B69202223
:104E000083F83D207B69002283F83E207869FEF715
:104E1000DBFD00BF1837BD4680BD00BF1C00002071
:104E200089B5F81480B485B000AF78600023FB60CA
:104E3000134B1B68DB08134AA2FB03231A0A134611
:104E40009B001344FB60FB68013BFB60FB68002B8D
:104E500007D17B681B6C43F020027B681A64012336
:104E600008E07B681B681B6803F40073B3F5007FE0
:104E7000E9D0002318461437BD4680BC704700BFF8
:104E80001C00002089B5F81480B483B000AF7860AE
:104E90007B68DB6AB3F52A0F03D17B680122DA62F3
:104EA00007E07B68DB6AB3F12A4F02D17B680822F6
:104EB000DA6200BF0C37BD4680BC704780B586B053
:104EC00000AF78607B68002B01D1012372E27B6820
:104ED0001B6803F00103002B00F08780924B5B6896
:104EE00003F00C03042B0CD08F4B5B6803F00C0316
:104EF000082B12D18C4B5B6803F48033B3F5803FF1
:104F00000BD1894B1B6803F40033002B6CD07B68FA
:104F10005B68002B68D101234CE27B685B68B3F5CA
:104F2000803F06D1804B1B687F4A43F48033136077
:104F30002EE07B685B68002B0CD17B4B1B687A4AA8
:104F400023F480331360784B1B68774A23F4802363
:104F500013601DE07B685B68B3F5A02F0CD1724B2A
:104F60001B68714A43F4802313606F4B1B686E4AC1
:104F700043F4803313600BE06B4B1B686A4A23F4E5
:104F800080331360684B1B68674A23F480231360E7
:104F90007B685B68002B13D0FDF780F9386108E06F
:104FA000FDF77CF902463B69D31A642B01D9032330
:104FB00000E25D4B1B6803F40033002BF0D014E0DB
:104FC000FDF76CF9386108E0FDF768F902463B69C6
:104FD000D31A642B01D90323ECE1534B1B6803F470
:104FE0000033002BF0D100E000BF7B681B6803F0AA
:104FF0000203002B63D04C4B5B6803F00C03002BC7
:105000000BD0494B5B6803F00C03082B1CD1464BBB
:105010005B6803F48033002B16D1434B1B6803F00D
:105020000203002B05D07B681B69012B01D00123F3
:10503000C0E13D4B1B6823F0F8027B685B69DB0035
:10504000394913430B603AE07B681B69002B20D081
:10505000364B01221A60FDF721F9386108E0FDF7AF
:105060001DF902463B69D31A022B01D90323A1E1A2
:105070002D4B1B6803F00203002BF0D02A4B1B685A
:1050800023F0F8027B685B69DB00274913430B6060
:1050900015E0264B00221A60FDF700F9386108E0A0
:1050A000FDF7FCF802463B69D31A022B01D9032312
:1050B00080E11D4B1B6803F00203002BF0D17B68DD
:1050C0001B6803F00803002B3AD07B689B69002B18
:1050D00019D0174B01221A60FDF7E0F8386108E09B
:1050E000FDF7DCF802463B69D31A022B01D90323F2
:1050F00060E10D4B5B6A03F00203002BF0D001204E
:1051000000F0CEFA1CE00A4B00221A60FDF7C6F848
:1051100038610FE0FDF7C2F802463B69D31A022B53
:1051200008D9032346E100BF0010024000004242BC
:1051300080044242924B5B6A03F00203002BE9D1E8
:105140007B681B6803F00403002B00F0A68000239B
:10515000FB758B4BDB6903F08053002B0DD1884B23
:10516000DB69874A43F08053D361854BDB6903F0E9
:105170008053BB60BB680123FB75824B1B6803F443
:105180008073002B18D17F4B1B687E4A43F48073D9
:105190001360FDF783F8386108E0FDF77FF80246F9
:1051A0003B69D31A642B01D9032303E1754B1B68B8
:1051B00003F48073002BF0D07B68DB68012B06D1F1
:1051C0006F4B1B6A6E4A43F0010313622DE07B684C
:1051D000DB68002B0CD16A4B1B6A694A23F0010380
:1051E0001362674B1B6A664A23F0040313621CE0D8
:1051F0007B68DB68052B0CD1614B1B6A604A43F06E
:10520000040313625E4B1B6A5D4A43F001031362A1
:105210000BE05B4B1B6A5A4A23F001031362584BA5
:105220001B6A574A23F0040313627B68DB68002B78
:1052300015D0FDF733F838610AE0FDF72FF8024684
:105240003B69D31A41F28832934201D90323B1E07A
:105250004B4B1B6A03F00203002BEED014E0FDF76A
:105260001DF838610AE0FDF719F802463B69D31AC8
:1052700041F28832934201D903239BE0404B1B6AE1
:1052800003F00203002BEED1FB7D012B05D13C4B3B
:10529000DB693B4A23F08053D3617B68DB69002BD9
:1052A00000F08780364B5B6803F00C03082B61D05D
:1052B0007B68DB69022B46D1334B00221A60FCF776
:1052C000EDFF386108E0FCF7E9FF02463B69D31ABD
:1052D000022B01D903236DE0294B1B6803F00073F7
:1052E000002BF0D17B681B6AB3F5803F08D1244BBB
:1052F0005B6823F400327B689B68214913434B6051
:105300001F4B5B6823F474127B68196A7B685B6AC5
:105310000B431B4913434B601B4B01221A60FCF7E4
:10532000BDFF386108E0FCF7B9FF02463B69D31ABC
:10533000022B01D903233DE0114B1B6803F00073DE
:10534000002BF0D035E0104B00221A60FCF7A6FFCE
:10535000386108E0FCF7A2FF02463B69D31A022B32
:1053600001D9032326E0064B1B6803F00073002BD2
:10537000F0D11EE07B68DB69012B07D1012319E026
:105380000010024000700040600042420B4B5B681E
:10539000FB60FB6803F480327B681B6A9A4206D18B
:1053A000FB6803F470127B685B6A9A4201D00123A8
:1053B00000E0002318461837BD4680BD00100240AB
:1053C00080B584B000AF786039607B68002B01D174
:1053D0000123D0E06A4B1B6803F007033A689A4246
:1053E00010D9674B1B6823F0070265493B681343DC
:1053F0000B60634B1B6803F007033A689A4201D0C5
:105400000123B8E07B681B6803F00203002B20D067
:105410007B681B6803F00403002B05D0594B5B68C5
:10542000584A43F4E06353607B681B6803F0080349
:10543000002B05D0534B5B68524A43F460535360D2
:10544000504B5B6823F0F0027B689B684D49134327
:105450004B607B681B6803F00103002B40D07B6826
:105460005B68012B07D1474B1B6803F40033002B0B
:1054700015D101237FE07B685B68022B07D1414B8C
:105480001B6803F00073002B09D1012373E03D4B2F
:105490001B6803F00203002B01D101236BE0394BA1
:1054A0005B6823F003027B685B68364913434B60FB
:1054B000FCF7F4FEF8600AE0FCF7F0FE0246FB6839
:1054C000D31A41F28832934201D9032353E02D4B82
:1054D0005B6803F00C027B685B689B009A42EBD12F
:1054E000274B1B6803F007033A689A4210D2244BFB
:1054F0001B6823F0070222493B6813430B60204BD3
:105500001B6803F007033A689A4201D0012332E096
:105510007B681B6803F00403002B08D0194B5B6801
:1055200023F4E0627B68DB68164913434B607B68B9
:105530001B6803F00803002B09D0124B5B6823F4AF
:1055400060527B681B69DB000E4913434B6000F01F
:1055500021F802460B4B5B681B0903F00F030A4955
:10556000CB5C22FA03F3094A1360094B1B68184607
:10557000FCF752FE002318461037BD4680BD00BF21
:10558000002002400010024034BD00081C00002032
:105590002000002080B487B000AF0023FB60002310
:1055A000BB6000237B6100237B6000233B611E4BBB
:1055B0005B68FB60FB6803F00C03042B02D0082B34
:1055C00003D027E0194B3B6127E0FB689B0C03F0FD
:1055D0000F03174AD35C7B60FB6803F48033002B16
:1055E00010D0114B5B685B0C03F00103114AD35CD4
:1055F000BB607B680D4A03FB02F2BB68B2FBF3F3AE
:105600007B6104E07B680C4A02FB03F37B617B69EE
:105610003B6102E0054B3B6100BF3B6918461C370C
:10562000BD4680BC704700BF0010024000127A00E7
:105630004CBD00085CBD000800093D0080B400AF0F
:10564000024B1B681846BD4680BC70471C000020FA
:1056500080B500AFFFF7F2FF0246054B5B681B0AFF
:1056600003F007030349CB5C22FA03F3184680BD1D
:105670000010024044BD000880B500AFFFF7DEFF18
:105680000246054B5B68DB0A03F007030349CB5C6A
:1056900022FA03F3184680BD0010024044BD000802
:1056A00080B485B000AF78600A4B1B680A4AA2FB41
:1056B00003235B0A7A6802FB03F3FB6000BFFB680D
:1056C0005A1EFA60002BF9D100BF00BF1437BD4647
:1056D00080BC70471C000020D34D621080B586B09E
:1056E00000AF786000233B610023FB607B681B6890
:1056F00003F00103002B7DD00023FB754F4BDB69CA
:1057000003F08053002B0DD14C4BDB694B4A43F027
:105710008053D361494BDB6903F08053BB60BB68A6
:105720000123FB75464B1B6803F48073002B18D1D3
:10573000434B1B68424A43F480731360FCF7AEFD91
:10574000386108E0FCF7AAFD02463B69D31A642BD6
:1057500001D903236DE03A4B1B6803F48073002BDF
:10576000F0D0364B1B6A03F44073FB60FB68002BE0
:105770002ED07B685B6803F44073FA689A4227D0A6
:105780002E4B1B6A23F44073FB602E4B01221A60E0
:105790002C4B00221A60294AFB681362FB6803F055
:1057A0000103002B14D0FCF779FD38610AE0FCF707
:1057B00075FD02463B69D31A41F28832934201D902
:1057C000032336E01D4B1B6A03F00203002BEED0CF
:1057D0001A4B1B6A23F440727B685B6817491343BA
:1057E0000B62FB7D012B05D1144BDB69134A23F0BF
:1057F0008053D3617B681B6803F00203002B08D041
:105800000E4B5B6823F440427B689B680B49134353
:105810004B607B681B6803F01003002B08D0074B1C
:105820005B6823F480027B68DB68044913434B60A8
:10583000002318461837BD4680BD00BF0010024047
:10584000007000404004424280B582B000AF7860F2
:105850007B68002B01D1012341E07B6893F83D3048
:10586000DBB2002B06D17B68002283F83C207868ED
:10587000FCF74EFA7B68022283F83D207B681A68A9
:105880007B6804331946104601F0D2F87B68012288
:1058900083F846207B68012283F83E207B68012242
:1058A00083F83F207B68012283F840207B68012237
:1058B00083F841207B68012283F842207B68012223
:1058C00083F843207B68012283F844207B6801220F
:1058D00083F845207B68012283F83D200023184689
:1058E0000837BD4680BD000080B485B000AF786049
:1058F0007B6893F83D30DBB2012B01D001233AE005
:105900007B68022283F83D207B681B68DA687B682D
:105910001B6842F00102DA607B681B68184A9342F8
:105920000ED07B681B68B3F1804F09D07B681B6881
:10593000144A934204D07B681B68134A934211D1E6
:105940007B681B689B6803F00703FB60FB68062B02
:1059500010D07B681B681A687B681B6842F00102E4
:105960001A6007E07B681B681A687B681B6842F056
:1059700001021A60002318461437BD4680BC7047E8
:10598000002C0140000400400008004080B582B0B7
:1059900000AF78607B68002B01D1012341E07B6878
:1059A00093F83D30DBB2002B06D17B68002283F8F0
:1059B0003C20786800F039F87B68022283F83D20AB
:1059C0007B681A687B6804331946104601F030F88A
:1059D0007B68012283F846207B68012283F83E2001
:1059E0007B68012283F83F207B68012283F84020F6
:1059F0007B68012283F841207B68012283F84220E2
:105A00007B68012283F843207B68012283F84420CD
:105A10007B68012283F845207B68012283F83D20C2
:105A2000002318460837BD4680BD80B483B000AF60
:105A3000786000BF0C37BD4680BC704780B584B02D
:105A400000AF786039603B68002B09D17B6893F820
:105A50003E30DBB2012B14BF01230023DBB222E076
:105A60003B68042B09D17B6893F83F30DBB2012BF4
:105A700014BF01230023DBB215E03B68082B09D1DA
:105A80007B6893F84030DBB2012B14BF0123002365
:105A9000DBB208E07B6893F84130DBB2012B14BF26
:105AA00001230023DBB2002B01D001235EE03B6821
:105AB000002B04D17B68022283F83E2013E03B6870
:105AC000042B04D17B68022283F83F200BE03B6863
:105AD000082B04D17B68022283F8402003E07B6816
